:100000000C9435000C945D000C945D000C945D0024
:100010000C945D000C945D000C945D000C945D00EC
:100020000C945D000C945D000C945D000C945D00DC
:100030000C945D000C945D000C945D000C945D00CC
:100040000C948B030C945D000C9411010C945401DE
:100050000C945D000C945D000C945D000C945D00AC
:100060000C945D000C945D00170211241FBECFEFAD
:10007000D8E0DEBFCDBF11E0A0E0B1E0EAE0F9E0FA
:1000800002C005900D92A231B107D9F721E0A2E19B
:10009000B1E001C01D92A53CB207E1F710E0C5E355
:1000A000D0E004C02197FE010E947D04C433D10733
:1000B000C9F70E9452020C9483040C94000040E0A3
:1000C00052EC61E070E082E191E00C948F018EE0EF
:1000D0000E946E034AE050E0BC0182E191E00E9480
:1000E000570361E070E080E090E00C94FA03FC01BB
:1000F00024853585F901E05CFF4F8081918132963E
:1001000020813181821B930B8F7399270895DC0125
:100110001C96ED91FC911D97DF01A05CBF4F2D91C6
:100120003C91119712968D919C9111972817390740
:1001300039F08D919C91E80FF91F808190E008952E
:100140008FEF9FEF0895FC01A485B585FD01E05C6C
:10015000FF4F2081318132968081918128173907A4
:1001600079F080819181A80FB91F8C912081318114
:100170002F5F3F4F2F7333273183208390E0089503
:100180008FEF9FEF0895FC0181A1882329F0A489B6
:10019000B5898C9186FFFBCF11A208950F931F9311
:1001A000CF93DF93FC01A685B7858D01005C1F4FBF
:1001B000E8018881998101968F739927AD014E5B83
:1001C0005F4FEA012881398182179307D1F3E80153
:1001D00028813981A20FB31F6C93A685B785A05CD7
:1001E000BF4F11969C938E93A689B7892C9181E07D
:1001F00090E0078C02C0880F991F0A94E2F7822BC7
:100200008C9381E081A30488F589E02D808180644E
:10021000808381E090E0DF91CF911F910F9108954D
:1002200008951F920F920FB60F9211242F934F93A0
:100230005F938F939F93EF93FF938091C00082FD14
:100240001CC02091C6008091B8019091B90101961F
:100250008F7399274091BA015091BB01841795077C
:1002600071F0E091B801F091B901E858FE4F208398
:100270009093B9018093B80102C08091C600FF91AC
:10028000EF919F918F915F914F912F910F900FBEA2
:100290000F901F90189582E191E00E947700892BC2
:1002A00011F00C94100108951F920F920FB60F9247
:1002B00011242F933F938F939F93EF93FF9320915C
:1002C0007401309175018091760190917701281722
:1002D000390731F48091C1008F7D8093C10014C033
:1002E000E0917601F0917701EC5CFE4F20818091E6
:1002F00076019091770101968F73992790937701FA
:10030000809376012093C600FF91EF919F918F918A
:100310003F912F910F900FBE0F901F901895CF9285
:10032000DF92EF92FF920F931F93CF93DF93EC0135
:100330006A017B014115514E6105710509F1EC8996
:10034000FD8981E090E008A002C0880F991F0A94FF
:10035000E2F7808360E079E08DE390E0A701960109
:100360000E945B0489019A01015011092109310998
:100370003695279517950795980101151041A8F016
:10038000EC89FD89108260E874E88EE190E0A701B5
:1003900096010E945B04DA01C9010197A109B10924
:1003A000B695A795979587959C01E889F98930833B
:1003B000EA89FB89208319A2EE89FF89408181E0C7
:1003C00090E09C010C8C02C0220F331F0A94E2F7CC
:1003D000242B2083EE89FF8940819C010D8C02C073
:1003E000220F331F0A94E2F7242B2083EE89FF8922
:1003F00040819C010E8C02C0220F331F0A94E2F749
:10040000242B2083EE89FF8920810F8C02C0880F66
:10041000991F0A94E2F7809582238083DF91CF9120
:100420001F910F91FF90EF90DF90CF900895E2E140
:10043000F1E01382128288EE93E0A0E0B0E08483C2
:100440009583A683B78385E091E09183808388E7D5
:1004500091E09587848784E391E09787868785EC90
:1004600090E0918B808B84EC90E0938B828B80EC7E
:1004700090E0958B848B81EC90E0978B868B82EC5F
:1004800090E0918F808F86EC90E0938F828F84E054
:10049000848F83E0858F87E0868F85E0878F81E07A
:1004A00080A308950E9420040E945F00CBE4D1E065
:1004B0000E9467002097E1F30E944B01F9CFCF9291
:1004C000DF92EF92FF920F931F93CF93DF936C0114
:1004D000EB017B01E40EF51E00E010E0CE15DF0518
:1004E00061F06991D601ED91FC910190F081E02DD0
:1004F000C6010995080F191FF1CFC801DF91CF91EF
:100500001F910F91FF90EF90DF90CF9008956115AC
:10051000710579F0FB0101900020E9F73197AF01F7
:10052000461B570BDC01ED91FC910280F381E02D1D
:10053000099480E090E00895DC01ED91FC91019038
:10054000F081E02D09940F931F93CF93DF93EC017B
:100550006DE00E949C028C016AE0CE010E949C0228
:10056000800F911FDF91CF911F910F9108958F926E
:100570009F92AF92BF92CF92DF92EF92FF920F9332
:100580001F93CF93DF93CDB7DEB7A1970FB6F89443
:10059000DEBF0FBECDBF6C01142FE52FCB01022FA4
:1005A00019A2223008F40AE07E0121E2E20EF11CD9
:1005B000802E912CA12CB12C612F7E2FA5019401AE
:1005C0000E945B04029F1019112481E0E81AF108CF
:1005D0001A3014F4105D01C0195CF7011083122F5A
:1005E000E32FCA01232B242B252B31F7B701C6019A
:1005F0000E948702A1960FB6F894DEBF0FBECDBF52
:10060000DF91CF911F910F91FF90EF90DF90CF90EE
:10061000BF90AF909F908F900895CF92DF92EF920E
:10062000FF920F931F93CF93DF93EC016A017B013D
:100630002115310579F4E881F9810190F081E02DEF
:10064000642FDF91CF911F910F91FF90EF90DF907A
:10065000CF9009942A303105E9F477FF1AC06DE292
:100660000E949C028C0144275527BA014C195D0950
:100670006E097F092AE0CE010E94B702800F911F08
:10068000DF91CF911F910F91FF90EF90DF90CF906E
:1006900008952AE0B701A601CE01DF91CF911F9105
:1006A0000F91FF90EF90DF90CF900C94B7020F93D3
:1006B0001F93CF93DF93EC019A01AB01770F660B89
:1006C000770B0E940D038C01CE010E94A302800FC4
:1006D000911FDF91CF911F910F9108958E3008F0F7
:1006E0008E5087702091000190E4299F9001112481
:1006F000822B80937C0080917A00806480937A00C2
:1007000080917A0086FDFCCF80917800209179005D
:1007100090E0922B08951F920F920FB60F92112422
:100720002F933F938F939F93AF93BF938091BD017E
:100730009091BE01A091BF01B091C0013091BC0168
:1007400023E0230F2D3720F40196A11DB11D05C014
:1007500026E8230F0296A11DB11D2093BC018093B2
:10076000BD019093BE01A093BF01B093C0018091E1
:10077000C1019091C201A091C301B091C401019641
:10078000A11DB11D8093C1019093C201A093C3012B
:10079000B093C401BF91AF919F918F913F912F91E1
:1007A0000F900FBE0F901F9018953FB7F89480914F
:1007B000C1019091C201A091C301B091C40126B5BD
:1007C000A89B05C02F3F19F00196A11DB11D3FBF89
:1007D000BA2FA92F982F8827820F911DA11DB11D17
:1007E000BC01CD0142E0660F771F881F991F4A9513
:1007F000D1F70895CF92DF92EF92FF92CF93DF93DC
:100800006B017C010E94D503EB01C114D104E1040A
:10081000F10479F00E94D5036C1B7D0B683E734098
:10082000A0F381E0C81AD108E108F108C851DC4FF3
:10083000ECCFDF91CF91FF90EF90DF90CF900895B4
:10084000789484B5826084BD84B5816084BD85B5AB
:10085000826085BD85B5816085BDEEE6F0E0808172
:1008600081608083E1E8F0E0108280818260808393
:10087000808181608083E0E8F0E080818160808316
:10088000E1EBF0E0808184608083E0EBF0E0808148
:1008900081608083EAE7F0E08081846080838081EA
:1008A0008260808380818160808380818068808392
:1008B0001092C1000895A1E21A2EAA1BBB1BFD01D4
:1008C0000DC0AA1FBB1FEE1FFF1FA217B307E4072F
:1008D000F50720F0A21BB30BE40BF50B661F771F87
:1008E000881F991F1A9469F7609570958095909567
:1008F0009B01AC01BD01CF010895EE0FFF1F0590D4
:0A090000F491E02D0994F894FFCF64
:10090A000100000000CE005F027700A3008700C349
:02091A000000DB
:00000001FF
