:100000000C94B2000C94DA000C94DA000C940408FE
:100010000C9428080C944C080C94DA000C94DA0028
:100020000C94DA000C94DA000C94DA000C94DA00E8
:100030000C94DA000C94DA000C94DA000C94DA00D8
:100040000C940F050C94DA000C94ED010C94300222
:100050000C94DA000C94DA000C94DA000C94DA00B8
:100060000C94DA000C94DA00000000070002010092
:100070000003040600000000000000000102040864
:100080001020408001020408102001020408102002
:10009000040404040404040402020202020203032E
:1000A00003030303000000002300260029000000D2
:1000B0000000250028002B0000000000240027007D
:1000C0002A0000C201000100110011000C0000E133
:1000D00000000A00250025002100009600001900FC
:1000E000390039003600127A00001F004600460031
:1000F00044008070000022004D004D004A00004B7B
:1001000000003600750075007200403800004A009B
:100110009C009C009900802500007200EC00EC001F
:10012000E900C0120000E900DA01DA01D701600934
:100130000000D701B603B603B303B0040000B30355
:100140006E076E076B07580200006E07DC0EDC0EB0
:10015000D80E2C010000DC0EC11DC11DBE1D4501C5
:10016000F3024F0111241FBECFEFD8E0DEBFCDBF99
:1001700011E0A0E0B1E0EEEAF8E102C005900D92D6
:10018000AE35B107D9F722E0AEE5B1E001C01D926E
:10019000A436B207E1F710E0C1EBD0E004C021972C
:1001A000FE010E94060ACF3AD107C9F70E942E032A
:1001B0000C944A0C0C940000CF93DF93CDB7DEB7BC
:1001C00027970FB6F894DEBF0FBECDBF40E052ECCC
:1001D00061E070E089E691E00E946B0268E071E006
:1001E000CE0101960E944D06AE014F5F5F4F65E064
:1001F00085E691E00E944D04CE0101960E94DF0544
:1002000068E071E089E691E00E94C80361E08091B6
:1002100006010E94A30427960FB6F894DEBF0FBE16
:10022000CDBFDF91CF910895CF93DF93CDB7DEB7E8
:1002300027970FB6F894DEBF0FBECDBF66E371E01F
:10024000CE0101960E944D06AE014F5F5F4F65E003
:1002500085E691E00E944D04CE0101960E94DF05E3
:1002600066E371E089E691E00E94C80364EF71E003
:1002700080E090E00E947E0527960FB6F894DEBFDE
:100280000FBECDBFDF91CF91089585E691E00E942A
:10029000DA0365E371E08EE591E00C944D068EE59E
:1002A00091E00C94DF05FC0124853585F901E05CC3
:1002B000FF4F80819181329620813181821B930B87
:1002C0008F7399270895DC011C96ED91FC911D9781
:1002D000DF01A05CBF4F2D913C91119712968D913B
:1002E0009C9111972817390739F08D919C91E80F4F
:1002F000F91F808190E008958FEF9FEF0895FC0132
:10030000A485B585FD01E05CFF4F208131813296E7
:10031000808191812817390779F080819181A80F18
:10032000B91F8C91208131812F5F3F4F2F7333276D
:100330003183208390E008958FEF9FEF0895FC01B3
:1003400081A1882329F0A489B5898C9186FFFBCFF0
:1003500011A208950F931F93CF93DF93FC01A685FD
:10036000B7858D01005C1F4FE80188819981019656
:100370008F739927AD014E5B5F4FEA012881398168
:1003800082179307D1F3E80128813981A20FB31FA7
:100390006C93A685B785A05CBF4F11969C938E93F6
:1003A000A689B7892C9181E090E0078C02C0880F64
:1003B000991F0A94E2F7822B8C9381E081A3048831
:1003C000F589E02D80818064808381E090E0DF9179
:1003D000CF911F910F91089508951F920F920FB61C
:1003E0000F9211242F934F935F938F939F93EF93CB
:1003F000FF938091C00082FD1CC02091C6008091B7
:100400000F029091100201968F739927409111026B
:10041000509112028417950771F0E0910F02F0914C
:100420001002E153FE4F20839093100280930F023D
:1004300002C08091C600FF91EF919F918F915F91D3
:100440004F912F910F900FBE0F901F90189589E636
:1004500091E00E945301892B11F00C94EC01089556
:100460001F920F920FB60F9211242F933F938F93E9
:100470009F93EF93FF932091CB013091CC0180911A
:10048000CD019091CE012817390731F48091C10038
:100490008F7D8093C10014C0E091CD01F091CE0119
:1004A000E557FE4F20818091CD019091CE010196BC
:1004B0008F7399279093CE018093CD012093C6002E
:1004C000FF91EF919F918F913F912F910F900FBED0
:1004D0000F901F901895CF92DF92EF92FF920F939B
:1004E0001F93CF93DF93EC016A017B014115514EBD
:1004F0006105710509F1EC89FD8981E090E008A0B2
:1005000002C0880F991F0A94E2F7808360E079E0C7
:100510008DE390E0A70196010E94D00989019A011C
:10052000015011092109310936952795179507952D
:10053000980101151041A8F0EC89FD89108260E84E
:1005400074E88EE190E0A70196010E94D009DA01DB
:10055000C9010197A109B109B695A7959795879506
:100560009C01E889F9893083EA89FB89208319A2F3
:10057000EE89FF89408181E090E09C010C8C02C0F3
:10058000220F331F0A94E2F7242B2083EE89FF8980
:1005900040819C010D8C02C0220F331F0A94E2F7A8
:1005A000242B2083EE89FF8940819C010E8C02C0A0
:1005B000220F331F0A94E2F7242B2083EE89FF8950
:1005C00020810F8C02C0880F991F0A94E2F7809552
:1005D00082238083DF91CF911F910F91FF90EF9045
:1005E000DF90CF900895E9E6F1E01382128288EE61
:1005F00093E0A0E0B0E084839583A683B78381E491
:1006000091E0918380838FEC91E0958784878BE8DC
:1006100091E09787868785EC90E0918B808B84ECC6
:1006200090E0938B828B80EC90E0958B848B81ECB7
:1006300090E0978B868B82EC90E0918F808F86EC98
:1006400090E0938F828F84E0848F83E0858F87E0B2
:10065000868F85E0878F81E080A308950E94A4059E
:100660000E94DC00C7E2D2E00E9414012097E1F36F
:100670000E942702F9CFCF92DF92EF92FF920F9361
:100680001F93CF93DF936C01EB017B01E40EF51E0A
:1006900000E010E0CE15DF0561F06991D601ED9123
:1006A000FC910190F081E02DC6010995080F191FFA
:1006B000F1CFC801DF91CF911F910F91FF90EF9083
:1006C000DF90CF9008956115710579F0FB010190DD
:1006D0000020E9F73197AF01461B570BDC01ED9184
:1006E000FC910280F381E02D099480E090E0089570
:1006F000AF92BF92CF92DF92EF92FF920F931F9330
:10070000CF93DF936C017B01C0E0D0E000E010E00C
:10071000D70114968D919C911597C817D90788F425
:10072000D601ED91FC91A080B180BE01C7010E946D
:100730008406682FC601F5010995080F191F219637
:10074000E7CFC801DF91CF911F910F91FF90EF90FC
:10075000DF90CF90BF90AF900895DC01ED91FC91B8
:100760000190F081E02D09940F931F93CF93DF93B5
:10077000EC016DE00E94AD038C016AE0CE010E94A5
:10078000AD03800F911FDF91CF911F910F910895BD
:100790000F931F93CF93DF93EC010E9463038C01AF
:1007A000CE010E94B403800F911FDF91CF911F9162
:1007B0000F910895FC011182108212821382089514
:1007C0008F929F92AF92BF92CF92DF92EF92FF9261
:1007D0000F931F93CF93DF9300D0CDB7DEB76C019B
:1007E00048015901FC01E080F180E114F10451F06D
:1007F000C7014A8369830E94AF09C7010E94970617
:1008000069814A81F601638342838CE190E00E9412
:1008100095067C0120E0F601428163810E94BE08BA
:10082000F601F182E082B501A401C7010E94E90846
:1008300044E650E060E070E0F601808191810F9025
:100840000F90DF91CF911F910F91FF90EF90DF906C
:10085000CF90BF90AF909F908F900C94B609EF927D
:10086000FF920F931F93CF93DF93EC01790188815F
:100870009981892B39F400E012EC21E030E0CE01BF
:100880000E94E003B70188819981DF91CF911F9188
:100890000F91FF90EF900C947803EF92FF921F93CB
:1008A000CF93DF93CDB7DEB727970FB6F894DEBFAF
:1008B0000FBECDBF7C01162FBA01CE0101960E945A
:1008C0007A0641E0410F9E012F5F3F4F612FC70124
:1008D0000E942F04CE0101960E94DF0527960FB6D5
:1008E000F894DEBF0FBECDBFDF91CF911F91FF9077
:1008F000EF900895833081F028F4813099F08230B0
:10090000A1F008958630A9F08730B9F08430D1F491
:10091000809180008F7D03C0809180008F778093CD
:100920008000089584B58F7702C084B58F7D84BD23
:1009300008958091B0008F7703C08091B0008F7DC3
:100940008093B0000895CF93DF9390E0FC01E458CA
:10095000FF4F2491FC01E057FF4F8491882361F100
:1009600090E0880F991FFC01E854FF4FC591D49186
:10097000FC01E255FF4FA591B491611109C09FB7E9
:10098000F8948881209582238883EC912E230BC0D4
:10099000623061F49FB7F8943881822F8095832369
:1009A0008883EC912E2B2C939FBF06C08FB7F894B1
:1009B000E8812E2B28838FBFDF91CF9108951F935D
:1009C000CF93DF93282F30E0F901E859FF4F84914E
:1009D000F901E458FF4FD491F901E057FF4FC4915A
:1009E000CC23C9F0162F81110E947A04EC2FF0E07D
:1009F000EE0FFF1FE255FF4FA591B4918FB7F8940A
:100A0000111105C09C91ED2FE095E92302C0EC91F6
:100A1000ED2BEC938FBFDF91CF911F9108951F9223
:100A20000F920FB60F9211242F933F938F939F93A2
:100A3000AF93BF938091140290911502A09116027A
:100A4000B09117023091130223E0230F2D3720F4C9
:100A50000196A11DB11D05C026E8230F0296A11D18
:100A6000B11D209313028093140290931502A0935A
:100A70001602B09317028091180290911902A0916A
:100A80001A02B0911B020196A11DB11D809318029C
:100A900090931902A0931A02B0931B02BF91AF91D9
:100AA0009F918F913F912F910F900FBE0F901F90AC
:100AB00018953FB7F8948091180290911902A0916F
:100AC0001A02B0911B0226B5A89B05C02F3F19F052
:100AD0000196A11DB11D3FBFBA2FA92F982F8827BE
:100AE000820F911DA11DB11DBC01CD0142E0660F19
:100AF000771F881F991F4A95D1F70895CF92DF92EB
:100B0000EF92FF92CF93DF936B017C010E94590516
:100B1000EB01C114D104E104F10479F00E945905FC
:100B20006C1B7D0B683E7340A0F381E0C81AD108AE
:100B3000E108F108C851DC4FECCFDF91CF91FF9075
:100B4000EF90DF90CF900895789484B5826084BD53
:100B500084B5816084BD85B5826085BD85B58160C1
:100B600085BDEEE6F0E0808181608083E1E8F0E021
:100B70001082808182608083808181608083E0E850
:100B8000F0E0808181608083E1EBF0E0808184602F
:100B90008083E0EBF0E0808181608083EAE7F0E031
:100BA0008081846080838081826080838081816095
:100BB00080838081806880831092C1000895FC0149
:100BC000808191810C94A10ACF93DF93EC018881FD
:100BD0009981009711F00E94A10A198218821D8242
:100BE0001C821B821A82DF91CF9108950F931F936D
:100BF000CF93DF93EC018B016F5F7F4F88819981E9
:100C00000E94390B009731F0998388831B830A83F4
:100C100081E001C080E0DF91CF911F910F91089595
:100C2000CF93DF93EC0188819981892B29F08A8108
:100C30009B818617970760F4CE010E94F6058823F2
:100C400041F08C819D81892B19F4E881F981108212
:100C500081E0DF91CF910895EF92FF920F931F9360
:100C6000CF93DF93EC017B018A01BA010E94100649
:100C7000811104C0CE010E94E40507C01D830C83CE
:100C8000B701888199810E940C0CCE01DF91CF9130
:100C90001F910F91FF90EF900895FC011182108237
:100CA000138212821582148216826115710551F029
:100CB000FB0101900020E9F73197AF01461B570B6C
:100CC0000C942C060895CF93DF93EC01FB0186175B
:100CD000970761F0608171816115710529F0448188
:100CE00055810E942C0602C00E94E405CE01DF91CE
:100CF000CF910895FC011182108213821282158215
:100D0000148216820C946306FC01248135816217DB
:100D1000730748F480819181009729F0FC01E60F68
:100D2000F71F8081089580E008950C940C0A0C94BC
:100D3000A10A20915E0230915F0228173907B9F4A9
:100D400090911C0280911D02981789F0E0911C027D
:100D5000F0E0E25EFD4F808120911C0230E02F5FC9
:100D60003F4F2F73332720931C0290E008958FEF9D
:100D70009FEF089520915E0230915F022817390796
:100D800081F490911C0280911D02981751F0E0911E
:100D90001C02F0E0E25EFD4F8081082E000C990BF2
:100DA00008958FEF9FEF089520915E0230915F02CA
:100DB0002817390771F480911D0220911C0290E0E0
:100DC000805C9F4F821B910960E470E00E94BC0927
:100DD000089580E090E0089520915E0230915F02D6
:100DE0002817390739F48FB7F89410921D02109222
:100DF0001C028FBF0895DC015196ED91FC91529732
:100E0000908150968C91809589238083089520E06D
:100E100001972FEF8F3F9207D9F7089520915E0237
:100E200030915F022817390789F0FC01238D2E7F4E
:100E3000238F2FB7F89410921D0210921C029093EA
:100E40005F0280935E022FBF81E0089580E00895E5
:100E5000EF92FF920F931F93CF93DF93EC018B8D53
:100E6000EE85FF859D8581FF04C08081982329F44C
:100E700046C08081982309F042C08B899C890E94DA
:100E8000070788E0E82EF12C10E001E08D899E89AB
:100E90000E940707EE85FF8590818D85892311F0DB
:100EA000102B03C0802F80951823000F81E0E81AD3
:100EB000F10861F78F89988D0E9407078B8D81FD5E
:100EC000109580911D0220911C0290E001968F7375
:100ED000992730E08217930779F0E0911D02F0E046
:100EE000E25EFD4F108380911D0290E001968F73AA
:100EF000992780931D0203C08B8D81608B8FDF91BA
:100F0000CF911F910F91FF90EF900895611102C052
:100F10000C94FB06DC015196ED91FC9152972081D7
:100F200050968C91822B80830895DF92EF92FF92EE
:100F30000F931F93CF93DF93EC01298D3A8D2115E9
:100F4000310529F481E090E09B838A834BC0162F02
:100F5000DFB6F8946B8D669561700E948607898D67
:100F60009A8D05960E9407078B8D98E0E92EF12C4B
:100F700001E081FF18C0802F812321F0CE010E9463
:100F8000FB0604C061E0CE010E948607898D9A8D20
:100F90000E940707000F81E0E81AF10861F7CE010F
:100FA0000E94FB0618C0802F812329F061E0CE014A
:100FB0000E94860703C0CE010E94FB06898D9A8D90
:100FC0000E940707000F81E0E81AF10861F761E06D
:100FD000CE010E948607DFBE898D9A8D0E94070789
:100FE00021E030E0C901DF91CF911F910F91FF9077
:100FF000EF90DF90089580915E0290915F020097DC
:1010000011F00C94280708951F920F920FB60F92BB
:1010100011242F933F934F935F936F937F938F93FD
:101020009F93AF93BF93EF93FF930E94FB07FF91B2
:10103000EF91BF91AF919F918F917F916F915F9150
:101040004F913F912F910F900FBE0F901F901895C9
:101050001F920F920FB60F9211242F933F934F932D
:101060005F936F937F938F939F93AF93BF93EF9310
:10107000FF930E94FB07FF91EF91BF91AF919F916A
:101080008F917F916F915F914F913F912F910F9031
:101090000FBE0F901F9018951F920F920FB60F92D0
:1010A00011242F933F934F935F936F937F938F936D
:1010B0009F93AF93BF93EF93FF930E94FB07FF9122
:1010C000EF91BF91AF919F918F917F916F915F91C0
:1010D0004F913F912F910F900FBE0F901F90189539
:1010E0001F93CF93DF93EC01162F61E0812F0E94B5
:1010F000A30461E0812F0E94DF04612F70E0FB01F7
:10110000E458FF4FE491E88BFB01E057FF4FE49177
:10111000F0E0EE0FFF1FE255FF4F859194919A8BFF
:10112000898BDF91CF911F9108951F93CF93DF9308
:10113000EC01162F60E0812F0E94A3048B8D81FDAE
:1011400004C061E0812F0E94DF041C87612F70E0E2
:10115000FB01E458FF4FE491ED87FB01E057FF4F9F
:10116000E491F0E0EE0FFF1FEC55FF4F8591949155
:101170009F878E87DF91CF911F9108951F93CF9303
:10118000DF93EC01162F1B821A8288EE93E0A0E019
:10119000B0E08C839D83AE83BF8381E591E099832A
:1011A00088831C8A1B8A1E8A1D8A188E1F8A1A8EA3
:1011B000198E8B8D8E7F20FB81F98B8F642FCE0152
:1011C0000E947008612FCE01DF91CF911F910C9486
:1011D0009508CF92DF92EF92FF92CF93DF93EC01CD
:1011E0001A8E198E188E1F8A1E8A1D8A82EC90E034
:1011F00020E030E0FC01C590D590E590F490C41655
:10120000D506E606F70619F54CE0429FC001439F5C
:10121000900D1124FC01EA53FF4F259134913C8B32
:101220002B8BFC01E853FF4F259134913E8B2D8B86
:10123000FC01E653FF4F25913491388F2F8BFC0131
:10124000E453FF4F859194919A8F898F09C02F5F46
:101250003F4F0C962D30310509F0CCCF1C8A1B8AEC
:101260008F89988D892B09F444C08C858631E8F5E7
:1012700090916800883050F021E08E3008F420E032
:1012800081E001C0880F2A95EAF701C084E0892B2C
:10129000809368008C85883038F08E3040F086313D
:1012A00048F4ECE6F0E008C0EDE6F0E005C0EBE65F
:1012B000F0E002C0E0E0F0E04081883030F491E0FE
:1012C00001C0990F8A95EAF70EC0282F30E08E30C2
:1012D00018F42850310902C02E50310991E001C0A4
:1012E000990F2A95EAF7942B9083898D9A8D0E9405
:1012F0000707CE01DF91CF91FF90EF90DF90CF9065
:101300000C940E07FC012485263140F5283028F086
:101310002E3030F0ECE6F0E005C0EDE6F0E002C083
:10132000EBE6F0E03081283038F481E090E001C055
:10133000880F2A95EAF70FC0422F50E02E3018F49C
:101340004850510902C04E50510981E090E001C05F
:10135000880F4A95EAF7809583238083089521E5D5
:1013600031E0FC01318320830C948209FC01448329
:10137000558366837783089597FB072E16F40094B0
:1013800007D077FD09D00E94F20907FC05D03EF492
:10139000909581959F4F0895709561957F4F089521
:1013A000A1E21A2EAA1BBB1BFD010DC0AA1FBB1F69
:1013B000EE1FFF1FA217B307E407F50720F0A21BDB
:1013C000B30BE40BF50B661F771F881F991F1A9448
:1013D00069F760957095809590959B01AC01BD0172
:1013E000CF010895AA1BBB1B51E107C0AA1FBB1F59
:1013F000A617B70710F0A61BB70B881F991F5A95A1
:10140000A9F780959095BC01CD010895EE0FFF1FBF
:101410000590F491E02D0994CF93DF9382309105EC
:1014200010F482E090E0E0916202F091630220E02B
:1014300030E0C0E0D0E0309711F140815181481791
:101440005907C0F04817590761F4828193812097AA
:1014500019F09B838A832BC090936302809362026E
:1014600026C02115310519F04217530718F49A01C7
:10147000BE01DF01EF010280F381E02DDCCF2115F9
:10148000310509F1281B390B2430310590F41296EF
:101490008D919C9113976115710521F0FB01938348
:1014A000828304C09093630280936202FD013296AE
:1014B00044C0FD01E20FF31F819391932250310943
:1014C0002D933C933AC02091600230916102232B0E
:1014D00041F4209102013091030130936102209385
:1014E000600220910001309101012115310541F484
:1014F0002DB73EB74091040150910501241B350BD7
:10150000E0916002F0916102E217F307A0F42E1B54
:101510003F0B2817390778F0AC014E5F5F4F241757
:10152000350748F04E0F5F1F5093610240936002F1
:101530008193919302C0E0E0F0E0CF01DF91CF9181
:1015400008950F931F93CF93DF93009709F48CC0F6
:10155000FC013297138212820091620210916302A1
:101560000115110581F420813181820F931F209193
:101570006002309161022817390779F5F093610212
:10158000E093600271C0D80140E050E0AE17BF07A1
:1015900050F412962D913C911397AD012115310510
:1015A00009F1D901F3CF9D01DA01338322836081F0
:1015B0007181860F971F8217930769F4EC012881C8
:1015C0003981260F371F2E5F3F4F318320838A8159
:1015D0009B8193838283452B29F4F0936302E093EC
:1015E000620242C01396FC93EE931297ED0149916B
:1015F00059919E01240F351FE217F30771F4808182
:101600009181840F951F029611969C938E938281EF
:10161000938113969C938E931297E0E0F0E0D801AB
:1016200012968D919C911397009719F0F8018C01F7
:10163000F6CF8D919C9198012E5F3F4F820F931FA3
:1016400020916002309161022817390769F43097C0
:1016500029F4109263021092620202C01382128275
:101660001093610200936002DF91CF911F910F915F
:101670000895A0E0B0E0EFE3FBE00C94170CEC0160
:10168000009721F4CB010E940C0AB8C0FC01E60FC0
:10169000F71F9C0122503109E217F30708F4ACC090
:1016A000D9010D911C91119706171707B0F005305D
:1016B000110508F49FC0C80104978617970708F41E
:1016C00099C002501109061B170B019311936D93DA
:1016D0007C93CF010E94A10A8DC05B01A01AB10AC0
:1016E0004C01800E911EA0916202B091630240E015
:1016F00050E0E12CF12C109709F44AC0A815B90567
:10170000D1F56D907C901197630182E0C80ED11CD9
:10171000CA14DB0480F1A3014A195B096A0182E063
:10172000C80ED11C1296BC9012971396AC91B5E0DE
:10173000CB16D10440F0B282A38351834083D901F8
:101740006D937C930AC00E5F1F4FC301800F911FE2
:10175000F90191838083EB2DFA2FE114F10431F02C
:10176000D7011396FC93EE93129744C0F093630253
:10177000E09362023FC08D919C91119748175907E1
:1017800008F4AC017D0112960D90BC91A02DB3CF51
:10179000809160029091610288159905E1F44617E5
:1017A0005707C8F48091000190910101009741F41E
:1017B0008DB79EB74091040150910501841B950B94
:1017C000E817F907C8F4F0936102E0936002F901A9
:1017D000718360830FC0CB010E940C0A7C010097CB
:1017E00059F0A801BE010E94030CCE010E94A10A7B
:1017F000C70104C0CE0102C080E090E0CDB7DEB7E3
:10180000EEE00C94330CFB01DC0102C001900D9260
:1018100041505040D8F70895FB01DC0101900D9232
:101820000020E1F708952F923F924F925F926F92BE
:101830007F928F929F92AF92BF92CF92DF92EF9260
:10184000FF920F931F93CF93DF93CDB7DEB7CA1BE1
:10185000DB0B0FB6F894DEBF0FBECDBF09942A880C
:10186000398848885F846E847D848C849B84AA84B4
:10187000B984C884DF80EE80FD800C811B81AA8141
:10188000B981CE0FD11D0FB6F894DEBF0FBECDBF0C
:10189000ED01089510E0C1EBD0E004C0FE010E940C
:0E18A000060A2196C23BD107C9F7F894FFCF84
:1018AE000000640220000200426C7565746F6F7454
:1018BE0068204F6E20706C65617365207072657361
:1018CE00732031206F72203020626C696E6B204C59
:1018DE004544202E2E00617A657274790000000056
:1018EE0000AA013B0353017F0163019F0100000029
:0E18FE000095073B03D4069906BA06EC0600D7
:00000001FF
