:100000000C94B2000C94DA000C94DA000C94AE0557
:100010000C94D2050C94F6050C94DA000C94DA00DA
:100020000C94DA000C94DA000C94DA000C94DA00E8
:100030000C94DA000C94DA000C94DA000C94DA00D8
:100040000C94F5070C94DA000C94D4010C9417026C
:100050000C94DA000C94DA000C94DA000C94DA00B8
:100060000C94DA000C94DA0000C2010001001100C7
:1000700011000C0000E100000A002500250021000D
:10008000009600001900390039003600127A00008D
:100090001F004600460044008070000022004D0012
:1000A0004D004A00004B00003600750075007200DC
:1000B000403800004A009C009C0099008025000008
:1000C0007200EC00EC00E900C0120000E900DA0167
:1000D000DA01D70160090000D701B603B603B30304
:1000E000B0040000B3036E076E076B0758020000F0
:1000F0006E07DC0EDC0ED80E2C010000DC0EC11DDC
:10010000C11DBE1D0000000700020100000304061F
:1001100000000000000000000102040810204080E0
:100120000102040810200102040810200404040441
:100130000404040402020202020203030303030391
:100140000000000023002600290000000000250018
:1001500028002B0000000000240027002A00DC00FB
:10016000DA02E30011241FBECFEFD8E0DEBFCDBF1F
:1001700011E0A0E0B1E0E4E4F2E102C005900D92EC
:10018000A032B107D9F722E0A0E2B1E001C01D9290
:10019000A433B207E1F710E0C1EBD0E004C021972F
:1001A000FE010E940F09CF3AD107C9F70E9415033B
:1001B0000C9415090C94000020E041E060E080E21E
:1001C00091E00C94680680E291E00C94590760E09D
:1001D00080E00E94890761E081E00E94890740E891
:1001E00055E260E070E08DE391E00E94520264E627
:1001F00070E080E090E00E94640840E855E260E032
:1002000070E080E291E00E9493068DE391E00E940D
:10021000860180E291E00C9496044AE050E06EE2A0
:100220007EE28DE391E00E942C0480E291E00E9446
:100230007E04892B61F080E291E00E944304809368
:100240003C01682F8DE391E00E947A03EECF8DE3AD
:1002500091E00E943A01892B61F08DE391E00E94C8
:10026000660180933C01682F80E291E00E947A034E
:10027000EECF0895FC0124853585F901E05CFF4F40
:1002800080819181329620813181821B930B8F7303
:1002900099270895DC011C96ED91FC911D97DF01D3
:1002A000A05CBF4F2D913C91119712968D919C911E
:1002B00011972817390739F08D919C91E80FF91F94
:1002C000808190E008958FEF9FEF0895FC01A48551
:1002D000B585FD01E05CFF4F208131813296808140
:1002E00091812817390779F080819181A80FB91F72
:1002F0008C91208131812F5F3F4F2F7333273183C2
:10030000208390E008958FEF9FEF0895FC0181A175
:10031000882329F0A489B5898C9186FFFBCF11A28F
:1003200008950F931F93CF93DF93FC01A685B785A4
:100330008D01005C1F4FE8018881998101968F73C0
:100340009927AD014E5B5F4FEA0128813981821701
:100350009307D1F3E80128813981A20FB31F6C9371
:10036000A685B785A05CBF4F11969C938E93A689F6
:10037000B7892C9181E090E0078C02C0880F991F0B
:100380000A94E2F7822B8C9381E081A30488F5899B
:10039000E02D80818064808381E090E0DF91CF91C7
:1003A0001F910F91089508951F920F920FB60F920B
:1003B00011242F934F935F938F939F93EF93FF930A
:1003C0008091C00082FD1CC02091C6008091E30195
:1003D0009091E40101968F7399274091E501509126
:1003E000E6018417950771F0E091E301F091E401D3
:1003F000ED55FE4F20839093E4018093E30102C00A
:100400008091C600FF91EF919F918F915F914F91E5
:100410002F910F900FBE0F901F9018958DE391E0D4
:100420000E943A01892B11F00C94D30108951F9278
:100430000F920FB60F9211242F933F938F939F9398
:10044000EF93FF9320919F013091A0018091A10132
:100450009091A2012817390731F48091C1008F7D56
:100460008093C10014C0E091A101F091A201E15A72
:10047000FE4F20818091A1019091A20101968F737E
:1004800099279093A2018093A1012093C600FF9128
:10049000EF919F918F913F912F910F900FBE0F90F1
:1004A0001F901895CF92DF92EF92FF920F931F93B8
:1004B000CF93DF93EC016A017B014115514E610539
:1004C000710509F1EC89FD8981E090E008A002C086
:1004D000880F991F0A94E2F7808360E079E08DE34A
:1004E00090E0A70196010E94D90889019A01015064
:1004F0001109210931093695279517950795980116
:1005000001151041A8F0EC89FD89108260E874E8BB
:100510008EE190E0A70196010E94D908DA01C90195
:100520000197A109B109B695A795979587959C0163
:10053000E889F9893083EA89FB89208319A2EE8949
:10054000FF89408181E090E09C010C8C02C0220F69
:10055000331F0A94E2F7242B2083EE89FF89408120
:100560009C010D8C02C0220F331F0A94E2F7242B4A
:100570002083EE89FF8940819C010E8C02C0220FEE
:10058000331F0A94E2F7242B2083EE89FF89208110
:100590000F8C02C0880F991F0A94E2F7809582237E
:1005A0008083DF91CF911F910F91FF90EF90DF90AB
:1005B000CF900895EDE3F1E01382128288EE93E08C
:1005C000A0E0B0E084839583A683B78384E091E0C4
:1005D0009183808383EA91E0958784878FE591E01A
:1005E0009787868785EC90E0918B808B84EC90E0F8
:1005F000938B828B80EC90E0958B848B81EC90E0E8
:10060000978B868B82EC90E0918F808F86EC90E0C8
:10061000938F828F84E0848F83E0858F87E0868F3D
:1006200085E0878F81E080A308950E948A080E9458
:10063000E700CEE0D2E00E940D012097E1F30E9496
:100640000E02F9CFCF92DF92EF92FF920F931F939A
:10065000CF93DF936C01EB017B01E40EF51E00E00C
:1006600010E0CE15DF0561F06991D601ED91FC91A6
:100670000190F081E02DC6010995080F191FF1CFF7
:10068000C801DF91CF911F910F91FF90EF90DF9004
:10069000CF9008956115710579F0FB01019000205C
:1006A000E9F73197AF01461B570BDC01ED91FC9147
:1006B0000280F381E02D099480E090E00895DC0150
:1006C000ED91FC910190F081E02D09940F931F931F
:1006D000CF93DF93EC016DE00E945F038C016AE031
:1006E000CE010E945F03800F911FDF91CF911F9178
:1006F0000F9108950F931F93CF93DF93EC010E9406
:100700005F038C01CE010E946603800F911FDF9171
:10071000CF911F910F9108958F929F92AF92BF92A8
:10072000CF92DF92EF92FF920F931F93CF93DF93BD
:10073000CDB7DEB7A1970FB6F894DEBF0FBECDBF21
:100740006C01142FE52FCB01022F19A2223008F4DF
:100750000AE07E0121E2E20EF11C802E912CA12CF8
:10076000B12C612F7E2FA50194010E94D908029F10
:100770001019112481E0E81AF1081A3014F4105D00
:1007800001C0195CF7011083122FE32FCA01232B3C
:10079000242B252B31F7B701C6010E944A03A196ED
:1007A0000FB6F894DEBF0FBECDBFDF91CF911F9182
:1007B0000F91FF90EF90DF90CF90BF90AF909F9000
:1007C0008F900895CF92DF92EF92FF920F931F9335
:1007D000CF93DF93EC016A017B012115310579F498
:1007E000E881F9810190F081E02D642FDF91CF91B4
:1007F0001F910F91FF90EF90DF90CF9009942A30D6
:100800003105E9F477FF1AC06DE20E945F038C01A5
:1008100044275527BA014C195D096E097F092AE062
:10082000CE010E948C03800F911FDF91CF911F9109
:100830000F91FF90EF90DF90CF9008952AE0B701DD
:10084000A601CE01DF91CF911F910F91FF90EF9004
:10085000DF90CF900C948C030F931F93CF93DF9373
:10086000EC019A01AB01770F660B770B0E94E20354
:100870008C01CE010E946603800F911FDF91CF9102
:100880001F910F9108952091290230912A02281773
:100890003907B9F49091E7018091E801981789F040
:1008A000E091E701F0E0E751FE4F80812091E70100
:1008B00030E02F5F3F4F2F7333272093E70190E005
:1008C00008958FEF9FEF08952091290230912A0219
:1008D0002817390781F49091E7018091E801981772
:1008E00051F0E091E701F0E0E751FE4F8081082EE2
:1008F000000C990B08958FEF9FEF08952091290226
:1009000030912A022817390771F48091E80120916B
:10091000E70190E0805C9F4F821B910960E470E0EA
:100920000E94C508089580E090E008952091290272
:1009300030912A022817390739F48FB7F8941092AA
:10094000E8011092E7018FBF0895DC015196ED9107
:10095000FC915297908150968C9180958923808349
:10096000089520E001972FEF8F3F9207D9F7089560
:100970002091290230912A022817390789F0FC01B9
:10098000238D2E7F238F2FB7F8941092E8011092B9
:10099000E70190932A02809329022FBF81E00895F6
:1009A00080E00895EF92FF920F931F93CF93DF9310
:1009B000EC018B8DEE85FF859D8581FF04C08081D4
:1009C000982329F446C08081982309F042C08B897E
:1009D0009C890E94B10488E0E82EF12C10E001E02F
:1009E0008D899E890E94B104EE85FF8590818D8559
:1009F000892311F0102B03C0802F80951823000F3E
:100A000081E0E81AF10861F78F89988D0E94B1049E
:100A10008B8D81FD10958091E8012091E70190E098
:100A200001968F73992730E08217930779F0E09150
:100A3000E801F0E0E751FE4F10838091E80190E07B
:100A400001968F7399278093E80103C08B8D816095
:100A50008B8FDF91CF911F910F91FF90EF900895B1
:100A6000611102C00C94A504DC015196ED91FC913A
:100A70005297208150968C91822B80830895DF922B
:100A8000EF92FF920F931F93CF93DF93EC01298D89
:100A90003A8D2115310529F481E090E09B838A830A
:100AA0004BC0162FDFB6F8946B8D669561700E946F
:100AB0003005898D9A8D05960E94B1048B8D98E042
:100AC000E92EF12C01E081FF18C0802F812321F055
:100AD000CE010E94A50404C061E0CE010E94300551
:100AE000898D9A8D0E94B104000F81E0E81AF10807
:100AF00061F7CE010E94A50418C0802F812329F040
:100B000061E0CE010E94300503C0CE010E94A50421
:100B1000898D9A8D0E94B104000F81E0E81AF108D6
:100B200061F761E0CE010E943005DFBE898D9A8DAC
:100B30000E94B10421E030E0C901DF91CF911F9103
:100B40000F91FF90EF90DF9008958091290290918E
:100B50002A02009711F00C94D20408951F920F926C
:100B60000FB60F9211242F933F934F935F936F9380
:100B70007F938F939F93AF93BF93EF93FF930E94C5
:100B8000A505FF91EF91BF91AF919F918F917F91BB
:100B90006F915F914F913F912F910F900FBE0F90EA
:100BA0001F9018951F920F920FB60F9211242F933A
:100BB0003F934F935F936F937F938F939F93AF93E5
:100BC000BF93EF93FF930E94A505FF91EF91BF9113
:100BD000AF919F918F917F916F915F914F913F91D5
:100BE0002F910F900FBE0F901F9018951F920F928C
:100BF0000FB60F9211242F933F934F935F936F93F0
:100C00007F938F939F93AF93BF93EF93FF930E9434
:100C1000A505FF91EF91BF91AF919F918F917F912A
:100C20006F915F914F913F912F910F900FBE0F9059
:100C30001F9018951F93CF93DF93EC01162F61E05F
:100C4000812F0E94890761E0812F0E94C507612FD3
:100C500070E0FB01E85EFE4FE491E88BFB01E45D90
:100C6000FE4FE491F0E0EE0FFF1FE65BFE4F859133
:100C700094919A8B898BDF91CF911F9108951F9347
:100C8000CF93DF93EC01162F60E0812F0E9489073C
:100C90008B8D81FD04C061E0812F0E94C5071C87F8
:100CA000612F70E0FB01E85EFE4FE491ED87FB01F0
:100CB000E45DFE4FE491F0E0EE0FFF1FE05CFE4FBD
:100CC000859194919F878E87DF91CF911F91089591
:100CD0001F93CF93DF93EC01162F1B821A8288EEAD
:100CE00093E0A0E0B0E08C839D83AE83BF8384E17A
:100CF00091E0998388831C8A1B8A1E8A1D8A188E1C
:100D00001F8A1A8E198E8B8D8E7F20FB81F98B8F17
:100D1000642FCE010E941A06612FCE01DF91CF9180
:100D20001F910C943F06CF92DF92EF92FF92CF93E8
:100D3000DF93EC011A8E198E188E1F8A1E8A1D8A67
:100D400088E690E020E030E0FC01C590D590E59089
:100D5000F490C416D506E606F70619F54CE0429F56
:100D6000C001439F900D1124FC01E459FF4F2591D0
:100D700034913C8B2B8BFC01E259FF4F2591349130
:100D80003E8B2D8BFC01E059FF4F25913491388F1C
:100D90002F8BFC01EE58FF4F859194919A8F898F8C
:100DA00009C02F5F3F4F0C962D30310509F0CCCF95
:100DB0001C8A1B8A8F89988D892B09F444C08C85E5
:100DC0008631E8F590916800883050F021E08E304F
:100DD00008F420E081E001C0880F2A95EAF701C0FD
:100DE00084E0892B809368008C85883038F08E30C1
:100DF00040F0863148F4ECE6F0E008C0EDE6F0E0C3
:100E000005C0EBE6F0E002C0E0E0F0E040818830B1
:100E100030F491E001C0990F8A95EAF70EC0282FAF
:100E200030E08E3018F42850310902C02E503109BC
:100E300091E001C0990F2A95EAF7942B9083898D50
:100E40009A8D0E94B104CE01DF91CF91FF90EF9077
:100E5000DF90CF900C94B804FC012485263140F536
:100E6000283028F02E3030F0ECE6F0E005C0EDE65A
:100E7000F0E002C0EBE6F0E03081283038F481E0A9
:100E800090E001C0880F2A95EAF70FC0422F50E08A
:100E90002E3018F44850510902C04E50510981E0DB
:100EA00090E001C0880F4A95EAF7809583238083FC
:100EB000089524E131E0FC01318320830C942C0758
:100EC000833081F028F4813099F08230A1F00895C8
:100ED0008630A9F08730B9F08430D1F48091800059
:100EE0008F7D03C0809180008F778093800008956C
:100EF00084B58F7702C084B58F7D84BD08958091BD
:100F0000B0008F7703C08091B0008F7D8093B000D8
:100F10000895CF93DF9390E0FC01E85EFE4F2491AB
:100F2000FC01E45DFE4F8491882361F190E0880F1D
:100F3000991FFC01EC5AFE4FC591D491FC01E65B70
:100F4000FE4FA591B491611109C09FB7F8948881B3
:100F5000209582238883EC912E230BC0623061F4AC
:100F60009FB7F8943881822F809583238883EC91F2
:100F70002E2B2C939FBF06C08FB7F894E8812E2BA1
:100F800028838FBFDF91CF9108951F93CF93DF9375
:100F9000282F30E0F901EC5FFE4F8491F901E85E03
:100FA000FE4FD491F901E45DFE4FC491CC23C9F00A
:100FB000162F81110E946007EC2FF0E0EE0FFF1F4B
:100FC000E65BFE4FA591B4918FB7F894111105C05F
:100FD0009C91ED2FE095E92302C0EC91ED2BEC9371
:100FE0008FBFDF91CF911F9108951F920F920FB67F
:100FF0000F9211242F933F938F939F93AF93BF939F
:1010000080912C0290912D02A0912E02B0912F027E
:1010100030912B0223E0230F2D3720F40196A11DE0
:10102000B11D05C026E8230F0296A11DB11D209316
:101030002B0280932C0290932D02A0932E02B0934A
:101040002F028091300290913102A0913202B09132
:1010500033020196A11DB11D80933002909331029D
:10106000A0933202B0933302BF91AF919F918F91C1
:101070003F912F910F900FBE0F901F9018953FB783
:10108000F8948091300290913102A0913202B09197
:10109000330226B5A89B05C02F3F19F00196A11D6C
:1010A000B11D3FBFBA2FA92F982F8827820F911DFE
:1010B000A11DB11DBC01CD0142E0660F771F881F45
:1010C000991F4A95D1F70895CF92DF92EF92FF9240
:1010D000CF93DF936B017C010E943F08EB01C114A9
:1010E000D104E104F10479F00E943F086C1B7D0BF0
:1010F000683E7340A0F381E0C81AD108E108F10806
:10110000C851DC4FECCFDF91CF91FF90EF90DF9093
:10111000CF900895789484B5826084BD84B5816051
:1011200084BD85B5826085BD85B5816085BDEEE6EF
:10113000F0E0808181608083E1E8F0E010828081CE
:1011400082608083808181608083E0E8F0E080813C
:1011500081608083E1EBF0E0808184608083E0EB5C
:10116000F0E0808181608083EAE7F0E08081846044
:1011700080838081826080838081816080838081A0
:10118000806880831092C100089597FB072E16F4A3
:10119000009407D077FD09D00E94FB0807FC05D01A
:1011A0003EF4909581959F4F0895709561957F4F7E
:1011B0000895A1E21A2EAA1BBB1BFD010DC0AA1F98
:1011C000BB1FEE1FFF1FA217B307E407F50720F0B0
:1011D000A21BB30BE40BF50B661F771F881F991F2B
:1011E0001A9469F760957095809590959B01AC0174
:1011F000BD01CF010895AA1BBB1B51E107C0AA1F67
:10120000BB1FA617B70710F0A61BB70B881F991FA7
:101210005A95A9F780959095BC01CD010895EE0FE0
:10122000FF1F0590F491E02D099410E0C1EBD0E090
:1012300004C0FE010E940F092196C23BD107C9F7E5
:04124000F894FFCF50
:1012440000000000910122033A0166014A0186016F
:10125400000000003F0522037E0443046404960456
:00000001FF
