:100000000C94B2000C94DA000C94DA000C94F7040F
:100010000C941B050C943F050C94DA000C94DA0048
:100020000C94DA000C94DA000C94DA000C94DA00E8
:100030000C94DA000C94DA000C94DA000C94DA00D8
:100040000C943E070C94DA000C94F8010C943B02DB
:100050000C94DA000C94DA000C94DA000C94DA00B8
:100060000C94DA000C94DA0000C2010001001100C7
:1000700011000C0000E100000A002500250021000D
:10008000009600001900390039003600127A00008D
:100090001F004600460044008070000022004D0012
:1000A0004D004A00004B00003600750075007200DC
:1000B000403800004A009C009C0099008025000008
:1000C0007200EC00EC00E900C0120000E900DA0167
:1000D000DA01D70160090000D701B603B603B30304
:1000E000B0040000B3036E076E076B0758020000F0
:1000F0006E07DC0EDC0ED80E2C010000DC0EC11DDC
:10010000C11DBE1D0000000700020100000304061F
:1001100000000000000000000102040810204080E0
:100120000102040810200102040810200404040441
:100130000404040402020202020203030303030391
:100140000000000023002600290000000000250018
:1001500028002B0000000000240027002A00DC00FB
:10016000FE02E50011241FBECFEFD8E0DEBFCDBFF9
:1001700011E0A0E0B1E0E6EDF0E102C005900D92E3
:10018000AE3AB107D9F722E0AEEAB1E001C01D9264
:10019000A13CB207E1F710E0C1EBD0E004C0219729
:1001A000FE010E945808CF3AD107C9F70E943903CF
:1001B0000C945E080C94000020E0409100016091D6
:1001C00002018EEA91E00C94B1058EEA91E00C9464
:1001D000A20640E056E960E070E08EEA91E00E94FD
:1001E000DC0564E071E08EEA91E00E94830364E143
:1001F00071E08EEA91E00E94830364E271E08EEA8E
:1002000091E00E9483036BE371E08EEA91E00E942B
:10021000830369E471E08EEA91E00E94830360ED5C
:1002200077E080E090E00E94AD0767E571E08EEA3C
:1002300091E00E94830360ED77E080E090E00E940F
:10024000AD078EEA91E00E94DF0362E671E08EEA7C
:1002500091E00C94830340E855E260E070E08AECA2
:1002600091E00E94760260E0809102010E94D20635
:1002700061E0809100010E94D2060C94E9008EEAB0
:1002800091E00E94C703892B49F08EEA91E00E9419
:100290008C03682F8AEC91E00E9485038AEC91E040
:1002A0000E945E01892B49F08AEC91E00E948A014C
:1002B000682F8EEA91E00C9485030895FC01248553
:1002C0003585F901E05CFF4F808191813296208174
:1002D0003181821B930B8F7399270895DC011C9643
:1002E000ED91FC911D97DF01A05CBF4F2D913C91DA
:1002F000119712968D919C9111972817390739F013
:100300008D919C91E80FF91F808190E008958FEF07
:100310009FEF0895FC01A485B585FD01E05CFF4FCA
:10032000208131813296808191812817390779F0B7
:1003300080819181A80FB91F8C91208131812F5F1D
:100340003F4F2F7333273183208390E008958FEF41
:100350009FEF0895FC0181A1882329F0A489B58924
:100360008C9186FFFBCF11A208950F931F93CF931B
:10037000DF93FC01A685B7858D01005C1F4FE80166
:100380008881998101968F739927AD014E5B5F4FEC
:10039000EA012881398182179307D1F3E801288186
:1003A0003981A20FB31F6C93A685B785A05CBF4FA0
:1003B00011969C938E93A689B7892C9181E090E049
:1003C000078C02C0880F991F0A94E2F7822B8C9346
:1003D00081E081A30488F589E02D80818064808399
:1003E00081E090E0DF91CF911F910F9108950895E2
:1003F0001F920F920FB60F9211242F934F935F937A
:100400008F939F93EF93FF938091C00082FD1CC058
:100410002091C600809170029091710201968F73B5
:10042000992740917202509173028417950771F0D9
:10043000E0917002F0917102E05DFD4F2083909396
:1004400071028093700202C08091C600FF91EF910B
:100450009F918F915F914F912F910F900FBE0F90B1
:100460001F9018958AEC91E00E945E01892B11F093
:100470000C94F70108951F920F920FB60F9211245A
:100480002F933F938F939F93EF93FF9320912C0291
:1004900030912D0280912E0290912F02281739075A
:1004A00031F48091C1008F7D8093C10014C0E09130
:1004B0002E02F0912F02E451FE4F208180912E02F6
:1004C00090912F0201968F73992790932F0280931A
:1004D0002E022093C600FF91EF919F918F913F9143
:1004E0002F910F900FBE0F901F901895CF92DF9213
:1004F000EF92FF920F931F93CF93DF93EC016A016A
:100500007B014115514E6105710509F1EC89FD89A9
:1005100081E090E008A002C0880F991F0A94E2F7DA
:10052000808360E079E08DE390E0A70196010E946E
:10053000220889019A0101501109210931093695D2
:10054000279517950795980101151041A8F0EC899A
:10055000FD89108260E874E88EE190E0A7019601C1
:100560000E942208DA01C9010197A109B109B695D3
:10057000A795979587959C01E889F9893083EA8941
:10058000FB89208319A2EE89FF89408181E090E0F8
:100590009C010C8C02C0220F331F0A94E2F7242B1B
:1005A0002083EE89FF8940819C010D8C02C0220FBF
:1005B000331F0A94E2F7242B2083EE89FF894081C0
:1005C0009C010E8C02C0220F331F0A94E2F7242BE9
:1005D0002083EE89FF8920810F8C02C0880F991F2C
:1005E0000A94E2F7809582238083DF91CF911F9157
:1005F0000F91FF90EF90DF90CF900895EAECF1E03B
:100600001382128288EE93E0A0E0B0E084839583A9
:10061000A683B78382E991E09183808380E392E0AF
:10062000958784878CEE91E09787868785EC90E0AC
:10063000918B808B84EC90E0938B828B80EC90E0AC
:10064000958B848B81EC90E0978B868B82EC90E08D
:10065000918F808F86EC90E0938F828F84E0848FDF
:1006600083E0858F87E0868F85E0878F81E080A398
:1006700008950E94D3070E942B01C2E3D2E00E949A
:100680003F012097E1F30E943202F9CFCF92DF922F
:10069000EF92FF920F931F93CF93DF936C01EB01C7
:1006A0007B01E40EF51E00E010E0CE15DF0561F0E1
:1006B0006991D601ED91FC910190F081E02DC60188
:1006C0000995080F191FF1CFC801DF91CF911F9134
:1006D0000F91FF90EF90DF90CF9008956115710515
:1006E00079F0FB0101900020E9F73197AF01461B3B
:1006F000570BDC01ED91FC910280F381E02D099410
:1007000080E090E008950C946E03DC01ED91FC9183
:100710000190F081E02D09942091B6023091B7024A
:1007200028173907B9F490917402809175029817CF
:1007300089F0E0917402F0E0EA58FD4F8081209149
:10074000740230E02F5F3F4F2F73332720937402E2
:1007500090E008958FEF9FEF08952091B6023091B9
:10076000B7022817390781F49091740280917502BD
:10077000981751F0E0917402F0E0EA58FD4F808143
:10078000082E000C990B08958FEF9FEF089520918C
:10079000B6023091B7022817390771F480917502BB
:1007A0002091740290E0805C9F4F821B910960E46D
:1007B00070E00E940E08089580E090E00895209176
:1007C000B6023091B7022817390739F48FB7F89479
:1007D00010927502109274028FBF0895DC01519639
:1007E000ED91FC915297908150968C918095892340
:1007F0008083089520E001972FEF8F3F9207D9F76C
:1008000008952091B6023091B7022817390789F070
:10081000FC01238D2E7F238F2FB7F8941092750241
:10082000109274029093B7028093B6022FBF81E0BA
:10083000089580E00895EF92FF920F931F93CF9356
:10084000DF93EC018B8DEE85FF859D8581FF04C0D4
:100850008081982329F446C08081982309F042C002
:100860008B899C890E94FA0388E0E82EF12C10E025
:1008700001E08D899E890E94FA03EE85FF859081B3
:100880008D85892311F0102B03C0802F80951823AC
:10089000000F81E0E81AF10861F78F89988D0E94B6
:1008A000FA038B8D81FD1095809175022091740261
:1008B00090E001968F73992730E08217930779F0C3
:1008C000E0917502F0E0EA58FD4F108380917502C7
:1008D00090E001968F7399278093750203C08B8DEA
:1008E00081608B8FDF91CF911F910F91FF90EF90DF
:1008F0000895611102C00C94EE03DC015196ED9154
:10090000FC915297208150968C91822B8083089580
:10091000DF92EF92FF920F931F93CF93DF93EC013F
:10092000298D3A8D2115310529F481E090E09B83D2
:100930008A834BC0162FDFB6F8946B8D6695617075
:100940000E947904898D9A8D05960E94FA038B8DF9
:1009500098E0E92EF12C01E081FF18C0802F81235F
:1009600021F0CE010E94EE0304C061E0CE010E949E
:100970007904898D9A8D0E94FA03000F81E0E81AAC
:10098000F10861F7CE010E94EE0318C0802F812389
:1009900029F061E0CE010E94790403C0CE010E94DB
:1009A000EE03898D9A8D0E94FA03000F81E0E81A08
:1009B000F10861F761E0CE010E947904DFBE898D04
:1009C0009A8D0E94FA0321E030E0C901DF91CF91B6
:1009D0001F910F91FF90EF90DF9008958091B602E4
:1009E0009091B702009711F00C941B0408951F9288
:1009F0000F920FB60F9211242F933F934F935F9353
:100A00006F937F938F939F93AF93BF93EF93FF93D6
:100A10000E94EE04FF91EF91BF91AF919F918F9152
:100A20007F916F915F914F913F912F910F900FBEEA
:100A30000F901F9018951F920F920FB60F921124CE
:100A40002F933F934F935F936F937F938F939F93D6
:100A5000AF93BF93EF93FF930E94EE04FF91EF914A
:100A6000BF91AF919F918F917F916F915F914F91C6
:100A70003F912F910F900FBE0F901F9018951F92CE
:100A80000F920FB60F9211242F933F934F935F93C2
:100A90006F937F938F939F93AF93BF93EF93FF9346
:100AA0000E94EE04FF91EF91BF91AF919F918F91C2
:100AB0007F916F915F914F913F912F910F900FBE5A
:100AC0000F901F9018951F93CF93DF93EC01162F73
:100AD00061E0812F0E94D20661E0812F0E940E0703
:100AE000612F70E0FB01E85EFE4FE491E88BFB01B3
:100AF000E45DFE4FE491F0E0EE0FFF1FE65BFE4F7A
:100B0000859194919A8B898BDF91CF911F91089554
:100B10001F93CF93DF93EC01162F60E0812F0E948B
:100B2000D2068B8D81FD04C061E0812F0E940E07EB
:100B30001C87612F70E0FB01E85EFE4FE491ED87BA
:100B4000FB01E45DFE4FE491F0E0EE0FFF1FE05C7F
:100B5000FE4F859194919F878E87DF91CF911F9152
:100B600008951F93CF93DF93EC01162F1B821A82F7
:100B700088EE93E0A0E0B0E08C839D83AE83BF83DA
:100B800082EA91E0998388831C8A1B8A1E8A1D8AC7
:100B9000188E1F8A1A8E198E8B8D8E7F20FB81F9FD
:100BA0008B8F642FCE010E946305612FCE01DF91F0
:100BB000CF911F910C948805CF92DF92EF92FF9214
:100BC000CF93DF93EC011A8E198E188E1F8A1E8A1E
:100BD0001D8A88E690E020E030E0FC01C590D590C9
:100BE000E590F490C416D506E606F70619F54CE034
:100BF000429FC001439F900D1124FC01E459FF4F17
:100C0000259134913C8B2B8BFC01E259FF4F2591B0
:100C100034913E8B2D8BFC01E059FF4F259134918F
:100C2000388F2F8BFC01EE58FF4F859194919A8F4E
:100C3000898F09C02F5F3F4F0C962D30310509F089
:100C4000CCCF1C8A1B8A8F89988D892B09F444C0CC
:100C50008C858631E8F590916800883050F021E06D
:100C60008E3008F420E081E001C0880F2A95EAF771
:100C700001C084E0892B809368008C85883038F02F
:100C80008E3040F0863148F4ECE6F0E008C0EDE646
:100C9000F0E005C0EBE6F0E002C0E0E0F0E040810B
:100CA000883030F491E001C0990F8A95EAF70EC0C0
:100CB000282F30E08E3018F42850310902C02E5011
:100CC000310991E001C0990F2A95EAF7942B90839E
:100CD000898D9A8D0E94FA03CE01DF91CF91FF900A
:100CE000EF90DF90CF900C940104FC012485263115
:100CF00040F5283028F02E3030F0ECE6F0E005C06A
:100D0000EDE6F0E002C0EBE6F0E03081283038F4A8
:100D100081E090E001C0880F2A95EAF70FC0422FCA
:100D200050E02E3018F44850510902C04E5051097D
:100D300081E090E001C0880F4A95EAF7809583230F
:100D40008083089522EA31E0FC01318320830C94F2
:100D50007506833081F028F4813099F08230A1F05B
:100D600008958630A9F08730B9F08430D1F48091AD
:100D700080008F7D03C0809180008F7780938000FA
:100D8000089584B58F7702C084B58F7D84BD0895A2
:100D90008091B0008F7703C08091B0008F7D8093E9
:100DA000B0000895CF93DF9390E0FC01E85EFE4F22
:100DB0002491FC01E45DFE4F8491882361F190E071
:100DC000880F991FFC01EC5AFE4FC591D491FC018C
:100DD000E65BFE4FA591B491611109C09FB7F894ED
:100DE0008881209582238883EC912E230BC062306A
:100DF00061F49FB7F8943881822F8095832388838C
:100E0000EC912E2B2C939FBF06C08FB7F894E881EE
:100E10002E2B28838FBFDF91CF9108951F93CF93FF
:100E2000DF93282F30E0F901EC5FFE4F8491F90148
:100E3000E85EFE4FD491F901E45DFE4FC491CC23EE
:100E4000C9F0162F81110E94A906EC2FF0E0EE0FD9
:100E5000FF1FE65BFE4FA591B4918FB7F894111177
:100E600005C09C91ED2FE095E92302C0EC91ED2B9C
:100E7000EC938FBFDF91CF911F9108951F920F9236
:100E80000FB60F9211242F933F938F939F93AF939D
:100E9000BF938091B9029091BA02A091BB02B09128
:100EA000BC023091B80223E0230F2D3720F40196C5
:100EB000A11DB11D05C026E8230F0296A11DB11D7D
:100EC0002093B8028093B9029093BA02A093BB0218
:100ED000B093BC028091BD029091BE02A091BF026E
:100EE000B091C0020196A11DB11D8093BD029093E7
:100EF000BE02A093BF02B093C002BF91AF919F9179
:100F00008F913F912F910F900FBE0F901F901895CA
:100F10003FB7F8948091BD029091BE02A091BF02AC
:100F2000B091C00226B5A89B05C02F3F19F00196CD
:100F3000A11DB11D3FBFBA2FA92F982F8827820F5F
:100F4000911DA11DB11DBC01CD0142E0660F771FAF
:100F5000881F991F4A95D1F70895CF92DF92EF929B
:100F6000FF92CF93DF936B017C010E948807EB0116
:100F7000C114D104E104F10479F00E9488076C1BCC
:100F80007D0B683E7340A0F381E0C81AD108E108E8
:100F9000F108C851DC4FECCFDF91CF91FF90EF907B
:100FA000DF90CF900895789484B5826084BD84B535
:100FB000816084BD85B5826085BD85B5816085BD54
:100FC000EEE6F0E0808181608083E1E8F0E010826D
:100FD000808182608083808181608083E0E8F0E0AE
:100FE000808181608083E1EBF0E080818460808398
:100FF000E0EBF0E0808181608083EAE7F0E08081CF
:10100000846080838081826080838081816080832E
:101010008081806880831092C100089597FB072E1D
:1010200016F4009407D077FD09D00E94440807FC0D
:1010300005D03EF4909581959F4F089570956195E8
:101040007F4F0895A1E21A2EAA1BBB1BFD010DC004
:10105000AA1FBB1FEE1FFF1FA217B307E407F50768
:1010600020F0A21BB30BE40BF50B661F771F881F44
:10107000991F1A9469F760957095809590959B01DA
:10108000AC01BD01CF010895AA1BBB1B51E107C0F4
:10109000AA1FBB1FA617B70710F0A61BB70B881F08
:1010A000991F5A95A9F780959095BC01CD01089597
:1010B000EE0FFF1F0590F491E02D099410E0C1EBB5
:1010C000D0E004C0FE010E9458082196C23BD1071F
:0610D000C9F7F894FFCF00
:1010D600070006000D0A2B5354574D4F44203D2060
:1010E600300D0A000D0A2B535442443D3338343038
:1010F600300D0A000D0A2B53544E413D536565656C
:10110600644254536C6176650D0A000D0A2B5354E4
:101116004F4155543D310D0A000D0A2B535441558C
:10112600544F3D300D0A000D0A2B494E513D310DED
:101136000A00426C7565746F6F746820636F6E6E1B
:10114600656374696F6E2065737461626C69736838
:10115600656420636F72726563746C7921000000A8
:101166000000B50146035E018A016E01AA01000076
:0E117600000088044603C7038C03AD03DF03AB
:00000001FF
