:100000000C9463000C948B000C948B000C948B006C
:100010000C948B000C948B000C948B000C948B0034
:100020000C948B000C948B000C948B000C948B0024
:100030000C948B000C948B000C948B000C948B0014
:100040000C9407070C948B000C949F010C94E20114
:100050000C948B000C948B000C948B000C948B00F4
:100060000C948B000C948B00000000070002010030
:100070000003040600000000000000000102040864
:100080001020408001020408102001020408102002
:10009000040404040404040402020202020203032E
:1000A00003030303000000002300260029000000D2
:1000B0000000250028002B0000000000240027007D
:1000C0002A00FE00A50211241FBECFEFD8E0DEBF3C
:1000D000CDBF11E0A0E0B1E0EEE9F1E102C0059092
:1000E0000D92A238B107D9F722E0A2E8B1E001C031
:1000F0001D92A733B207E1F710E0C3E6D0E004C0D9
:100100002197FE010E94C708C136D107C9F70E9496
:10011000E0020C94CD080C94000040E052EC61E049
:1001200070E084E891E00C941D020F931F93CF932D
:10013000DF9300D0CDB7DEB762E071E084E891E0F4
:100140000E94470364E271E084E891E00E94470363
:100150001A821982609100017091010100E010E0A3
:100160009E012F5F3F4FAE014E5F5F4F82E891E0EF
:100170000E9417048C01892B91F064E371E084E8FC
:1001800091E00E942A034AE050E0B80184E891E03F
:100190000E94000468EE73E080E090E026C06CE40A
:1001A00071E084E891E00E942A036A8170E04AE0ED
:1001B00050E084E891E00E94F90368E571E084E88A
:1001C00091E00E942A03698170E04AE050E084E8EF
:1001D00091E00E94F9036EE571E084E891E00E94ED
:1001E00047036CED75E080E090E00E9476070F9089
:1001F0000F90DF91CF911F910F91089585E791E0C6
:1002000090938301809382010895FC0124853585B4
:10021000F901E05CFF4F808191813296208131812C
:10022000821B930B8F7399270895DC011C96ED9127
:10023000FC911D97DF01A05CBF4F2D913C91119760
:1002400012968D919C9111972817390739F08D914D
:100250009C91E80FF91F808190E008958FEF9FEF48
:100260000895FC01A485B585FD01E05CFF4F208168
:1002700031813296808191812817390779F0808108
:100280009181A80FB91F8C91208131812F5F3F4F41
:100290002F7333273183208390E008958FEF9FEFF2
:1002A0000895FC0181A1882329F0A489B5898C9146
:1002B00086FFFBCF11A208950F931F93CF93DF9377
:1002C000FC01A685B7858D01005C1F4FE801888180
:1002D000998101968F739927AD014E5B5F4FEA01BB
:1002E0002881398182179307D1F3E8012881398168
:1002F000A20FB31F6C93A685B785A05CBF4F119664
:100300009C938E93A689B7892C9181E090E0078C0D
:1003100002C0880F991F0A94E2F7822B8C9381E028
:1003200081A30488F589E02D80818064808381E049
:1003300090E0DF91CF911F910F91089508951F9242
:100340000F920FB60F9211242F934F935F938F93B9
:100350009F93EF93FF938091C00082FD1CC020917A
:10036000C60080912A0290912B0201968F739927E3
:1003700040912C0250912D028417950771F0E09165
:100380002A02F0912B02E651FE4F208390932B021C
:1003900080932A0202C08091C600FF91EF919F9145
:1003A0008F915F914F912F910F900FBE0F901F90E3
:1003B000189584E891E00E940501892B11F00C94B6
:1003C0009E0108951F920F920FB60F9211242F9342
:1003D0003F938F939F93EF93FF932091E60130918A
:1003E000E7018091E8019091E9012817390731F47C
:1003F0008091C1008F7D8093C10014C0E091E8011D
:10040000F091E901EA55FE4F20818091E801909139
:10041000E90101968F7399279093E9018093E80190
:100420002093C600FF91EF919F918F913F912F9163
:100430000F900FBE0F901F901895CF92DF92EF9202
:10044000FF920F931F93CF93DF93EC016A017B011F
:100450004115514E6105710509F1EC89FD8981E075
:1004600090E008A002C0880F991F0A94E2F78083E9
:1004700060E079E08DE390E0A70196010E94910889
:1004800089019A01015011092109310936952795F1
:1004900017950795980101151041A8F0EC89FD8981
:1004A000108260E874E88EE190E0A70196010E9456
:1004B0009108DA01C9010197A109B109B695A7957B
:1004C000979587959C01E889F9893083EA89FB89AA
:1004D000208319A2EE89FF89408181E090E09C0190
:1004E0000C8C02C0220F331F0A94E2F7242B2083C6
:1004F000EE89FF8940819C010D8C02C0220F331FC1
:100500000A94E2F7242B2083EE89FF8940819C0125
:100510000E8C02C0220F331F0A94E2F7242B208393
:10052000EE89FF8920810F8C02C0880F991F0A94E1
:10053000E2F7809582238083DF91CF911F910F9105
:10054000FF90EF90DF90CF900895E4E8F1E0138200
:10055000128288EE93E0A0E0B0E084839583A683C6
:10056000B78385E691E0918380838AEE91E0958759
:10057000848786EA91E09787868785EC90E0918B67
:10058000808B84EC90E0938B828B80EC90E0958B59
:10059000848B81EC90E0978B868B82EC90E0918F3E
:1005A000808F86EC90E0938F828F84E0848F83E04D
:1005B000858F87E0868F85E0878F81E080A308950F
:1005C0000E94A6070E948D00C9EDD1E00E9495000F
:1005D0002097E1F30E94D901F9CFCF92DF92EF92F9
:1005E000FF920F931F93CF93DF936C01EB017B017D
:1005F000E40EF51E00E010E0CE15DF0561F0699114
:10060000D601ED91FC910190F081E02DC601099594
:10061000080F191FF1CFC801DF91CF911F910F91E2
:10062000FF90EF90DF90CF9008956115710579F0FC
:10063000FB0101900020E9F73197AF01461B570BF2
:10064000DC01ED91FC910280F381E02D099480E0C2
:1006500090E008950C941503DC01ED91FC9101905C
:10066000F081E02D09940F931F93CF93DF93EC015A
:100670006DE00E942C038C016AE0CE010E942C03E5
:10068000800F911FDF91CF911F910F9108950F93CC
:100690001F93CF93DF93EC010E9415038C01CE01D1
:1006A0000E943303800F911FDF91CF911F910F9113
:1006B00008958F929F92AF92BF92CF92DF92EF9266
:1006C000FF920F931F93CF93DF93CDB7DEB7A19720
:1006D0000FB6F894DEBF0FBECDBF6C01142FE52F0F
:1006E000CB01022F19A2223008F40AE07E0121E298
:1006F000E20EF11C802E912CA12CB12C612F7E2FAB
:10070000A50194010E949108029F1019112481E013
:10071000E81AF1081A3014F4105D01C0195CF701F1
:100720001083122FE32FCA01232B242B252B31F703
:10073000B701C6010E941503A1960FB6F894DEBF5B
:100740000FBECDBFDF91CF911F910F91FF90EF9022
:10075000DF90CF90BF90AF909F908F900895CF92F1
:10076000DF92EF92FF920F931F93CF93DF93EC01F1
:100770006A017B012115310579F4E881F981019045
:10078000F081E02D642FDF91CF911F910F91FF90A9
:10079000EF90DF90CF9009942A303105E9F477FF8C
:1007A0001AC06DE20E942C038C0144275527BA0120
:1007B0004C195D096E097F092AE0CE010E94590398
:1007C000800F911FDF91CF911F910F91FF90EF90BC
:1007D000DF90CF9008952AE0B701A601CE01DF9106
:1007E000CF911F910F91FF90EF90DF90CF900C94DD
:1007F00059039A01AB01770F660B770B0C94AF038B
:100800000F931F93CF93DF93EC019A01AB01770F06
:10081000660B770B0E94AF038C01CE010E9433035D
:10082000800F911FDF91CF911F910F910895CF926B
:10083000DF92EF92FF920F931F93CF93DF93CDB789
:10084000DEB728970FB6F894DEBF0FBECDBF6A01A2
:1008500079011D821E821F82188619821A821B82CC
:100860001C82DC01ED91FC910280F381E02D9E0160
:100870002F5F3F4FAE014B5F5F4F09958C01892B76
:10088000B1F4C114D10441F06D817E818F819885CE
:100890000E94E107F6016083E114F10441F06981EF
:1008A0007A818B819C810E94E107D7016C93C801FA
:1008B00028960FB6F894DEBF0FBECDBFDF91CF9163
:1008C0001F910F91FF90EF90DF90CF90089540E03F
:1008D00050E080E0A7E0B0E0FB012191BF01FD0105
:1008E000E41BF50B01C0220FEA95EAF7820F4F5F78
:1008F0005F4F4830510581F708958F929F92AF92D4
:10090000BF92CF92DF92EF92FF920F931F93CF93FC
:10091000DF93EC018B015A016901E881F9810680BE
:10092000F781E02D0995982EE881F981B801685F7B
:100930007F4F0680F781E02DCE010995F82EE881E2
:10094000F981B801605F7F4F0680F781E02DCE010D
:100950000995882EE881F981B801685E7F4F06808D
:10096000F781E02DCE010995E82EE881F981B801E3
:10097000605E7F4F0680F781E02DCE0109959F2DA7
:10098000990D980D9E0D891310C02E2D30E0382939
:10099000F501318320834F2D50E0CA019929F601DA
:1009A0009183808380E090E002C089E690E0DF914F
:1009B000CF911F910F91FF90EF90DF90CF90BF905C
:1009C000AF909F908F9008958F929F92AF92BF9219
:1009D000CF92DF92EF92FF920F931F93CF93DF930B
:1009E000CDB7DEB7AC970FB6F894DEBF0FBECDBF64
:1009F0004C016A017901CE0101965C0188E2D501C2
:100A00001D928A95E9F7D401ED91FC910084F1855E
:100A1000E02DA501C4010995009709F050C01CA65E
:100A20001BA61AA619A6D401ED91FC910284F385A8
:100A3000E02D9E01275D3F4FAE01455D5F4FB50143
:100A4000C40109950097D9F50115110539F088E21F
:100A5000F501D80101900D928A95E1F7C114D104F6
:100A600081F08CA5682F782F770F770B072E000C5D
:100A7000880B990B0E941908F601608371838283A9
:100A80009383E114F10489F08AA5682F782F770FFA
:100A9000770B072E000C880B990B0E941908D701C1
:100AA0006D937D938D939C9313978BA59CA5892B18
:100AB00041F489A59AA5892B21F42AE603C0282FA1
:100AC00002C020E090E0822FAC960FB6F894DEBF13
:100AD0000FBECDBFDF91CF911F910F91FF90EF908F
:100AE000DF90CF90BF90AF909F908F900895DF924E
:100AF000EF92FF920F931F93CF93DF93D62ECA01ED
:100B00006AE070E00E947D08EB01181619060CF4EB
:100B1000219600E010E0E22EF12C0C171D076CF47A
:100B20008AE090E00E949C078D2D0E94DE068E15C3
:100B30009F0531F40F5F1F4FF0CF8FEF9FEF02C083
:100B400080E090E0DF91CF911F910F91FF90EF90A7
:100B5000DF900895AF92BF92CF92DF92EF92FF9213
:100B60000F931F93CF93DF938C01EB017A0188E2FF
:100B7000DA011D928A95E9F761E08C2F0E947206D6
:100B800060E08C2F0E94AE0664E170E080E090E0AF
:100B90000E94760761E08C2F0E94AE0660E08C2FE9
:100BA0000E9472068EE190E00E949C07D801ED91B0
:100BB000FC910480F581E02D20E040E550E0BE018D
:100BC000C8010995892BA9F5D801ED91FC91048004
:100BD000F581E02D21E040E550E0BE01C801099516
:100BE000892B51F55701B8E2AB0EB11CD801ED913C
:100BF000FC910480F581E02D20E042E350E0BE014D
:100C0000C8010995892BD9F4C12CD12C8C2F0E94B5
:100C1000DE060197B9F48AE090E00E949C07BFEFDE
:100C2000CB1ADB0AE8E0CE16D10481F787E690E024
:100C300025C084E690E022C085E690E01FC086E6ED
:100C400090E01CC081E0B4E0CB16D1040CF480E04D
:100C5000F70181937F01EA15FB0541F6D801ED917B
:100C6000FC910480F581E02D20E042E350E0BE01DC
:100C7000C8010995009711F088E690E0DF91CF91C7
:100C80001F910F91FF90EF90DF90CF90BF90AF90AA
:100C90000895833081F028F4813099F08230A1F0FA
:100CA00008958630A9F08730B9F08430D1F480916E
:100CB00080008F7D03C0809180008F7780938000BB
:100CC000089584B58F7702C084B58F7D84BD089563
:100CD0008091B0008F7703C08091B0008F7D8093AA
:100CE000B0000895CF93DF9390E0FC01E458FF4FEC
:100CF0002491FC01E057FF4F8491882361F190E03B
:100D0000880F991FFC01E854FF4FC591D491FC0155
:100D1000E255FF4FA591B491611109C09FB7F894B6
:100D20008881209582238883EC912E230BC062302A
:100D300061F49FB7F8943881822F8095832388834C
:100D4000EC912E2B2C939FBF06C08FB7F894E881AF
:100D50002E2B28838FBFDF91CF9108951F93CF93C0
:100D6000DF93282F30E0F901E859FF4F8491F90112
:100D7000E458FF4FD491F901E057FF4FC491CC23C1
:100D8000C9F0162F81110E944906EC2FF0E0EE0FFA
:100D9000FF1FE255FF4FA591B4918FB7F894111141
:100DA00005C09C91ED2FE095E92302C0EC91ED2B5D
:100DB000EC938FBFDF91CF911F910895CF93DF9375
:100DC000282F30E0F901E859FF4F8491F901E458E8
:100DD000FF4FD491F901E057FF4FC491CC2391F01C
:100DE00081110E944906EC2FF0E0EE0FFF1FEC5539
:100DF000FF4FA591B491EC91ED2381E090E021F4B7
:100E000080E002C080E090E0DF91CF9108951F92D2
:100E10000F920FB60F9211242F933F938F939F93AE
:100E2000AF93BF9380912F0290913002A091310235
:100E3000B091320230912E0223E0230F2D3720F49F
:100E40000196A11DB11D05C026E8230F0296A11D24
:100E5000B11D20932E0280932F0290933002A09315
:100E60003102B09332028091330290913402A0910A
:100E70003502B09136020196A11DB11D8093330257
:100E800090933402A0933502B0933602BF91AF9194
:100E90009F918F913F912F910F900FBE0F901F90B8
:100EA00018953FB7F8948091330290913402A09145
:100EB0003502B091360226B5A89B05C02F3F19F028
:100EC0000196A11DB11D3FBFBA2FA92F982F8827CA
:100ED000820F911DA11DB11DBC01CD0142E0660F25
:100EE000771F881F991F4A95D1F70895CF92DF92F7
:100EF000EF92FF92CF93DF936B017C010E94510729
:100F0000EB01C114D104E104F10479F00E9451070E
:100F10006C1B7D0B683E7340A0F381E0C81AD108BA
:100F2000E108F108C851DC4FECCFDF91CF91FF9081
:100F3000EF90DF90CF900895019739F0880F991FB7
:100F4000880F991F02970197F1F70895789484B557
:100F5000826084BD84B5816084BD85B5826085BDB5
:100F600085B5816085BDEEE6F0E08081816080839B
:100F7000E1E8F0E01082808182608083808181607E
:100F80008083E0E8F0E0808181608083E1EBF0E045
:100F9000808184608083E0EBF0E0808181608083E9
:100FA000EAE7F0E0808184608083808182608083D2
:100FB0008081816080838081806880831092C100FD
:100FC00008950E94E8076894B1110C947708089579
:100FD0000E945C0888F09F5798F0B92F9927B75165
:100FE000B0F0E1F0660F771F881F991F1AF0BA95CD
:100FF000C9F714C0B13091F00E947608B1E00895AD
:101000000C947608672F782F8827B85F39F0B93F9E
:10101000CCF3869577956795B395D9F73EF490957F
:101020008095709561957F4F8F4F9F4F0895E894FD
:1010300009C097FB3EF490958095709561957F4F20
:101040008F4F9F4F9923A9F0F92F96E9BB279395CE
:10105000F695879577956795B795F111F8CFFAF4DE
:10106000BB0F11F460FF1BC06F5F7F4F8F4F9F4F0F
:1010700016C0882311F096E911C0772321F09EE86D
:10108000872F762F05C0662371F096E8862F70E0D3
:1010900060E02AF09A95660F771F881FDAF7880FAD
:1010A0009695879597F9089557FD9058440F551FC9
:1010B00059F05F3F71F04795880F97FB991F61F0DA
:1010C0009F3F79F087950895121613061406551F51
:1010D000F2CF4695F1DF08C0161617061806991FBD
:1010E000F1CF86957105610508940895E894BB27B2
:1010F00066277727CB0197F9089597FB072E16F4FB
:10110000009407D077FD09D00E94B30807FC05D0F2
:101110003EF4909581959F4F0895709561957F4F0E
:101120000895A1E21A2EAA1BBB1BFD010DC0AA1F28
:10113000BB1FEE1FFF1FA217B307E407F50720F040
:10114000A21BB30BE40BF50B661F771F881F991FBB
:101150001A9469F760957095809590959B01AC0104
:10116000BD01CF010895AA1BBB1B51E107C0AA1FF7
:10117000BB1FA617B70710F0A61BB70B881F991F38
:101180005A95A9F780959095BC01CD010895EE0F71
:0E119000FF1F0590F491E02D0994F894FFCF15
:10119E0002003D3D3D3D3D3D3D3D3D3D3D3D3D3DE9
:1011AE003D3D3D3D3D3D3D3D3D3D3D3D3D3D3D3D61
:1011BE003D3D3D0053616D706C65204448543131A6
:1011CE002E2E2E0052656164204448543131206623
:1011DE0061696C65642C206572723D0053616D709F
:1011EE006C65204F4B3A2000202A432C20002048CB
:1011FE0000000000005C01ED0205013101150151F6
:10120E0001000000001704E40477056704AA057DB9
:02121E000400CA
:00000001FF
