:100000000C9465000C948D000C948D000C948D0064
:100010000C948D000C948D000C948D000C948D002C
:100020000C948D000C948D000C948D000C948D001C
:100030000C948D000C948D000C948D000C948D000C
:100040000C943B070C948D000C9406030C9449030C
:100050000C948D000C948D000C948D000C948D00EC
:100060000C949D0D0C948D0000000007000201000F
:100070000003040600000000000000000102040864
:100080001020408001020408102001020408102002
:10009000040404040404040402020202020203032E
:1000A00003030303000000002300260029000000D2
:1000B0000000250028002B0000000000240027007D
:1000C0002A00C1000C04000DD20011241FBECFEF86
:1000D000D8E0DEBFCDBF11E0A0E0B1E0E0E0F7E2A4
:1000E00002C005900D92A837B107D9F723E0A8E721
:1000F000B1E001C01D92AC31B207E1F710E0C4E6F7
:10010000D0E004C02197FE010E942F11C136D10713
:10011000C9F70E9447040C9473130C9400008F924B
:100120009F92AF92BF92CF92DF92EF92FF924B01DC
:100130005C010E9485070E94E40F6B017C0120E0B6
:1001400030E040E251E4C501B4010E949B109B01E4
:10015000AC01C701B6010E94CB0E0E94AE0F6B012D
:100160007C010E9485076C157D058E059F05C8F3EF
:10017000FF90EF90DF90CF90BF90AF909F908F90C7
:1001800008958BE991E00E94110B60E271E084E92F
:1001900091E00E948F0826E04BE064E088E791E060
:1001A0000C94FD0884E991E00C94210820E042E0E1
:1001B00060E18BE991E00E94CF0B61E082E00E9458
:1001C000CF0640E052EC61E070E085EA91E00E94E9
:1001D000840368E071E085EA91E00E94AE0485EA5C
:1001E00091E00C94B802CF9360E088E791E00E9420
:1001F000CA0A60938A0170938B0180938C0190935B
:100200008D0140E060E088E791E00E94690A609318
:100210008E0170938F01809390019093910180E003
:100220000E948906909393018093920140E060E0E0
:100230008BE991E00E94630B68E171E08BE991E04A
:100240000E94910440918E0150918F016091900124
:100250007091910122E030E08BE991E00E947506F7
:100260006CE171E08BE991E00E94910440918A0178
:1002700050918B0160918C0170918D0122E030E0F2
:100280008BE991E00E94750641E060E08BE991E026
:100290000E94630B61E271E08BE991E00E9491049E
:1002A00060919201709193014AE050E08BE991E0F6
:1002B0000E94720580910601813421F460E082E0A1
:1002C0000E940B0780910601813409F05EC0809185
:1002D000920190919301843F91400CF056C061E0EF
:1002E00082E00E940B0760E070E080E291E40E94EF
:1002F0008F004BC085EA91E00E949802C82F682FBA
:1003000084E991E00E94EA0860E070E080E89FE301
:100310000E948F00C13409F041C0C09306014AE039
:1003200050E061E27FE685EA91E00E94790581E094
:10033000C03509F080E080930601882351F065E222
:1003400071E085EA91E00E94AE0461E082E00E94E3
:100350000B0781E0C03709F080E080930601882315
:1003600051F066E371E085EA91E00E94AE0460E03E
:1003700082E00E940B0760E271E084E991E00E9454
:10038000A50885EA91E00E94B80285EA91E00E9402
:100390006C02181619060CF4ADCF9CC0C13639F4A6
:1003A000C09306014AE050E061E27CE6BCCFC33274
:1003B00059F480E00E948906909393018093920102
:1003C0004AE050E0BC01AFCFC43589F440E060E0C2
:1003D00088E791E00E94690AAB01BC0140938E015D
:1003E00050938F01609390017093910111C0C834B4
:1003F000B1F460E088E791E00E94CA0AAB01BC0159
:1004000040938A0150938B0160938C0170938D010E
:1004100022E030E085EA91E00E94770688CFC4347C
:1004200009F085CF60E088E791E00E94CA0A6093F6
:100430008A0170938B0180938C0190938D0140E031
:1004400060E088E791E00E94690A60938E017093F2
:100450008F01809390019093910180E00E94890622
:10046000909393018093920140918A0150918B0166
:1004700060918C0170918D0122E030E085EA91E07D
:100480000E9475066BE385EA91E00E949304409117
:100490008E0150918F01609190017091910122E045
:1004A00030E085EA91E00E9475066BE385EA91E011
:1004B0000E94930460919201709193014AE050E090
:1004C00085EA91E00E9472056BE385EA91E00E9463
:1004D000C0042DCFCF910895FC0124853585F90105
:1004E000E05CFF4F80819181329620813181821BB7
:1004F000930B8F7399270895DC011C96ED91FC9165
:100500001D97DF01A05CBF4F2D913C911197129672
:100510008D919C9111972817390739F08D919C91F5
:10052000E80FF91F808190E008958FEF9FEF089505
:10053000FC01A485B585FD01E05CFF4F2081318180
:100540003296808191812817390779F080819181D5
:10055000A80FB91F8C91208131812F5F3F4F2F73DE
:1005600033273183208390E008958FEF9FEF089524
:10057000FC0181A1882329F0A489B5898C9186FF8B
:10058000FBCF11A208950F931F93CF93DF93FC012C
:10059000A685B7858D01005C1F4FE8018881998190
:1005A00001968F739927AD014E5B5F4FEA01288159
:1005B000398182179307D1F3E80128813981A20F8D
:1005C000B31F6C93A685B785A05CBF4F11969C9313
:1005D0008E93A689B7892C9181E090E0078C02C0A8
:1005E000880F991F0A94E2F7822B8C9381E081A3F4
:1005F0000488F589E02D80818064808381E090E02B
:10060000DF91CF911F910F91089508951F920F923E
:100610000FB60F9211242F934F935F938F939F9355
:10062000EF93FF938091C00082FD1CC02091C60013
:1006300080914B0290914C0201968F7399274091C3
:100640004D0250914E028417950771F0E0914B02D4
:10065000F0914C02E55FFD4F208390934C02809314
:100660004B0202C08091C600FF91EF919F918F9144
:100670005F914F912F910F900FBE0F901F90189583
:1006800085EA91E00E946C02892B11F00C9405031D
:1006900008951F920F920FB60F9211242F933F933C
:1006A0008F939F93EF93FF9320910702309108025D
:1006B0008091090290910A022817390731F480913C
:1006C000C1008F7D8093C10014C0E0910902F091B8
:1006D0000A02E953FE4F20818091090290910A029B
:1006E00001968F73992790930A02809309022093B1
:1006F000C600FF91EF919F918F913F912F910F90A5
:100700000FBE0F901F901895CF92DF92EF92FF923D
:100710000F931F93CF93DF93EC016A017B01411587
:10072000514E6105710509F1EC89FD8981E090E088
:1007300008A002C0880F991F0A94E2F7808360E046
:1007400079E08DE390E0A70196010E940D118901E7
:100750009A010150110921093109369527951795FC
:100760000795980101151041A8F0EC89FD891082C8
:1007700060E874E88EE190E0A70196010E940D11F7
:10078000DA01C9010197A109B109B695A795979515
:1007900087959C01E889F9893083EA89FB89208360
:1007A00019A2EE89FF89408181E090E09C010C8CC8
:1007B00002C0220F331F0A94E2F7242B2083EE8914
:1007C000FF8940819C010D8C02C0220F331F0A94C7
:1007D000E2F7242B2083EE89FF8940819C010E8C57
:1007E00002C0220F331F0A94E2F7242B2083EE89E4
:1007F000FF8920810F8C02C0880F991F0A94E2F7AD
:10080000809582238083DF91CF911F910F91FF907C
:10081000EF90DF90CF900895E5EAF1E01382128225
:1008200088EE93E0A0E0B0E084839583A683B7834D
:1008300088E491E0918380838BE092E095878487C0
:1008400087EC91E09787868785EC90E0918B808B91
:1008500084EC90E0938B828B80EC90E0958B848B82
:1008600081EC90E0978B868B82EC90E0918F808F6B
:1008700086EC90E0938F828F84E0848F83E0858F75
:1008800087E0868F85E0878F81E080A308950E94AE
:10089000E6070E94D600C0E4D3E00E94F300209750
:1008A000E1F30E944003F9CFCF92DF92EF92FF92E3
:1008B0000F931F93CF93DF936C01EB017B01E40E49
:1008C000F51E00E010E0CE15DF0561F06991D6015C
:1008D000ED91FC910190F081E02DC6010995080F82
:1008E000191FF1CFC801DF91CF911F910F91FF9098
:1008F000EF90DF90CF9008956115710579F0FB01BD
:1009000001900020E9F73197AF01461B570BDC013E
:10091000ED91FC910280F381E02D099480E090E05C
:1009200008950C947C04DC01ED91FC910190F08120
:10093000E02D09940F931F93CF93DF93EC016DE0AB
:100940000E9493048C016AE0CE010E949304800F00
:10095000911FDF91CF911F910F9108950F931F93D6
:10096000CF93DF93EC010E947C048C01CE010E94A6
:100970009A04800F911FDF91CF911F910F910895DD
:100980000F931F93CF93DF93EC010E9493048C018C
:10099000CE010E949A04800F911FDF91CF911F9189
:1009A0000F9108958F929F92AF92BF92CF92DF9254
:1009B000EF92FF920F931F93CF93DF93CDB7DEB7E4
:1009C000A1970FB6F894DEBF0FBECDBF6C01142FF8
:1009D000E52FCB01022F19A2223008F40AE07E0194
:1009E00021E2E20EF11C802E912CA12CB12C612F62
:1009F0007E2FA50194010E940D11029F1019112450
:100A000081E0E81AF1081A3014F4105D01C0195C95
:100A1000F7011083122FE32FCA01232B242B252B40
:100A200031F7B701C6010E947C04A1960FB6F89475
:100A3000DEBF0FBECDBFDF91CF911F910F91FF9011
:100A4000EF90DF90CF90BF90AF909F908F900895E0
:100A5000CF92DF92EF92FF920F931F93CF93DF938A
:100A6000EC016A017B012115310579F4E881F981F6
:100A70000190F081E02D642FDF91CF911F910F91B4
:100A8000FF90EF90DF90CF9009942A303105E9F480
:100A900077FF1AC06DE20E9493048C01442755270A
:100AA000BA014C195D096E097F092AE0CE010E9446
:100AB000D204800F911FDF91CF911F910F91FF9072
:100AC000EF90DF90CF9008952AE0B701A601CE0104
:100AD000DF91CF911F910F91FF90EF90DF90CF901A
:100AE0000C94D2049A01AB01770F660B770B0C9430
:100AF00028050F931F93CF93DF93EC019A01AB016D
:100B0000770F660B770B0E9428058C01CE010E949F
:100B10009A04800F911FDF91CF911F910F9108953B
:100B20004F925F926F927F928F929F92AF92BF92FD
:100B3000CF92DF92EF92FF92CF93DF93EC016A01A5
:100B40007B01B22E9A01AB01C701B6010E940811C8
:100B5000882319F064E571E027C026013701E89485
:100B600077F82FEF3FEF4FE75FE7C301B2010E9435
:100B7000081181110DC02FEF3FEF4FE75FE7C30171
:100B8000B2010E94370F18161CF468E571E00CC022
:100B90002FEF3FEF4FE75FE4C701B6010E949610C9
:100BA00018169CF46CE571E0CE01DF91CF91FF90B7
:100BB000EF90DF90CF90BF90AF909F908F907F90FD
:100BC0006F905F904F900C947C042FEF3FEF4FE7B6
:100BD0005FECC701B6010E94370F87FDE3CF20E02D
:100BE00030E0A901C701B6010E94370F87FF0AC094
:100BF0006DE2CE010E9493044C01F7FAF094F7F8ED
:100C0000F09402C0812C912CA12C60E070E080E077
:100C10009FE3AB1441F020E030E040E251E40E9459
:100C20003C0FA394F6CF9B01AC01C701B6010E9413
:100C3000CB0E2B013C010E94B50F6B017C010E9481
:100C4000E40F9B01AC01C301B2010E94CA0E2B014B
:100C50003C012AE0B701A601CE010E94D2047C012A
:100C6000E80CF91CBB2039F066E171E0CE010E946E
:100C70007C04E80EF91EDB2CDD2039F120E030E0A9
:100C800040E251E4C301B2010E949B102B013C01E0
:100C90000E94AE0F4B01770FAA08BB082AE030E094
:100CA000B501A401CE010E942805E80EF91EC50178
:100CB000B4010E94E60F9B01AC01C301B2010E9486
:100CC000CA0E2B013C01DA94D7CFC701DF91CF9137
:100CD000FF90EF90DF90CF90BF90AF909F908F905C
:100CE0007F906F905F904F9008950C9490050F93B4
:100CF0001F93CF93DF93EC010E9490058C01CE01EE
:100D00000E949A04800F911FDF91CF911F910F9144
:100D100008958E3008F08E5087702091070190E47E
:100D2000299F90011124822B80937C0080917A006E
:100D3000806480937A0080917A0086FDFCCF809158
:100D400078002091790090E0922B0895833081F013
:100D500028F4813099F08230A1F008958630A9F00E
:100D60008730B9F08430D1F4809180008F7D03C04A
:100D7000809180008F7780938000089584B58F776D
:100D800002C084B58F7D84BD08958091B0008F77B7
:100D900003C08091B0008F7D8093B0000895CF9301
:100DA000DF9390E0FC01E458FF4F2491FC01E057F1
:100DB000FF4F8491882361F190E0880F991FFC0117
:100DC000E854FF4FC591D491FC01E255FF4FA59126
:100DD000B491611109C09FB7F8948881209582234E
:100DE0008883EC912E230BC0623061F49FB7F89496
:100DF0003881822F809583238883EC912E2B2C932E
:100E00009FBF06C08FB7F894E8812E2B28838FBF31
:100E1000DF91CF9108951F93CF93DF93282F30E078
:100E2000F901E859FF4F8491F901E458FF4FD4913B
:100E3000F901E057FF4FC491CC23C9F0162F81115F
:100E40000E94A606EC2FF0E0EE0FFF1FE255FF4FC9
:100E5000A591B4918FB7F894111105C09C91ED2F15
:100E6000E095E92302C0EC91ED2BEC938FBFDF916D
:100E7000CF911F9108951F920F920FB60F921124D8
:100E80002F933F938F939F93AF93BF938091500283
:100E900090915102A0915202B091530230914F02B1
:100EA00023E0230F2D3720F40196A11DB11D05C0AD
:100EB00026E8230F0296A11DB11D20934F028093B7
:100EC000500290935102A0935202B093530280912A
:100ED000540290915502A0915602B091570201968A
:100EE000A11DB11D8093540290935502A093560208
:100EF000B0935702BF91AF919F918F913F912F91E6
:100F00000F900FBE0F901F9018952FB7F894609117
:100F100050027091510280915202909153022FBF62
:100F200008953FB7F8948091540290915502A09192
:100F30005602B091570226B5A89B05C02F3F19F065
:100F40000196A11DB11D3FBFBA2FA92F982F882749
:100F5000820F911DA11DB11DBC01CD0142E0660FA4
:100F6000771F881F991F4A95D1F70895CF92DF9276
:100F7000EF92FF92CF93DF936B017C010E94910768
:100F8000EB01C114D104E104F10479F00E9491074E
:100F90006C1B7D0B683E7340A0F381E0C81AD1083A
:100FA000E108F108C851DC4FECCFDF91CF91FF9001
:100FB000EF90DF90CF900895019739F0880F991F37
:100FC000880F991F02970197F1F70895789484B5D7
:100FD000826084BD84B5816084BD85B5826085BD35
:100FE00085B5816085BDEEE6F0E08081816080831B
:100FF000E1E8F0E0108280818260808380818160FE
:101000008083E0E8F0E0808181608083E1EBF0E0C4
:10101000808184608083E0EBF0E080818160808368
:10102000EAE7F0E080818460808380818260808351
:101030008081816080838081806880831092C1007C
:101040000895FC01808191810C94CA11CF93DF93A4
:10105000EC0188819981009711F00E94CA111982D0
:1010600018821D821C821B821A82DF91CF91089503
:101070000F931F93CF93DF93EC018B016F5F7F4F33
:10108000888199810E946212009731F09983888348
:101090001B830A8381E001C080E0DF91CF911F9123
:1010A0000F910895CF93DF93EC0188819981892B6B
:1010B00029F08A819B818617970760F4CE010E94F0
:1010C0003808882341F08C819D81892B19F4E881AF
:1010D000F981108281E0DF91CF910895EF92FF9224
:1010E0000F931F93CF93DF93EC017B018A01BA0129
:1010F0000E945208811104C0CE010E94260807C038
:101100001D830C83B701888199810E943513CE011C
:10111000DF91CF911F910F91FF90EF900895FC0107
:101120001182108213821282158214821682611536
:10113000710551F0FB0101900020E9F73197AF01F3
:10114000461B570B0C946E080895CF93DF93EC0168
:101150006115710559F0FB0101900020E9F7319705
:10116000AF01461B570B0E946E0802C00E94260862
:10117000CE01DF91CF910895EF92FF920F931F93CD
:10118000CF93DF93FC01248135816115710511F442
:1011900080E019C041155105A9F07B01EC018A01DD
:1011A000020F131FB8010E945208882389F3288177
:1011B00039818C819D81B701820F931F0E94351365
:1011C0001D830C8381E0DF91CF911F910F91FF90E0
:1011D000EF900895CF93DF9300D0CDB7DEB769834A
:1011E0001A8241E050E0BE016F5F7F4F0E94BC0851
:1011F0000F900F90DF91CF910895DC0115966C93BD
:10120000159716964C93169770E0FB01E458FF4F24
:10121000E4911796EC931797FB01E057FF4F649109
:1012200018966C93189740E85EE360E070E01D96B6
:101230004D935D936D937C93509708958F929F92F9
:10124000AF92BF92CF92DF92EF92FF920F931F93D4
:10125000CF93DC011796CC911797662311F08C2F52
:1012600001C080E018962C91189730E0220F331FB0
:101270002C553F4F40E050E0BA01F901059114911F
:10128000F80190819C23981315C06A017B019FEFA0
:10129000C91AD90AE90AF90A1D968D909D90AD9058
:1012A000BC905097481559056A057B0538F4B7017D
:1012B000A601E3CF342F252FCB0104C030E020E07E
:1012C00080E090E0632F722FCF911F910F91FF90DC
:1012D000EF90DF90CF90BF90AF909F908F90089548
:1012E0008F929F92AF92BF92CF92DF92EF92FF9236
:1012F0000F931F93CF93DF93CDB7DEB7C054D14088
:101300000FB6F894DEBF0FBECDBF8C01F62E0E9443
:101310008507F11016C0F801C184D284E384F484F7
:101320009B01AC012C193D094E095F0969017A0145
:1013300030EDC31637E0D306E104F10410F48189DF
:10134000B4C0F801618772878387948714821382FF
:1013500012821182108261E085810E940B076AEF80
:1013600070E080E090E00E94B60761E0F8018581BE
:101370000E94CF0660E0F80185810E940B0764E1BE
:1013800070E080E090E00E94B607F89461E0F80118
:1013900085810E940B0788E290E00E94DC0762E0F2
:1013A000F80185810E94CF068AE090E00E94DC0768
:1013B00060E0C8010E941E09672B682B692B21F48D
:1013C000F801118A789442C061E0C8010E941E09A8
:1013D000672B682B692BA1F39E012F5F3F4F79018B
:1013E0005E013FEBA31A3EEFB30A670160E0C8015C
:1013F0000E941E09F601608371838283938361E0FA
:10140000C8010E941E09F601648375838683978351
:10141000F8E0CF0ED11CCA14DB0441F7789420E029
:1014200030E0F70140815181628173818480958031
:10143000A680B780411551056105710529F0811419
:101440009104A104B10421F4F801118A80E02DC0B7
:10145000F90183E0F595E7958A95E1F7E00FF11F33
:101460008081880F481559056A057B0508F481605D
:1014700080832F5F3F4FF8E0EF0EF11C28323105DB
:1014800081F6F801248130E04081818190E0840F71
:10149000911D4281840F911D4381840F911D9927D5
:1014A0002817390789F681E0818BC05CDE4F0FB6C3
:1014B000F894DEBF0FBECDBFDF91CF911F910F918A
:1014C000FF90EF90DF90CF90BF90AF909F908F9064
:1014D0000895CF92DF92EF92FF920F931F93CF93D5
:1014E000DF93EC01162F642F0E947009882309F402
:1014F00044C08E818B3031F008F43FC0855182307A
:1015000040F03BC06A8170E080E090E00E94E40F10
:1015100025C00A81602F6F7770E080E090E00E9424
:10152000E60F20E030E040E853E40E949B106B019E
:101530007C018B81682F70E080E090E00E94E60FD4
:101540009B01AC01C701B6010E94CB0E2DEC3CEC17
:101550004CEC5DE30E949B1007FD9058112389F02D
:1015600026E636E646EE5FE30E949B1020E030E080
:1015700040E052E40E94CB0E04C060E070E080ECDA
:101580009FE7DF91CF911F910F91FF90EF90DF9038
:10159000CF900895CF92DF92EF92FF92CF93DF9397
:1015A000EC0160E00E947009882381F18E818B300C
:1015B00031F160F18551823048F5688170E080E05A
:1015C00090E00E94E40F20E030E040E853E40E9405
:1015D0009B106B017C018981682F70E080E090E0B6
:1015E0000E94E60F9B01AC01C701B6010E94CB0E21
:1015F0002DEC3CEC4CEC5DE30E949B100BC0688131
:1016000070E080E090E00E94E40F04C060E070E0D1
:1016100080EC9FE7DF91CF91FF90EF90DF90CF902C
:101620000895FC011382128224E631E03183208385
:101630000895EF92FF920F931F93CF93DF937C0156
:10164000C62F6EE370E088E592E00E94E80C870107
:10165000D0E0C8018E199F098C179D0744F4F8014A
:1016600061918F0188E592E00E94950CF2CF88E5A8
:1016700092E0DF91CF911F910F91FF90EF900C942A
:10168000FD0CCF93DF9300D0CDB7DEB790E8998300
:101690008A8362E0CE0101960E94190B0F900F9091
:1016A000DF91CF91089581E00E94410B80ED97E09A
:1016B0000C94DC07FC019581892F84608583892F38
:1016C0008C600C94410BCF93DF9300D0CDB7DEB785
:1016D000411102C0606801C0606C80E889836A8340
:1016E00062E0CE0101960E94190B0F900F90DF91DE
:1016F000CF910895CF93DF9300D0CDB7DEB780E4CC
:1017000089836A8362E0CE0101960E94190B81E011
:1017100090E00F900F90DF91CF9108951F93CF939A
:10172000DF931F92CDB7DEB7162F62E670E088E533
:1017300092E049830E94E80C612F88E592E00E94C4
:10174000950C4981642F88E592E00E94950C88E50C
:1017500092E00F90DF91CF911F910C94FD0CEF92CE
:10176000FF921F93CF93DF931F92CDB7DEB77C011B
:10177000142F462F64E029830E948E0B412F63E0D3
:10178000C7010E948E0B2981422F62E0C7010F9092
:10179000DF91CF911F91FF90EF900C948E0B0F93E0
:1017A0001F93CF93DF9300D0CDB7DEB78C0188E5D0
:1017B00092E02A8349830E94D40C49812A814230D5
:1017C00020F0F801848188608483F80140871186C5
:1017D000222329F0413019F484818460848380E5D8
:1017E00093EC0E94DC07F801848180620E94410B27
:1017F00084E991E10E94DC07F801848180620E9403
:10180000410B86E990E00E94DC07F8018481806248
:101810000E94410BF801848180620E94410B84E0A8
:10182000F8018583C8010E945A0BC8010E94530B1E
:1018300082E0F801868386E00E94410B40E060E090
:10184000C8010E948E0B4FEF68E0C8010E948E0B0A
:1018500040E261E0C8010E948E0B2FEF4FEF6FEF67
:10186000C8010F900F90DF91CF911F910F910C94B1
:10187000AF0B8091880290E020918902821B910930
:1018800008959091890280918802981750F4E92F69
:10189000F0E0E657FD4F208130E09F5F9093890292
:1018A00002C02FEF3FEFC9010895E09189028091B6
:1018B0008802E81730F4F0E0E657FD4F808190E0B1
:1018C00008958FEF9FEF08950895CF92DF92EF92E2
:1018D000FF920F931F93CF93DF937C01262F972FB7
:1018E0008A0180916402882391F0C62FD72F6E0160
:1018F000C40ED51ECC15DD0571F06991D701ED91AF
:10190000FC910190F081E02DC7010995F3CF642F80
:10191000822F0E94740DC801DF91CF911F910F910A
:10192000FF90EF90DF90CF900895CF93DF931F92B9
:10193000CDB7DEB76983209164022223D1F02091D4
:101940006502203240F021E030E0FC013383228345
:1019500080E090E015C080916602E82FF0E0E95940
:10196000FD4F998190838F5F80936602809365021B
:1019700005C061E0CE0101960E94740D81E090E007
:101980000F90DF91CF910895FC011382128288EEAF
:1019900093E0A0E0B0E084839583A683B7838CE6D0
:1019A00091E09183808308951092890210928802B9
:1019B00010926602109265020C94040D81E08093EF
:1019C0006402609387021092660210926502089585
:1019D0000C94DE0C0F93062F21E04091650267E620
:1019E00072E0809187020E94220D1092660210928E
:1019F0006502109264020F91089561E00C94EA0C64
:101A000088E592E00C94C40C1092170381E0809357
:101A100015031092140361E082E10E940B0761E05C
:101A200083E10E940B07E9EBF0E080818E7F8083E9
:101A300080818D7F808388E48093B80085E48093E3
:101A4000BC0008950F93413208F046C090911703EF
:101A50009111FCCF32E030931703009315033FEF51
:101A60003093AA021092EF024093EE02FB0160EF66
:101A700072E0DB013A2F361B341718F431913D9395
:101A8000F9CF1092160330911603880F832B8093A1
:101A9000160380911403813041F410921403809155
:101AA00016038093BB0085EC01C085EE8093BC00DB
:101AB000222321F0809117038230D1F38091AA0272
:101AC0008F3F79F08091AA02803241F08091AA0282
:101AD000803331F094E005C091E003C092E001C092
:101AE00093E0892F0F910895613298F420911703A4
:101AF000243089F46093CC02FC012EEC32E0D90151
:101B00008A2F821B861718F481918D93F9CF80E07C
:101B1000089581E0089582E0089585ED8093BC00EA
:101B20008091BC0084FDFCCF10921703089585ECD2
:101B30008093BC001092170308951F920F920FB666
:101B40000F9211242F933F934F935F936F937F9343
:101B50008F939F93AF93BF93EF93FF938091B900BF
:101B6000887F803609F49CC068F5883209F45BC030
:101B700090F4803109F454C038F4882309F4F5C096
:101B8000883009F44DC0F5C0883109F44CC080326A
:101B900009F45DC0EEC0803409F468C048F48033B5
:101BA00009F455C0883309F0E4C08093AA02A8C0A4
:101BB000803509F44FC0883509F45DC0883409F0D8
:101BC000D8C0D5C0883909F4C6C0A8F4883709F44C
:101BD00067C038F4883609F463C0803709F460C000
:101BE000C8C0883809F4B7C0803909F45FC08038AC
:101BF00009F0BFC05BC0803B09F485C038F4803A6F
:101C000009F466C0883A09F47EC0B3C0803C09F488
:101C1000A6C0883C09F4A3C0883B09F489C0A9C0C8
:101C20008091160310C09091EF028091EE029817F8
:101C300070F5E091EF0281E08E0F8093EF02F0E00B
:101C4000E051FD4F80818093BB0085EC85C080937F
:101C5000AA028DC0E091EF0281E08E0F8093EF0227
:101C60008091BB00F0E0E051FD4F80839091EF0246
:101C70008091EE026DC0E091EF0281E08E0F8093C3
:101C8000EF028091BB00F0E0E051FD4F8083809136
:101C9000150381116CC081E08093140384EA60C055
:101CA00083E0809317031092AB02CFCF8091AB02F9
:101CB000803208F050C0E091AB0281E08E0F80933B
:101CC000AB028091BB00F0E0E455FD4F8083BDCFB7
:101CD0008091AB02803230F4E091AB02F0E0E45549
:101CE000FD4F10820E948D0D6091AB0270E0E0917B
:101CF0001003F09111038CEA92E009951092AB0267
:101D00000E94970D36C084E0809317031092CD0295
:101D10001092CC02E0911203F09113030995809187
:101D2000CC02811105C081E08093CC021092CE02DA
:101D3000E091CD0281E08E0F8093CD02F0E0E2537E
:101D4000FD4F80818093BB009091CD028091CC02A9
:101D5000981708F47ACF85E88093BC000AC085EC18
:101D60008093BC001092170304C01092AA020E9434
:101D70008D0DFF91EF91BF91AF919F918F917F91C9
:101D80006F915F914F913F912F910F900FBE0F90E8
:101D90001F9018955058BB27AA270E94E20E0C945A
:101DA0005C100E944E1038F00E94551020F039F45B
:101DB0009F3F19F426F40C944B100EF4E095E7FBCA
:101DC0000C944510E92F0E946D1058F3BA17620762
:101DD00073078407950720F079F4A6F50C948F100B
:101DE0000EF4E0950B2EBA2FA02D0B01B901900136
:101DF0000C01CA01A0011124FF27591B99F0593F7A
:101E000050F4503E68F11A16F040A22F232F342FC1
:101E10004427585FF3CF469537952795A795F0400F
:101E20005395C9F77EF41F16BA0B620B730B840B24
:101E3000BAF09150A1F0FF0FBB1F661F771F881FDC
:101E4000C2F70EC0BA0F621F731F841F48F4879534
:101E500077956795B795F7959E3F08F0B0CF939526
:101E6000880F08F09927EE0F9795879508950E949F
:101E7000211008F481E008950E94500F0C945C102A
:101E80000E94551058F00E944E1040F029F45F3F18
:101E900029F00C94451051110C9490100C944B1097
:101EA0000E946D1068F39923B1F3552391F3951BAC
:101EB000550BBB27AA2762177307840738F09F5F6B
:101EC0005F4F220F331F441FAA1FA9F335D00E2ED8
:101ED0003AF0E0E832D091505040E695001CCAF745
:101EE0002BD0FE2F29D0660F771F881FBB1F261708
:101EF00037074807AB07B0E809F0BB0B802DBF01DF
:101F0000FF2793585F4F3AF09E3F510578F00C94AD
:101F100045100C9490105F3FE4F3983ED4F38695FF
:101F200077956795B795F7959F5FC9F7880F911DCE
:101F30009695879597F90895E1E0660F771F881FBA
:101F4000BB1F621773078407BA0720F0621B730B6D
:101F5000840BBA0BEE1F88F7E09508950E94B50F29
:101F60006894B1110C94901008950E94751088F037
:101F70009F5798F0B92F9927B751B0F0E1F0660F4D
:101F8000771F881F991F1AF0BA95C9F714C0B1308E
:101F900091F00E948F10B1E008950C948F10672F7C
:101FA000782F8827B85F39F0B93FCCF386957795BD
:101FB0006795B395D9F73EF49095809570956195A6
:101FC0007F4F8F4F9F4F0895E89409C097FB3EF4D1
:101FD00090958095709561957F4F8F4F9F4F992376
:101FE000A9F0F92F96E9BB279395F69587957795F4
:101FF0006795B795F111F8CFFAF4BB0F11F460FFB4
:102000001BC06F5F7F4F8F4F9F4F16C0882311F00B
:1020100096E911C0772321F09EE8872F762F05C01F
:10202000662371F096E8862F70E060E02AF09A95BA
:10203000660F771F881FDAF7880F9695879597F9AF
:102040000895990F0008550FAA0BE0E8FEEF161649
:102050001706E807F907C0F012161306E407F5079C
:1020600098F0621B730B840B950B39F40A2661F010
:10207000232B242B252B21F408950A2609F4A140B3
:10208000A6958FEF811D811D089597F99F6780E8C0
:1020900070E060E008959FEF80EC089500240A94BA
:1020A0001616170618060906089500240A94121633
:1020B0001306140605060895092E0394000C11F466
:1020C000882352F0BB0F40F4BF2B11F460FF04C013
:1020D0006F5F7F4F8F4F9F4F089557FD9058440F6C
:1020E000551F59F05F3F71F04795880F97FB991F77
:1020F00061F09F3F79F08795089512161306140634
:10210000551FF2CF4695F1DF08C0161617061806C0
:10211000991FF1CF86957105610508940895E8949B
:10212000BB2766277727CB0197F908950E942110D6
:1021300008F48FEF08950E94AE100C945C100E947A
:102140004E1038F00E94551020F0952311F00C9499
:1021500045100C944B1011240C9490100E946D109B
:1021600070F3959FC1F3950F50E0551F629FF001EA
:10217000729FBB27F00DB11D639FAA27F00DB11D03
:10218000AA1F649F6627B00DA11D661F829F22278C
:10219000B00DA11D621F739FB00DA11D621F839F13
:1021A000A00D611D221F749F3327A00D611D231FE9
:1021B000849F600D211D822F762F6A2F11249F5737
:1021C00050409AF0F1F088234AF0EE0FFF1FBB1F3A
:1021D000661F771F881F91505040A9F79E3F5105F9
:1021E00080F00C9445100C9490105F3FE4F3983EFF
:1021F000D4F3869577956795B795F795E7959F5FA3
:10220000C1F7FE2B880F911D9695879597F9089534
:102210000E942110880B990B0895A1E21A2EAA1B87
:10222000BB1BFD010DC0AA1FBB1FEE1FFF1FA21786
:10223000B307E407F50720F0A21BB30BE40BF50B83
:10224000661F771F881F991F1A9469F7609570950C
:10225000809590959B01AC01BD01CF010895EE0FD3
:10226000FF1F0590F491E02D0994CF93DF93823006
:10227000910510F482E090E0E0911A03F0911B03C5
:1022800020E030E0C0E0D0E0309711F14081518192
:1022900048175907C0F04817590761F482819381A4
:1022A000209719F09B838A832BC090931B03809304
:1022B0001A0326C02115310519F04217530718F4E7
:1022C0009A01BE01DF01EF010280F381E02DDCCF36
:1022D0002115310509F1281B390B2430310590F403
:1022E00012968D919C9113976115710521F0FB0158
:1022F0009383828304C090931B0380931A03FD0190
:10230000329644C0FD01E20FF31F81939193225056
:1023100031092D933C933AC0209118033091190351
:10232000232B41F4209102013091030130931903D2
:1023300020931803209100013091010121153105EE
:1023400041F42DB73EB74091040150910501241B83
:10235000350BE0911803F0911903E217F307A0F48D
:102360002E1B3F0B2817390778F0AC014E5F5F4FEB
:102370002417350748F04E0F5F1F50931903409301
:1023800018038193919302C0E0E0F0E0CF01DF9168
:10239000CF9108950F931F93CF93DF93009709F484
:1023A0008CC0FC0132971382128200911A031091A3
:1023B0001B030115110581F420813181820F931FC8
:1023C00020911803309119032817390779F5F093F4
:1023D0001903E093180371C0D80140E050E0AE1734
:1023E000BF0750F412962D913C911397AD01211522
:1023F000310509F1D901F3CF9D01DA01338322833D
:1024000060817181860F971F8217930769F4EC0131
:1024100028813981260F371F2E5F3F4F318320835C
:102420008A819B8193838283452B29F4F0931B033C
:10243000E0931A0342C01396FC93EE931297ED01BA
:10244000499159919E01240F351FE217F30771F44A
:1024500080819181840F951F029611969C938E9393
:102460008281938113969C938E931297E0E0F0E023
:10247000D80112968D919C911397009719F0F8014D
:102480008C01F6CF8D919C9198012E5F3F4F820F6A
:10249000931F20911803309119032817390769F405
:1024A000309729F410921B0310921A0302C0138272
:1024B00012821093190300931803DF91CF911F919B
:1024C0000F910895A0E0B0E0E8E6F2E10C9440132B
:1024D000EC01009721F4CB010E943511B8C0FC013A
:1024E000E60FF71F9C0122503109E217F30708F4A9
:1024F000ACC0D9010D911C91119706171707B0F0C8
:102500000530110508F49FC0C80104978617970786
:1025100008F499C002501109061B170B019311937F
:102520006D937C93CF010E94CA118DC05B01A01AEC
:10253000B10A4C01800E911EA0911A03B0911B03A9
:1025400040E050E0E12CF12C109709F44AC0A815A6
:10255000B905D1F56D907C901197630182E0C80EAA
:10256000D11CCA14DB0480F1A3014A195B096A017A
:1025700082E0C80ED11C1296BC9012971396AC91B3
:10258000B5E0CB16D10440F0B282A38351834083DF
:10259000D9016D937C930AC00E5F1F4FC301800F5A
:1025A000911FF90191838083EB2DFA2FE114F1043F
:1025B00031F0D7011396FC93EE93129744C0F09339
:1025C0001B03E0931A033FC08D919C91119748170C
:1025D000590708F4AC017D0112960D90BC91A02D15
:1025E000B3CF809118039091190388159905E1F4F0
:1025F00046175707C8F48091000190910101009798
:1026000041F48DB79EB74091040150910501841BA0
:10261000950BE817F907C8F4F0931903E093180332
:10262000F901718360830FC0CB010E9435117C01D9
:10263000009759F0A801BE010E942C13CE010E9400
:10264000CA11C70104C0CE0102C080E090E0CDB73E
:10265000DEB7EEE00C945C13FB01DC0102C00190DC
:102660000D9241505040D8F70895FB01DC010190D4
:102670000D920020E1F708952F923F924F925F92C2
:102680006F927F928F929F92AF92BF92CF92DF9282
:10269000EF92FF920F931F93CF93DF93CDB7DEB7E7
:1026A000CA1BDB0B0FB6F894DEBF0FBECDBF09947B
:1026B0002A88398848885F846E847D848C849B84D2
:1026C000AA84B984C884DF80EE80FD800C811B81E0
:1026D000AA81B981CE0FD11D0FB6F894DEBF0FBE0F
:1026E000CDBFED01089510E0C4E6D0E004C0FE01C6
:1026F0000E942F112196C536D107C9F7F894FFCF54
:1027000000001C032000610161206C27C3A9636FD6
:10271000757465202E2E2E00543A200020483A2051
:1027200000533A20004172726F736167652064C381
:10273000A962757421004172726F736167652066CA
:10274000696E210000000000C30254046C0298026C
:102750007C02B8026E616E00696E66006F7666007C
:10276000000000007A0B540400000000950C650C7A
:08277000390C410C550C640CFE
:00000001FF
