:100000000C9465000C948D000C948D000C948D0064
:100010000C948D000C948D000C948D000C948D002C
:100020000C948D000C948D000C948D000C948D001C
:100030000C948D000C948D000C948D000C948D000C
:100040000C9428090C948D000C9485040C94B7042E
:100050000C948D000C948D000C948D000C948D00EC
:100060000C94A00D0C948D0000000008000201000B
:100070000003040700000000000000000102040863
:100080001020408001020408102001020408102002
:10009000040404040404040402020202020203032E
:1000A00003030303000000002300260029000000D2
:1000B0000000250028002B0000000000240027007D
:1000C0002A00C100E704EF0CD20011241FBECFEFBD
:1000D000D8E0DEBFCDBF11E0A0E0B1E0E6E0F7E29E
:1000E00002C005900D92A438B107D9F723E0A4E827
:1000F000B1E001C01D92AA31B207E1F710E0C4E6F9
:10010000D0E004C02197FE010E943211C136D10710
:10011000C9F70E944F060C9476130C9400008F923E
:100120009F92AF92BF92CF92DF92EF92FF924B01DC
:100130005C010E9472090E94E70F6B017C0120E0C4
:1001400030E040E251E4C501B4010E949E109B01E1
:10015000AC01C701B6010E94CE0E0E94B10F6B0127
:100160007C010E9472096C157D058E059F05C8F300
:10017000FF90EF90DF90CF90BF90AF909F908F90C7
:10018000089586EA91E00E94000B68E571E080EA3C
:1001900091E00E94930A26E04BE064E084E891E05D
:1001A0000C946D0280EA91E00C94250A20E042E074
:1001B00060E186EA91E00E94BE0B61E082E00E946D
:1001C000BC0826E040E052EC61E070E080EB91E09A
:1001D0000E94E90568E071E080EB91E00E94AB06C7
:1001E00080EB91E00C948005CF9360E084E891E08F
:1001F0000E943A046093960170939701809398014E
:100200009093990140E060E084E891E00E94D90376
:1002100060939A0170939B0180939C0190939D0140
:1002200080E00E94760890939F0180939E0140E0B9
:1002300060E086EA91E00E94520B68E171E086EA94
:1002400091E00E949E0640919A0150919B0160911D
:100250009C0170919D0122E030E086EA91E00E94CD
:1002600062086CE171E086EA91E00E949E0640918E
:10027000960150919701609198017091990122E047
:1002800030E086EA91E00E94620841E060E086EAA0
:1002900091E00E94520B61E271E086EA91E00E94D7
:1002A0009E0660919E0170919F014AE050E086EAAF
:1002B00091E00E94620780910601813421F460E0A0
:1002C00082E00E94F80880910601813409F05EC046
:1002D00080919E0190919F01843F91400CF056C007
:1002E00061E082E00E94F80860E070E080E291E462
:1002F0000E948F004BC080EB91E00E942E05C82F1A
:10030000682F80EA91E00E94ED0A60E070E080E8EA
:100310009FE30E948F00C13409F041C0C0930601E1
:100320004AE050E061E27FE680EB91E00E946907DD
:1003300081E0C03509F080E080930601882351F008
:1003400065E271E080EB91E00E94AB0661E082E043
:100350000E94F80881E0C03709F080E08093060130
:10036000882351F066E371E080EB91E00E94AB06D8
:1003700060E082E00E94F80868E571E080EA91E0C0
:100380000E94A80A80EB91E00E94800580EB91E03A
:100390000E941405181619060CF4ADCF9CC0C13686
:1003A00039F4C09306014AE050E061E27CE6BCCF3C
:1003B000C33259F480E00E94760890939F018093A5
:1003C0009E014AE050E0BC01AFCFC43589F440E063
:1003D00060E084E891E00E94D903AB01BC01409346
:1003E0009A0150939B0160939C0170939D0111C0F1
:1003F000C834B1F460E084E891E00E943A04AB01B3
:10040000BC014093960150939701609398017093BB
:10041000990122E030E080EB91E00E94640888CFEF
:10042000C43409F085CF60E084E891E00E943A048A
:10043000609396017093970180939801909399012E
:1004400040E060E084E891E00E94D90360939A0163
:1004500070939B0180939C0190939D0180E00E948A
:10046000760890939F0180939E0140919601509150
:100470009701609198017091990122E030E080EB42
:1004800091E00E9462086BE380EB91E00E94A0067D
:1004900040919A0150919B0160919C0170919D0146
:1004A00022E030E080EB91E00E9462086BE380EB99
:1004B00091E00E94A00660919E0170919F014AE028
:1004C00050E080EB91E00E9462076BE380EB91E0EB
:1004D0000E94BD062DCFCF910895DC0115966C9337
:1004E000159716964C93169770E0FB01E458FF4F52
:1004F000E4911796EC931797FB01E057FF4F649137
:1005000018966C93189740E85EE360E070E01D96E3
:100510004D935D936D937C93509708958F929F9226
:10052000AF92BF92CF92DF92EF92FF920F931F9301
:10053000CF93DC011796CC911797662311F08C2F7F
:1005400001C080E018962C91189730E0220F331FDD
:100550002C553F4F40E050E0BA01F901059114914C
:10056000F80190819C23981315C06A017B019FEFCD
:10057000C91AD90AE90AF90A1D968D909D90AD9085
:10058000BC905097481559056A057B0538F4B701AA
:10059000A601E3CF342F252FCB0104C030E020E0AB
:1005A00080E090E0632F722FCF911F910F91FF9009
:1005B000EF90DF90CF90BF90AF909F908F90089575
:1005C0008F929F92AF92BF92CF92DF92EF92FF9263
:1005D0000F931F93CF93DF93CDB7DEB7C054D140B5
:1005E0000FB6F894DEBF0FBECDBF8C01F62E0E9471
:1005F0007209F11016C0F801C184D284E384F48436
:100600009B01AC012C193D094E095F0969017A0172
:1006100030EDC31637E0D306E104F10410F481890C
:10062000B4C0F8016187728783879487148213822C
:1006300012821182108261E085810E94F8086AEFBF
:1006400070E080E090E00E94A30961E0F8018581FC
:100650000E94BC0860E0F80185810E94F80864E10E
:1006600070E080E090E00E94A309F89461E0F80156
:1006700085810E94F80888E290E00E94DF0962E02C
:10068000F80185810E94BC088AE090E00E94DF09A1
:1006900060E0C8010E948E02672B682B692B21F451
:1006A000F801118A789442C061E0C8010E948E026C
:1006B000672B682B692BA1F39E012F5F3F4F7901B8
:1006C0005E013FEBA31A3EEFB30A670160E0C80189
:1006D0000E948E02F601608371838283938361E0BE
:1006E000C8010E948E02F601648375838683978316
:1006F000F8E0CF0ED11CCA14DB0441F7789420E057
:1007000030E0F7014081518162817381848095805E
:10071000A680B780411551056105710529F0811446
:100720009104A104B10421F4F801118A80E02DC0E4
:10073000F90183E0F595E7958A95E1F7E00FF11F60
:100740008081880F481559056A057B0508F481608A
:1007500080832F5F3F4FF8E0EF0EF11C2832310508
:1007600081F6F801248130E04081818190E0840F9E
:10077000911D4281840F911D4381840F911D992702
:100780002817390789F681E0818BC05CDE4F0FB6F0
:10079000F894DEBF0FBECDBFDF91CF911F910F91B7
:1007A000FF90EF90DF90CF90BF90AF909F908F9091
:1007B0000895CF92DF92EF92FF920F931F93CF9302
:1007C000DF93EC01162F642F0E94E002882309F4C6
:1007D00044C08E818B3031F008F43FC085518230A7
:1007E00040F03BC06A8170E080E090E00E94E70F3B
:1007F00025C00A81602F6F7770E080E090E00E9452
:10080000E90F20E030E040E853E40E949E106B01C5
:100810007C018B81682F70E080E090E00E94E90FFE
:100820009B01AC01C701B6010E94CE0E2DEC3CEC41
:100830004CEC5DE30E949E1007FD9058112389F057
:1008400026E636E646EE5FE30E949E1020E030E0AA
:1008500040E052E40E94CE0E04C060E070E080EC04
:100860009FE7DF91CF911F910F91FF90EF90DF9065
:10087000CF900895CF92DF92EF92FF92CF93DF93C4
:10088000EC0160E00E94E002882381F18E818B30D0
:1008900031F160F18551823048F5688170E080E087
:1008A00090E00E94E70F20E030E040E853E40E942F
:1008B0009E106B017C018981682F70E080E090E0E0
:1008C0000E94E90F9B01AC01C701B6010E94CE0E48
:1008D0002DEC3CEC4CEC5DE30E949E100BC068815B
:1008E00070E080E090E00E94E70F04C060E070E0FC
:1008F00080EC9FE7DF91CF91FF90EF90DF90CF905A
:10090000089580E090E0089508951F920F920FB629
:100910000F9211242F938F939F93EF93FF93E09166
:10092000C001F091C1018081E091C601F091C70141
:1009300082FD12C090818091C9018F5F8F732091D9
:10094000CA01821751F0E091C901F0E0E055FE4F75
:10095000958F8093C90101C08081FF91EF919F9194
:100960008F912F910F900FBE0F901F9018951F928F
:100970000F920FB60F9211242F933F934F935F93D3
:100980006F937F938F939F93AF93BF93EF93FF9357
:1009900080EB91E00E945F05FF91EF91BF91AF91D5
:1009A0009F918F917F916F915F914F913F912F9187
:1009B0000F900FBE0F901F90189580EB91E00E9452
:1009C000140521E0892B09F420E0822F0895E0EB43
:1009D000F1E01382128288EE93E0A0E0B0E084831D
:1009E0009583A683B78388E491E09183808385EC27
:1009F00090E09587848784EC90E09787868780ECE9
:100A000090E0918B808B81EC90E0938B828B82ECD9
:100A100090E0958B848B86EC90E0978B868B118E83
:100A2000128E138E148E0895FC01918D228D892FC4
:100A300090E0805C9F4F821B91098F7399270895E6
:100A4000FC01918D828D981731F0828DE80FF11D98
:100A5000858D90E008958FEF9FEF0895FC01918DB3
:100A6000828D981761F0828DDF01A80FB11D5D9610
:100A70008C91928D9F5F9F73928F90E008958FEF7E
:100A80009FEF0895FC01538D448D252F30E0842F76
:100A900090E0821B930B541710F0CF9608950197A6
:100AA00008958DED94E0892B49F080E090E0892B4A
:100AB00029F00E94DD0481110C9400000895FC01CE
:100AC000848DDF01A80FB11DA35ABF4F2C91848DD7
:100AD00090E001968F739927848FA689B7892C930C
:100AE000A089B1898C9180648C93938D848D9813A7
:100AF00006C00288F389E02D80818F7D8083089570
:100B0000CF93DF93EC01888D8823C9F0EA89FB89B4
:100B1000808185FD05C0A889B9898C9186FD0FC0AB
:100B20000FB607FCF5CF808185FFF2CFA889B98980
:100B30008C9185FFEDCFCE010E945F05E7CFDF915D
:100B4000CF910895EF92FF920F931F93CF93DF936E
:100B5000EC0181E0888F9B8D8C8D981305C0E8890E
:100B6000F989808185FD24C0F62E0B8D10E00F5F82
:100B70001F4F0F731127E02E8C8DE8120CC00FB69B
:100B800007FCFACFE889F989808185FFF5CFCE018E
:100B90000E945F05F1CF8B8DFE01E80FF11DE35A36
:100BA000FF4FF0820B8FEA89FB898081806207C04A
:100BB000EE89FF896083E889F98980818064808378
:100BC00081E090E0DF91CF911F910F91FF90EF9026
:100BD0000895CF92DF92EF92FF921F93CF93DF930E
:100BE000EC016A017B01122FE889F98982E0808398
:100BF0004115514E61057105B1F060E079E08DE37A
:100C000090E0A70196010E941011DA01C901019735
:100C1000A109B109B695A79597958795AC0141159E
:100C200080E15807A8F0E889F989108260E874E843
:100C30008EE190E0A70196010E941011BA01A9016E
:100C40004150510961097109769567955795479506
:100C5000EC85FD855083EE85FF854083188EEC89F9
:100C6000FD891083EA89FB89808180618083EA891C
:100C7000FB89808188608083EA89FB898081806824
:100C80008083EA89FB8980818F7D8083DF91CF918A
:100C90001F91FF90EF90DF90CF90089508950E94EC
:100CA000EA090E944E060E94D600C1E5D5E00E94E6
:100CB000F4002097E1F30E945105F9CFCF92DF9223
:100CC000EF92FF920F931F93CF93DF936C017A0102
:100CD0008B01C0E0D0E0CE15DF0589F0D8016D9121
:100CE0008D01D601ED91FC910190F081E02DC601BE
:100CF0000995892B11F47E0102C02196ECCFC70122
:100D0000DF91CF911F910F91FF90EF90DF90CF90E7
:100D100008956115710579F0FB0101900020E9F754
:100D20003197AF01461B570BDC01ED91FC9102801E
:100D3000F381E02D099480E090E008950C948906F9
:100D4000DC01ED91FC910190F081E02D099466E5C4
:100D500071E00C9489060F931F93CF93DF93EC01FE
:100D60000E9489068C01CE010E94A706800F911F68
:100D7000DF91CF911F910F9108950F931F93CF9300
:100D8000DF93EC010E94A0068C01CE010E94A70611
:100D9000800F911FDF91CF911F910F9108954F9276
:100DA0005F926F927F92EF92FF920F931F93CF9378
:100DB000DF93CDB7DEB7A1970FB6F894DEBF0FBEB5
:100DC000CDBF7C01FA01CB0119A2223008F42AE040
:100DD0008E010F5D1F4F422E512C612C712CBF01D3
:100DE000A30192010E941011F901CA0101501109D9
:100DF0006A3014F4605D01C0695CD8016C93232BE8
:100E0000242B252B61F7B801C7010E948906A19602
:100E10000FB6F894DEBF0FBECDBFDF91CF911F910B
:100E20000F91FF90EF907F906F905F904F9008959B
:100E3000CF92DF92EF92FF920F931F93CF93DF93A6
:100E4000EC016A017B012115310579F4E881F98112
:100E50000190F081E02D642FDF91CF911F910F91D0
:100E6000FF90EF90DF90CF9009942A303105E9F49C
:100E700077FF1AC06DE20E94A0068C014427552717
:100E8000BA014C195D096E097F092AE0CE010E9462
:100E9000CF06800F911FDF91CF911F910F91FF908F
:100EA000EF90DF90CF9008952AE0B701A601CE0120
:100EB000DF91CF911F910F91FF90EF90DF90CF9036
:100EC0000C94CF069A01AB01770F660B770B0C944D
:100ED00018070F931F93CF93DF93EC019A01AB0197
:100EE000770F660B770B0E9418078C01CE010E94CA
:100EF000A706800F911FDF91CF911F910F91089549
:100F00004F925F926F927F928F929F92AF92BF9219
:100F1000CF92DF92EF92FF92CF93DF93EC016A01C1
:100F20007B01B22E9A01AB01C701B6010E940B11E1
:100F3000882319F069E571E027C026013701E8949C
:100F400077F82FEF3FEF4FE75FE7C301B2010E9451
:100F50000B1181110DC02FEF3FEF4FE75FE7C3018A
:100F6000B2010E943A0F18161CF46DE571E00CC036
:100F70002FEF3FEF4FE75FE4C701B6010E949910E2
:100F800018169CF461E671E0CE01DF91CF91FF90DD
:100F9000EF90DF90CF90BF90AF909F908F907F9019
:100FA0006F905F904F900C9489062FEF3FEF4FE7C3
:100FB0005FECC701B6010E943A0F87FDE3CF20E046
:100FC00030E0A901C701B6010E943A0F87FF0AC0AD
:100FD0006DE2CE010E94A0064C01F7FAF094F7F8FA
:100FE000F09402C0812C912CA12C60E070E080E094
:100FF0009FE3AB1441F020E030E040E251E40E9476
:101000003F0FA394F6CF9B01AC01C701B6010E942C
:10101000CE0E2B013C010E94B80F6B017C010E9497
:10102000E70F9B01AC01C301B2010E94CD0E2B0161
:101030003C012AE0B701A601CE010E94CF067C0147
:10104000E80CF91CBB2031F06EE2CE010E94A00634
:10105000E80EF91EDB2CDD2029F120E030E040E233
:1010600051E4C301B2010E949E102B013C010E9479
:10107000B80F4B01A12CB12C2AE0B501A401CE017F
:101080000E94CF06E80EF91EC501B4010E94E70FC9
:101090009B01AC01C301B2010E94CD0E2B013C01AA
:1010A000DA94D9CFC701DF91CF91FF90EF90DF9015
:1010B000CF90BF90AF909F908F907F906F905F90F8
:1010C0004F9008950C9480070F931F93CF93DF9355
:1010D000EC010E9480078C01CE010E94A706800FC0
:1010E000911FDF91CF911F910F9108958E3008F0DD
:1010F0008E5087702091070190E4299F9001112460
:10110000822B80937C0080917A00806480937A00A7
:1011100080917A0086FDFCCF809178002091790043
:1011200090E0922B0895833081F028F4813099F07B
:101130008230A1F008958730A9F08830B9F084306A
:10114000D1F4809180008F7D03C0809180008F77E3
:1011500080938000089584B58F7702C084B58F7D19
:1011600084BD08958091B0008F7703C08091B00056
:101170008F7D8093B0000895CF93DF9390E0FC01C2
:10118000E458FF4F2491FC01E057FF4F84918823DE
:1011900061F190E0880F991FFC01E854FF4FC59161
:1011A000D491FC01E255FF4FA591B491611109C0A2
:1011B0009FB7F8948881209582238883EC912E2311
:1011C0000BC0623061F49FB7F8943881822F80950C
:1011D00083238883EC912E2B2C939FBF06C08FB75F
:1011E000F894E8812E2B28838FBFDF91CF9108954B
:1011F0001F93CF93DF93282F30E0F901E859FF4F79
:101200008491F901E458FF4FD491F901E057FF4F61
:10121000C491CC23C9F0162F81110E949308EC2FA2
:10122000F0E0EE0FFF1FE255FF4FA591B4918FB78D
:10123000F894111105C09C91ED2FE095E92302C0AF
:10124000EC91ED2BEC938FBFDF91CF911F9108951F
:101250001F920F920FB60F9211242F933F938F93EB
:101260009F93AF93BF9380914E0290914F02A091B4
:101270005002B091510230914D0223E0230F2D37DF
:1012800020F40196A11DB11D05C026E8230F02968A
:10129000A11DB11D20934D0280934E0290934F02E9
:1012A000A0935002B0935102809152029091530248
:1012B000A0915402B09155020196A11DB11D8093D9
:1012C000520290935302A0935402B0935502BF91DF
:1012D000AF919F918F913F912F910F900FBE0F90E3
:1012E0001F9018952FB7F89460914E0270914F029D
:1012F00080915002909151022FBF08953FB7F8940A
:101300008091520290915302A0915402B0915502E3
:1013100026B5A89B05C02F3F19F00196A11DB11D50
:101320003FBFBA2FA92F982F8827820F911DA11D8B
:10133000B11DBC01CD0142E0660F771F881F991FC8
:101340004A95D1F708958F929F92AF92BF92CF9214
:10135000DF92EF92FF926B017C010E947E094B01AC
:101360005C01C114D104E104F10401F10E94F30C09
:101370000E947E09DC01CB0188199909AA09BB09E1
:10138000883E9340A105B10560F321E0C21AD1085F
:10139000E108F10888EE880E83E0981EA11CB11CBC
:1013A000C114D104E104F10419F7DBCFFF90EF90F1
:1013B000DF90CF90BF90AF909F908F900895823034
:1013C000910538F0880F991F880F991F059701978D
:1013D000F1F70895789484B5826084BD84B5816006
:1013E00084BD85B5826085BD85B5816085BDEEE62D
:1013F000F0E0808181608083E1E8F0E0108280810C
:1014000082608083808181608083E0E8F0E0808179
:1014100081608083E1EBF0E0808184608083E0EB99
:10142000F0E0808181608083EAE7F0E08081846081
:1014300080838081826080838081816080838081DD
:10144000806880831092C1000895FC0180819181A1
:101450000C94CD11CF93DF93EC0188819981009793
:1014600011F00E94CD11198218821D821C821B82EC
:101470001A82DF91CF9108950F931F93CF93DF933B
:10148000EC018B016F5F7F4F888199810E9465120B
:10149000009731F0998388831B830A8381E001C020
:1014A00080E0DF91CF911F910F910895CF93DF934B
:1014B000EC0188819981892B29F08A819B8186178B
:1014C000970760F4CE010E943C0A882341F08C818A
:1014D0009D81892B19F4E881F981108281E0DF91E7
:1014E000CF910895EF92FF920F931F93CF93DF93C5
:1014F000EC017B018A01BA010E94560A811104C0E5
:10150000CE010E942A0A07C01D830C83B70188817F
:1015100099810E943813CE01DF91CF911F910F91D5
:10152000FF90EF900895FC011182108213821282C5
:10153000158214826115710551F0FB0101900020A4
:10154000E9F73197AF01461B570B0C94720A0895C7
:10155000CF93DF93EC016115710559F0FB01019008
:101560000020E9F73197AF01461B570B0E94720A22
:1015700002C00E942A0ACE01DF91CF910895EF9216
:10158000FF920F931F93CF93DF93FC01248135814A
:101590006115710511F480E019C041155105A9F0DC
:1015A0007B01EC018A01020F131FB8010E94560A49
:1015B000882389F3288139818C819D81B701820F2D
:1015C000931F0E9438131D830C8381E0DF91CF911C
:1015D0001F910F91FF90EF900895CF93DF9300D06C
:1015E000CDB7DEB769831A8241E050E0BE016F5F7C
:1015F0007F4F0E94BF0A0F900F90DF91CF91089507
:10160000FC011382128229E631E0318320830895A0
:10161000EF92FF920F931F93CF93DF937C01C62F1E
:101620006EE370E086E592E00E94D70C8701D0E07F
:10163000C8018E199F098C179D0744F4F801619128
:101640008F0186E592E00E94840CF2CF86E592E05D
:10165000DF91CF911F910F91FF90EF900C94EC0CC4
:10166000CF93DF9300D0CDB7DEB790E899838A831C
:1016700062E0CE0101960E94080B0F900F90DF915F
:10168000CF91089581E00E94300B80ED97E00C949B
:10169000DF09FC019581892F84608583892F8C6007
:1016A0000C94300BCF93DF9300D0CDB7DEB7411150
:1016B00002C0606801C0606C80E889836A8362E070
:1016C000CE0101960E94080B0F900F90DF91CF91F1
:1016D0000895CF93DF9300D0CDB7DEB780E4898340
:1016E0006A8362E0CE0101960E94080B81E090E0DF
:1016F0000F900F90DF91CF9108951F93CF93DF93B9
:101700001F92CDB7DEB7162F62E670E086E592E055
:1017100049830E94D70C612F86E592E00E94840CD9
:101720004981642F86E592E00E94840C86E592E070
:101730000F90DF91CF911F910C94EC0CEF92FF92E0
:101740001F93CF93DF931F92CDB7DEB77C01142F89
:10175000462F64E029830E947D0B412F63E0C7017F
:101760000E947D0B2981422F62E0C7010F90DF911B
:10177000CF911F91FF90EF900C947D0B0F931F93CF
:10178000CF93DF9300D0CDB7DEB78C0186E592E032
:101790002A8349830E94C30C49812A81423020F068
:1017A000F801848188608483F801408711862223B0
:1017B00029F0413019F484818460848380E593ECBE
:1017C0000E94DF09F801848180620E94300B84E965
:1017D00091E10E94DF09F801848180620E94300B50
:1017E00086E990E00E94DF09F801848180620E940E
:1017F000300BF801848180620E94300B84E0F80194
:101800008583C8010E94490BC8010E94420B82E0F7
:10181000F801868386E00E94300B40E060E0C8015A
:101820000E947D0B4FEF68E0C8010E947D0B40E2F3
:1018300061E0C8010E947D0B2FEF4FEF6FEFC801F1
:101840000F900F90DF91CF911F910F910C949E0BF1
:101850008091860290E020918702821B9109089571
:101860009091870280918602981750F4E92FF0E05A
:10187000E857FD4F208130E09F5F9093870202C0C0
:101880002FEF3FEFC9010895E09187028091860212
:10189000E81730F4F0E0E857FD4F808190E00895BC
:1018A0008FEF9FEF08950895CF92DF92EF92FF920E
:1018B0000F931F93CF93DF937C01262F972F8A01DD
:1018C00080916202882391F0C62FD72F6E01C40E3B
:1018D000D51ECC15DD0571F06991D701ED91FC9114
:1018E0000190F081E02DC7010995F3CF642F822F7D
:1018F0000E94680DC801DF91CF911F910F91FF9059
:10190000EF90DF90CF900895CF93DF931F92CDB7E4
:10191000DEB76983209162022223D1F02091630215
:10192000203240F021E030E0FC013383228380E06C
:1019300090E015C080916402E82FF0E0EB59FD4F74
:10194000998190838F5F809364028093630205C0C6
:1019500061E0CE0101960E94680D81E090E00F9059
:10196000DF91CF910895FC011382128288EE93E0FB
:10197000A0E0B0E084839583A683B78385E791E0F8
:1019800091838083089510928702109286021092AC
:101990006402109263020C94F40C81E08093620262
:1019A00060938502109264021092630208950C9471
:1019B000CD0C0F93062F21E04091630265E672E0A3
:1019C000809185020E94120D1092640210926302AF
:1019D000109262020F91089561E00C94D90C86E593
:1019E00092E00C94B30C08951092150381E080935B
:1019F00013031092120361E082E10E94F80861E093
:101A000083E10E94F808E9EBF0E080818E7F80831B
:101A100080818D7F808388E48093B80085E4809303
:101A2000BC0008950F93413208F04AC0909115030D
:101A30009111FCCF32E030931503009313033FEF75
:101A40003093A8021092ED024093EC02FB016EEE7F
:101A500072E0DB013A2F361B341718F431913D93B5
:101A6000F9CF1092140330911403880F832B8093C5
:101A7000140380911203813061F41092120380915B
:101A800014038093BB008091BC0083FDF8CF85ECEC
:101A900001C085EE8093BC00222321F080911503C4
:101AA0008230D1F38091A8028F3F79F08091A80213
:101AB000803241F08091A802803331F094E005C07B
:101AC00091E003C092E001C093E0892F0F91089547
:101AD0004091CA02262F30E0240F311D21323105FA
:101AE000DCF4209115032430C9F4FC0180E090E07F
:101AF000861758F43091CA022191DC01A453BD4FDE
:101B0000A30FB11D2C930196F3CF8091CA02680FE9
:101B10006093CA0280E0089581E0089582E008950C
:101B200085ED8093BC008091BC0084FDFCCF1092B9
:101B30001503089585EC8093BC0010921503089559
:101B40001F920F920FB60F9211242F933F934F9332
:101B50005F936F937F938F939F93AF93BF93EF9315
:101B6000FF938091B900887F803609F49EC078F594
:101B7000883209F45DC090F4803109F456C038F41D
:101B8000882309F4F5C0883009F44FC0F5C08831C6
:101B900009F44EC0803209F45FC0EEC0803409F40D
:101BA0006AC058F4803309F457C0883309F0E4C0A0
:101BB0008093A8020E949A0DDFC0803509F44FC0BF
:101BC000883509F45DC0883409F0D6C0D3C088399F
:101BD00009F4C4C0A8F4883709F467C038F488361B
:101BE00009F463C0803709F460C0C6C0883809F4BE
:101BF000B5C0803909F45FC0803809F0BDC05BC052
:101C0000803B09F483C038F4803A09F466C0883A0E
:101C100009F47CC0B1C0803C09F4A4C0883C09F43C
:101C2000A1C0883B09F487C0A7C08091140310C0ED
:101C30009091ED028091EC02981770F5E091ED0221
:101C400081E08E0F8093ED02F0E0E251FD4F808144
:101C50008093BB0085EC83C08093A8028BC0E09189
:101C6000ED0281E08E0F8093ED028091BB00F0E0E9
:101C7000E251FD4F80839091ED028091EC026BC0A8
:101C8000E091ED0281E08E0F8093ED028091BB0028
:101C9000F0E0E251FD4F80838091130381116AC00F
:101CA00081E08093120384EA5EC083E08093150391
:101CB0001092A902CFCF8091A902803208F04EC0C5
:101CC000E091A90281E08E0F8093A9028091BB0070
:101CD000F0E0E655FD4F8083BDCF0E949A0D8091C4
:101CE000A902803230F4E091A902F0E0E655FD4F00
:101CF00010826091A90270E0E0910E03F0910F0351
:101D00008AEA92E009951092A90236C084E0809395
:101D100015031092CB021092CA02E0911003F091C9
:101D2000110309958091CA02811105C081E0809359
:101D3000CA021092CC02E091CB0281E08E0F809318
:101D4000CB02F0E0E453FD4F80818093BB00909183
:101D5000CB028091CA02981708F47CCF85E8809363
:101D6000BC000AC085EC8093BC001092150304C02F
:101D70001092A8020E94900DFF91EF91BF91AF9138
:101D80009F918F917F916F915F914F913F912F9193
:101D90000F900FBE0F901F9018955058BB27AA2781
:101DA0000E94E50E0C945F100E94511038F00E94C2
:101DB000581020F039F49F3F19F426F40C944E107B
:101DC0000EF4E095E7FB0C944810E92F0E94701088
:101DD00058F3BA17620773078407950720F079F460
:101DE000A6F50C9492100EF4E0950B2EBA2FA02DB0
:101DF0000B01B90190010C01CA01A0011124FF27B8
:101E0000591B99F0593F50F4503E68F11A16F040B2
:101E1000A22F232F342F4427585FF3CF46953795B1
:101E20002795A795F0405395C9F77EF41F16BA0B76
:101E3000620B730B840BBAF09150A1F0FF0FBB1F24
:101E4000661F771F881FC2F70EC0BA0F621F731F6D
:101E5000841F48F4879577956795B795F7959E3FCA
:101E600008F0B0CF9395880F08F09927EE0F97955B
:101E7000879508950E94241008F481E008950E9437
:101E8000530F0C945F100E94581058F00E9451108C
:101E900040F029F45F3F29F00C94481051110C9444
:101EA00093100C944E100E94701068F39923B1F3B4
:101EB000552391F3951B550BBB27AA276217730770
:101EC000840738F09F5F5F4F220F331F441FAA1F04
:101ED000A9F335D00E2E3AF0E0E832D091505040C0
:101EE000E695001CCAF72BD0FE2F29D0660F771F6E
:101EF000881FBB1F261737074807AB07B0E809F054
:101F0000BB0B802DBF01FF2793585F4F3AF09E3FD8
:101F1000510578F00C9448100C9493105F3FE4F353
:101F2000983ED4F3869577956795B795F7959F5F1B
:101F3000C9F7880F911D9695879597F90895E1E067
:101F4000660F771F881FBB1F621773078407BA07C6
:101F500020F0621B730B840BBA0BEE1F88F7E09521
:101F600008950E94B80F6894B1110C9493100895CD
:101F70000E94781088F09F5798F0B92F9927B75191
:101F8000B0F0E1F0660F771F881F991F1AF0BA951D
:101F9000C9F714C0B13091F00E949210B1E00895D9
:101FA0000C949210672F782F8827B85F39F0B93FCB
:101FB000CCF3869577956795B395D9F73EF49095D0
:101FC0008095709561957F4F8F4F9F4F0895E8944E
:101FD00009C097FB3EF490958095709561957F4F71
:101FE0008F4F9F4F9923A9F0F92F96E9BB2793951F
:101FF000F695879577956795B795F111F8CFFAF42F
:10200000BB0F11F460FF1BC06F5F7F4F8F4F9F4F5F
:1020100016C0882311F096E911C0772321F09EE8BD
:10202000872F762F05C0662371F096E8862F70E023
:1020300060E02AF09A95660F771F881FDAF7880FFD
:102040009695879597F90895990F0008550FAA0B53
:10205000E0E8FEEF16161706E807F907C0F01216BB
:102060001306E407F50798F0621B730B840B950BBE
:1020700039F40A2661F0232B242B252B21F4089513
:102080000A2609F4A140A6958FEF811D811D0895B0
:1020900097F99F6780E870E060E008959FEF80EC1B
:1020A000089500240A9416161706180609060895BE
:1020B00000240A9412161306140605060895092E24
:1020C0000394000C11F4882352F0BB0F40F4BF2B93
:1020D00011F460FF04C06F5F7F4F8F4F9F4F0895D3
:1020E00057FD9058440F551F59F05F3F71F04795C9
:1020F000880F97FB991F61F09F3F79F087950895AE
:10210000121613061406551FF2CF4695F1DF08C0CC
:10211000161617061806991FF1CF869571056105E9
:1021200008940895E894BB2766277727CB0197F991
:1021300008950E94241008F48FEF08950E94B110B2
:102140000C945F100E94511038F00E94581020F03B
:10215000952311F00C9448100C944E1011240C94FB
:1021600093100E94701070F3959FC1F3950F50E08B
:10217000551F629FF001729FBB27F00DB11D639F39
:10218000AA27F00DB11DAA1F649F6627B00DA11DDF
:10219000661F829F2227B00DA11D621F739FB00D85
:1021A000A11D621F839FA00D611D221F749F3327F5
:1021B000A00D611D231F849F600D211D822F762F8E
:1021C0006A2F11249F5750409AF0F1F088234AF06B
:1021D000EE0FFF1FBB1F661F771F881F91505040D7
:1021E000A9F79E3F510580F00C9448100C94931071
:1021F0005F3FE4F3983ED4F3869577956795B7955E
:10220000F795E7959F5FC1F7FE2B880F911D969577
:10221000879597F908950E942410880B990B0895CB
:10222000A1E21A2EAA1BBB1BFD010DC0AA1FBB1FDA
:10223000EE1FFF1FA217B307E407F50720F0A21B4C
:10224000B30BE40BF50B661F771F881F991F1A94B9
:1022500069F760957095809590959B01AC01BD01E3
:10226000CF010895EE0FFF1F0590F491E02D099422
:10227000CF93DF938230910510F482E090E0E091FB
:102280001803F091190320E030E0C0E0D0E030976F
:1022900011F14081518148175907C0F0481759077B
:1022A00061F482819381209719F09B838A832BC0EC
:1022B000909319038093180326C02115310519F056
:1022C0004217530718F49A01BE01DF01EF010280A3
:1022D000F381E02DDCCF2115310509F1281B390BE5
:1022E0002430310590F412968D919C9113976115CD
:1022F000710521F0FB019383828304C0909319033D
:1023000080931803FD01329644C0FD01E20FF31FD4
:1023100081939193225031092D933C933AC020919F
:10232000160330911703232B41F4209102013091C1
:10233000030130931703209316032091000130917D
:1023400001012115310541F42DB73EB7409104013B
:1023500050910501241B350BE0911603F0911703F2
:10236000E217F307A0F42E1B3F0B2817390778F06C
:10237000AC014E5F5F4F2417350748F04E0F5F1FCB
:1023800050931703409316038193919302C0E0E0AA
:10239000F0E0CF01DF91CF9108950F931F93CF937A
:1023A000DF93009709F48CC0FC01329713821282EC
:1023B00000911803109119030115110581F4208172
:1023C0003181820F931F2091160330911703281734
:1023D000390779F5F0931703E093160371C0D8011C
:1023E00040E050E0AE17BF0750F412962D913C919B
:1023F0001397AD012115310509F1D901F3CF9D01E5
:10240000DA013383228360817181860F971F8217DF
:10241000930769F4EC0128813981260F371F2E5F5D
:102420003F4F318320838A819B8193838283452B15
:1024300029F4F0931903E093180342C01396FC9318
:10244000EE931297ED01499159919E01240F351F8A
:10245000E217F30771F480819181840F951F029632
:1024600011969C938E938281938113969C938E9365
:102470001297E0E0F0E0D80112968D919C911397AD
:10248000009719F0F8018C01F6CF8D919C9198017D
:102490002E5F3F4F820F931F209116033091170339
:1024A0002817390769F4309729F41092190310920C
:1024B000180302C0138212821093170300931603AD
:1024C000DF91CF911F910F910895A0E0B0E0EBE66E
:1024D000F2E10C944313EC01009721F4CB010E942C
:1024E0003811B8C0FC01E60FF71F9C0122503109DA
:1024F000E217F30708F4ACC0D9010D911C911197B4
:1025000006171707B0F00530110508F49FC0C80181
:1025100004978617970708F499C002501109061B03
:10252000170B019311936D937C93CF010E94CD11F2
:102530008DC05B01A01AB10A4C01800E911EA091C2
:102540001803B091190340E050E0E12CF12C1097F2
:1025500009F44AC0A815B905D1F56D907C90119782
:10256000630182E0C80ED11CCA14DB0480F1A30110
:102570004A195B096A0182E0C80ED11C1296BC9010
:1025800012971396AC91B5E0CB16D10440F0B2820D
:10259000A38351834083D9016D937C930AC00E5F5E
:1025A0001F4FC301800F911FF90191838083EB2D91
:1025B000FA2FE114F10431F0D7011396FC93EE9356
:1025C000129744C0F0931903E09318033FC08D9114
:1025D0009C9111974817590708F4AC017D01129698
:1025E0000D90BC91A02DB3CF80911603909117034D
:1025F00088159905E1F446175707C8F48091000142
:1026000090910101009741F48DB79EB7409104016C
:1026100050910501841B950BE817F907C8F4F09356
:102620001703E0931603F901718360830FC0CB0198
:102630000E9438117C01009759F0A801BE010E9448
:102640002F13CE010E94CD11C70104C0CE0102C0DC
:1026500080E090E0CDB7DEB7EEE00C945F13FB01B5
:10266000DC0102C001900D9241505040D8F708950E
:10267000FB01DC0101900D920020E1F708952F92FB
:102680003F924F925F926F927F928F929F92AF9202
:10269000BF92CF92DF92EF92FF920F931F93CF934F
:1026A000DF93CDB7DEB7CA1BDB0B0FB6F894DEBFE6
:1026B0000FBECDBF09942A88398848885F846E840C
:1026C0007D848C849B84AA84B984C884DF80EE8056
:1026D000FD800C811B81AA81B981CE0FD11D0FB65F
:1026E000F894DEBF0FBECDBFED01089510E0C4E643
:1026F000D0E004C0FE010E9432112196C536D107F8
:06270000C9F7F894FFCFB9
:1027060000001A032000610161206C27C3A9636FD2
:10271600757465202E2E2E00543A200020483A204B
:1027260000533A20004172726F736167652064C37B
:10273600A962757421004172726F736167652066C4
:10274600696E210000000000A2055E0642058005B4
:1027560014052E0520050D0A006E616E00696E6671
:10276600006F76660000000000690B5E0681048437
:102776000400000000840C540C8104530C280C3017
:042786000C440C00F3
:00000001FF
