:100000000C9437000C945F000C945F000C945F001C
:100010000C945F000C945F000C945F000C945F00E4
:100020000C945F000C945F000C945F000C945F00D4
:100030000C945F000C945F000C945F000C945F00C4
:100040000C94DF030C945F000C9451010C94940108
:100050000C945F000C945F000C945F000C945F00A4
:100060000C945F000C945F006F0057027500112420
:100070001FBECFEFD8E0DEBFCDBF11E0A0E0B1E002
:10008000ECEFFFE002C005900D92AC32B107D9F75A
:1000900021E0ACE2B1E001C01D92AC3EB207E1F755
:1000A00010E0C6E3D0E004C02197FE010E94AD0538
:1000B000C433D107C9F70E9492020C94F1070C9443
:1000C000000040E052EC61E070E085E391E00E94C6
:1000D000CF0167E071E085E391E00C94F90266E1FD
:1000E00071E08EE291E00C941D058EE291E00C949B
:1000F000AF04CF9385E391E00E94B700181619066C
:10010000A4F585E391E00E94E300C82F682F8EE2FA
:1001100091E00E94780561E070E080E090E00E944C
:100120004E04C33239F780E00E94C20390932D0140
:1001300080932C0167E171E085E391E00E94DC028D
:1001400060912C0170912D014AE050E085E391E02F
:100150000E94AB0366E171E08EE291E00E943305FC
:1001600085E391E00E940301C5CFCF910895FC0182
:1001700024853585F901E05CFF4F808191813296BD
:1001800020813181821B930B8F7399270895DC01A5
:100190001C96ED91FC911D97DF01A05CBF4F2D9146
:1001A0003C91119712968D919C91119728173907C0
:1001B00039F08D919C91E80FF91F808190E00895AE
:1001C0008FEF9FEF0895FC01A485B585FD01E05CEC
:1001D000FF4F208131813296808191812817390724
:1001E00079F080819181A80FB91F8C912081318194
:1001F0002F5F3F4F2F7333273183208390E0089583
:100200008FEF9FEF0895FC0181A1882329F0A48935
:10021000B5898C9186FFFBCF11A208950F931F9390
:10022000CF93DF93FC01A685B7858D01005C1F4F3E
:10023000E8018881998101968F739927AD014E5B02
:100240005F4FEA012881398182179307D1F3E801D2
:1002500028813981A20FB31F6C93A685B785A05C56
:10026000BF4F11969C938E93A689B7892C9181E0FC
:1002700090E0078C02C0880F991F0A94E2F7822B46
:100280008C9381E081A30488F589E02D80818064CE
:10029000808381E090E0DF91CF911F910F910895CD
:1002A00008951F920F920FB60F9211242F934F9320
:1002B0005F938F939F93EF93FF938091C00082FD94
:1002C0001CC02091C6008091DB019091DC01019659
:1002D0008F7399274091DD015091DE0184179507B6
:1002E00071F0E091DB01F091DC01E556FE4F2083D7
:1002F0009093DC018093DB0102C08091C600FF91E6
:10030000EF919F918F915F914F912F910F900FBE21
:100310000F901F90189585E391E00E94B700892BFC
:1003200011F00C94500108951F920F920FB60F9286
:1003300011242F933F938F939F93EF93FF932091DB
:100340009701309198018091990190919A01281715
:10035000390731F48091C1008F7D8093C10014C0B2
:10036000E0919901F0919A01E95AFE4F2081809124
:10037000990190919A0101968F73992790939A0110
:10038000809399012093C600FF91EF919F918F91E7
:100390003F912F910F900FBE0F901F901895CF9205
:1003A000DF92EF92FF920F931F93CF93DF93EC01B5
:1003B0006A017B014115514E6105710509F1EC8916
:1003C000FD8981E090E008A002C0880F991F0A947F
:1003D000E2F7808360E079E08DE390E0A701960189
:1003E0000E948B0589019A010150110921093109E7
:1003F0003695279517950795980101151041A8F096
:10040000EC89FD89108260E874E88EE190E0A70134
:1004100096010E948B05DA01C9010197A109B10972
:10042000B695A795979587959C01E889F9893083BA
:10043000EA89FB89208319A2EE89FF89408181E046
:1004400090E09C010C8C02C0220F331F0A94E2F74B
:10045000242B2083EE89FF8940819C010D8C02C0F2
:10046000220F331F0A94E2F7242B2083EE89FF89A1
:1004700040819C010E8C02C0220F331F0A94E2F7C8
:10048000242B2083EE89FF8920810F8C02C0880FE6
:10049000991F0A94E2F7809582238083DF91CF91A0
:1004A0001F910F91FF90EF90DF90CF900895E5E3BB
:1004B000F1E01382128288EE93E0A0E0B0E0848342
:1004C0009583A683B7838FE191E0918380838BE945
:1004D00091E09587848787E591E09787868785EC0B
:1004E00090E0918B808B84EC90E0938B828B80ECFE
:1004F00090E0958B848B81EC90E0978B868B82ECDF
:1005000090E0918F808F86EC90E0938F828F84E0D3
:10051000848F83E0858F87E0868F85E0878F81E0F9
:1005200080A308950E9474040E946100CBE8D1E08A
:100530000E9479002097E1F30E948B01F9CFCF92BE
:10054000DF92EF92FF920F931F93CF93DF936C0193
:10055000EB017B01E40EF51E00E010E0CE15DF0597
:1005600061F06991D601ED91FC910190F081E02D4F
:10057000C6010995080F191FF1CFC801DF91CF916E
:100580001F910F91FF90EF90DF90CF90089561152C
:10059000710579F0FB0101900020E9F73197AF0177
:1005A000461B570BDC01ED91FC910280F381E02D9D
:1005B000099480E090E008950C94C702DC01ED916D
:1005C000FC910190F081E02D09940F931F93CF933C
:1005D000DF93EC016DE00E94DE028C016AE0CE0147
:1005E0000E94DE02800F911FDF91CF911F910F912A
:1005F00008950F931F93CF93DF93EC010E94C702DE
:100600008C01CE010E94E502800F911FDF91CF91F6
:100610001F910F9108958F929F92AF92BF92CF92A8
:10062000DF92EF92FF920F931F93CF93DF93CDB79B
:10063000DEB7A1970FB6F894DEBF0FBECDBF6C0139
:10064000142FE52FCB01022F19A2223008F40AE063
:100650007E0121E2E20EF11C802E912CA12CB12C06
:10066000612F7E2FA50194010E948B05029F101916
:10067000112481E0E81AF1081A3014F4105D01C069
:10068000195CF7011083122FE32FCA01232B242BAF
:10069000252B31F7B701C6010E94C702A1960FB6FC
:1006A000F894DEBF0FBECDBFDF91CF911F910F91A8
:1006B000FF90EF90DF90CF90BF90AF909F908F9082
:1006C0000895CF92DF92EF92FF920F931F93CF93F3
:1006D000DF93EC016A017B012115310579F4E88192
:1006E000F9810190F081E02D642FDF91CF911F916E
:1006F0000F91FF90EF90DF90CF9009942A30310551
:10070000E9F477FF1AC06DE20E94DE028C014427F3
:100710005527BA014C195D096E097F092AE0CE01FF
:100720000E940B03800F911FDF91CF911F910F91BA
:10073000FF90EF90DF90CF9008952AE0B701A601D7
:10074000CE01DF91CF911F910F91FF90EF90DF903D
:10075000CF900C940B030F931F93CF93DF93EC0177
:100760009A01AB01770F660B770B0E9461038C0136
:10077000CE010E94E502800F911FDF91CF911F9162
:100780000F9108958E3008F08E50877020910601E9
:1007900090E4299F90011124822B80937C0080910A
:1007A0007A00806480937A0080917A0086FDFCCF85
:1007B000809178002091790090E0922B08951F920B
:1007C0000F920FB60F9211242F933F938F939F9305
:1007D000AF93BF938091E0019091E101A091E2017C
:1007E000B091E3013091DF0123E0230F2D3720F496
:1007F0000196A11DB11D05C026E8230F0296A11D7B
:10080000B11D2093DF018093E0019093E101A0935B
:10081000E201B093E3018091E4019091E501A091A0
:10082000E601B091E7010196A11DB11D8093E4019D
:100830009093E501A093E601B093E701BF91AF91DA
:100840009F918F913F912F910F900FBE0F901F900E
:1008500018953FB7F8948091E4019091E501A0913B
:10086000E601B091E70126B5A89B05C02F3F19F01E
:100870000196A11DB11D3FBFBA2FA92F982F882720
:10088000820F911DA11DB11DBC01CD0142E0660F7B
:10089000771F881F991F4A95D1F70895CF92DF924D
:1008A000EF92FF92CF93DF936B017C010E942904AA
:1008B000EB01C114D104E104F10479F00E94290490
:1008C0006C1B7D0B683E7340A0F381E0C81AD10811
:1008D000E108F108C851DC4FECCFDF91CF91FF90D8
:1008E000EF90DF90CF900895789484B5826084BDB6
:1008F00084B5816084BD85B5826085BD85B5816024
:1009000085BDEEE6F0E0808181608083E1E8F0E083
:100910001082808182608083808181608083E0E8B2
:10092000F0E0808181608083E1EBF0E08081846091
:100930008083E0EBF0E0808181608083EAE7F0E093
:1009400080818460808380818260808380818160F7
:1009500080838081806880831092C1000895FC01AB
:10096000808191810C944806CF93DF93EC018881BC
:100970009981009711F00E944806198218821D8201
:100980001C821B821A82DF91CF9108950F931F93CF
:10099000CF93DF93EC018B016F5F7F4F888199814B
:1009A0000E94E006009731F0998388831B830A83B5
:1009B00081E001C080E0DF91CF911F910F910895F8
:1009C000CF93DF93EC0188819981892B29F08A816B
:1009D0009B818617970760F4CE010E94C604882386
:1009E00041F08C819D81892B19F4E881F981108275
:1009F00081E0DF91CF910895EF92FF920F931F93C3
:100A0000CF93DF93EC017B018A01BA010E94E004DD
:100A1000811104C0CE010E94B40407C01D830C8361
:100A2000B701888199810E94B307CE01DF91CF91F0
:100A30001F910F91FF90EF900895FC011182108299
:100A4000138212821582148216826115710551F08B
:100A5000FB0101900020E9F73197AF01461B570BCE
:100A60000C94FC040895CF93DF93EC01611571059C
:100A700059F0FB0101900020E9F73197AF01461BC7
:100A8000570B0E94FC0402C00E94B404CE01DF9107
:100A9000CF910895EF92FF920F931F93CF93DF931F
:100AA000FC01248135816115710511F480E019C0C4
:100AB00041155105A9F07B01EC018A01020F131FBA
:100AC000B8010E94E004882389F3288139818C8150
:100AD0009D81B701820F931F0E94B3071D830C8372
:100AE00081E0DF91CF911F910F91FF90EF900895DA
:100AF000CF93DF9300D0CDB7DEB769831A8241E090
:100B000050E0BE016F5F7F4F0E944A050F900F902B
:100B1000DF91CF910895A1E21A2EAA1BBB1BFD0104
:100B20000DC0AA1FBB1FEE1FFF1FA217B307E407CC
:100B3000F50720F0A21BB30BE40BF50B661F771F24
:100B4000881F991F1A9469F7609570958095909504
:100B50009B01AC01BD01CF010895EE0FFF1F059071
:100B6000F491E02D0994CF93DF938230910510F436
:100B700082E090E0E091EA01F091EB0120E030E0CA
:100B8000C0E0D0E0309711F14081518148175907FA
:100B9000C0F04817590761F482819381209719F0BA
:100BA0009B838A832BC09093EB018093EA0126C03C
:100BB0002115310519F04217530718F49A01BE01A7
:100BC000DF01EF010280F381E02DDCCF211531053B
:100BD00009F1281B390B2430310590F412968D91C0
:100BE0009C9113976115710521F0FB01938382831A
:100BF00004C09093EB018093EA01FD01329644C05A
:100C0000FD01E20FF31F81939193225031092D933F
:100C10003C933AC02091E8013091E901232B41F443
:100C200020910201309103013093E9012093E80102
:100C300020910001309101012115310541F42DB7BA
:100C40003EB74091040150910501241B350BE09102
:100C5000E801F091E901E217F307A0F42E1B3F0B26
:100C60002817390778F0AC014E5F5F4F241735071E
:100C700048F04E0F5F1F5093E9014093E8018193C4
:100C8000919302C0E0E0F0E0CF01DF91CF910895B1
:100C90000F931F93CF93DF93009709F48CC0FC014F
:100CA0003297138212820091EA011091EB01011533
:100CB000110581F420813181820F931F2091E80179
:100CC0003091E9012817390779F5F093E901E093AC
:100CD000E80171C0D80140E050E0AE17BF0750F402
:100CE00012962D913C911397AD012115310509F113
:100CF000D901F3CF9D01DA013383228360817181B1
:100D0000860F971F8217930769F4EC0128813981B8
:100D1000260F371F2E5F3F4F318320838A819B81AF
:100D200093838283452B29F4F093EB01E093EA014E
:100D300042C01396FC93EE931297ED01499159919D
:100D40009E01240F351FE217F30771F48081918112
:100D5000840F951F029611969C938E9382819381A6
:100D600013969C938E931297E0E0F0E0D8011296D0
:100D70008D919C911397009719F0F8018C01F6CF93
:100D80008D919C9198012E5F3F4F820F931F209170
:100D9000E8013091E9012817390769F4309729F4FF
:100DA0001092EB011092EA0102C01382128210939A
:100DB000E9010093E801DF91CF911F910F91089510
:100DC000A0E0B0E0E6EEF6E00C94BE07EC01009780
:100DD00021F4CB010E94B305B8C0FC01E60FF71F58
:100DE0009C0122503109E217F30708F4ACC0D90185
:100DF0000D911C91119706171707B0F005301105DA
:100E000008F49FC0C80104978617970708F499C093
:100E100002501109061B170B019311936D937C93DC
:100E2000CF010E9448068DC05B01A01AB10A4C0197
:100E3000800E911EA091EA01B091EB0140E050E0DC
:100E4000E12CF12C109709F44AC0A815B905D1F589
:100E50006D907C901197630182E0C80ED11CCA147A
:100E6000DB0480F1A3014A195B096A0182E0C80E24
:100E7000D11C1296BC9012971396AC91B5E0CB168C
:100E8000D10440F0B282A38351834083D9016D9392
:100E90007C930AC00E5F1F4FC301800F911FF901A1
:100EA00091838083EB2DFA2FE114F10431F0D70107
:100EB0001396FC93EE93129744C0F093EB01E093EA
:100EC000EA013FC08D919C9111974817590708F48A
:100ED000AC017D0112960D90BC91A02DB3CF8091F5
:100EE000E8019091E90188159905E1F44617570743
:100EF000C8F48091000190910101009741F48DB7F1
:100F00009EB74091040150910501841B950BE81791
:100F1000F907C8F4F093E901E093E801F90171835E
:100F200060830FC0CB010E94B3057C01009759F08C
:100F3000A801BE010E94AA07CE010E944806C7016F
:100F400004C0CE0102C080E090E0CDB7DEB7EEE095
:100F50000C94DA07FB01DC0102C001900D924150B4
:100F60005040D8F70895FB01DC0101900D9200205C
:100F7000E1F708952F923F924F925F926F927F9286
:100F80008F929F92AF92BF92CF92DF92EF92FF9299
:100F90000F931F93CF93DF93CDB7DEB7CA1BDB0B45
:100FA0000FB6F894DEBF0FBECDBF09942A883988EA
:100FB00048885F846E847D848C849B84AA84B984F1
:100FC000C884DF80EE80FD800C811B81AA81B981FD
:100FD000CE0FD11D0FB6F894DEBF0FBECDBFED0111
:100FE000089510E0C6E3D0E004C0FE010E94AD0504
:0C0FF0002196C733D107C9F7F894FFCF52
:100FFC000000EC0120000161206C27C3A9636F7510
:10100C007465202E2E2E0061303A00000000000E78
:0C101C00019F02B700E300C700030100C1
:00000001FF
