:100000000C9464000C948C000C948C000C948C0068
:100010000C948C000C948C000C948C000C948C0030
:100020000C948C000C948C000C948C000C948C0020
:100030000C948C000C948C000C948C000C948C0010
:100040000C94190A0C948C000C940F040C94410429
:100050000C948C000C948C000C948C000C948C00F0
:100060000C94C30B0C948C000000000800020100EB
:100070000003040700000000000000000102040863
:100080001020408001020408102001020408102002
:10009000040404040404040402020202020203032E
:1000A00003030303000000002300260029000000D2
:1000B0000000250028002B0000000000240027007D
:1000C0002A0051017104630911241FBECFEFD8E04B
:1000D000DEBFCDBF11E0A0E0B1E0EAEBFEE102C07F
:1000E00005900D92A636B107D9F722E0A6E6B1E059
:1000F00001C01D92AA3EB207E1F710E0C4E6D0E0CD
:1001000004C02197FE010E94550FC136D107C9F7DF
:100110000E94D9050C945B0F0C9400004F925F92E3
:100120006F927F928F929F92AF92BF92CF92DF9207
:10013000EF92FF920F931F93E0918201EE2309F457
:1001400051C06701780149015A012B013C0180919E
:100150008301803479F561E071E084E891E00E94E8
:10016000280622E030E0B301A20184E891E00E9479
:10017000720764E071E084E891E00E94280622E0C2
:1001800030E0B501A40184E891E00E9472076AE0C2
:1001900071E084E891E00E94280622E030E0B70197
:1001A000A60184E891E00E94720784E891E00E9431
:1001B000310616C0803541F460E171E084E891E0D9
:1001C0000E94350661E009C0803751F469E171E0B1
:1001D00084E891E00E94350660E082E00E94E9092F
:1001E000109282011F910F91FF90EF90DF90CF90BE
:1001F000BF90AF909F908F907F906F905F904F9047
:1002000008958F929F92AF92BF92CF92DF92EF921A
:10021000FF924B015C010E94630A0E940A0E6B016F
:100220007C0120E030E04AE754E4C501B4010E94BB
:10023000C10E9B01AC01C701B6010E94F10C0E94E6
:10024000D40D6B017C010E94630A6C157D058E053F
:100250009F05C8F3FF90EF90DF90CF90BF90AF90D5
:100260009F908F90089520E042E060E186E691E063
:100270000E94320860E080E00E94AD0961E082E007
:100280000E94AD0926E040E052EC61E070E084E8B5
:1002900091E00E94730560E070E080E89FE30C94B9
:1002A000010126E04BE064E080E791E00E94F70165
:1002B00086E691E00C94740784E891E00E949E0425
:1002C000181619064CF484E891E00E94B804809353
:1002D000830181E08093820108954F925F926F9233
:1002E0007F928F929F92AF92BF92EF92FF920F9365
:1002F0001F93CF93DF9300D000D0CDB7DEB740E09F
:1003000060E080E791E00E9463032B013C0160E024
:1003100080E791E00E94C4034B015C0180E00E94F1
:100320006709BC01990F880B990B0E940C0E698319
:100330007A838B839C830E945C01E980FA800B8125
:100340001C81A5019401C301B2010E948E0040E00E
:1003500060E086E691E00E94C60763E271E086E60F
:1003600091E00E94280622E030E0B301A20186E677
:1003700091E00E94720765E071E086E691E00E94DC
:10038000280622E030E0B501A40186E691E00E9453
:10039000720741E060E086E691E00E94C6076CE0EB
:1003A00071E086E691E00E94280622E030E0498173
:1003B0005A816B817C8186E691E00E9472076DEC28
:1003C0007CEC8CEC9EE30F900F900F900F90DF91E0
:1003D000CF911F910F91FF90EF90BF90AF909F90A2
:1003E0008F907F906F905F904F900C940101DC0193
:1003F00015966C93159716964C93169770E0FB0123
:10040000E458FF4FE4911796EC931797FB01E057E0
:10041000FF4F649118966C93189740E85EE360E094
:1004200070E01D964D935D936D937C935097089566
:100430008F929F92AF92BF92CF92DF92EF92FF92F4
:100440000F931F93CF93DC011796CC9117976623D8
:1004500011F08C2F01C080E018962C91189730E095
:10046000220F331F2C553F4F40E050E0BA01F901F5
:1004700005911491F80190819C23981315C06A018D
:100480007B019FEFC91AD90AE90AF90A1D968D90D6
:100490009D90AD90BC905097481559056A057B0515
:1004A00038F4B701A601E3CF342F252FCB0104C0C8
:1004B00030E020E080E090E0632F722FCF911F9119
:1004C0000F91FF90EF90DF90CF90BF90AF909F90F3
:1004D0008F9008958F929F92AF92BF92CF92DF92AA
:1004E000EF92FF920F931F93CF93DF93CDB7DEB7B9
:1004F000C054D1400FB6F894DEBF0FBECDBF8C0103
:10050000F62E0E94630AF11016C0F801C184D2844D
:10051000E384F4849B01AC012C193D094E095F0969
:1005200069017A0130EDC31637E0D306E104F10426
:1005300010F48189B4C0F80161877287838794873A
:100540001482138212821182108261E085810E94DE
:10055000E9096AEF70E080E090E00E94940A61E0AF
:10056000F80185810E94AD0960E0F80185810E9453
:10057000E90964E170E080E090E00E94940AF89458
:1005800061E0F80185810E94E90988E290E00E941B
:10059000D00A62E0F80185810E94AD098AE090E00E
:1005A0000E94D00A60E0C8010E941802672B682BE5
:1005B000692B21F4F801118A789442C061E0C801E6
:1005C0000E941802672B682B692BA1F39E012F5FF5
:1005D0003F4F79015E013FEBA31A3EEFB30A67017B
:1005E00060E0C8010E941802F60160837183828373
:1005F000938361E0C8010E941802F6016483758349
:1006000086839783F8E0CF0ED11CCA14DB0441F730
:10061000789420E030E0F70140815181628173815C
:1006200084809580A680B7804115510561057105CC
:1006300029F081149104A104B10421F4F801118A74
:1006400080E02DC0F90183E0F595E7958A95E1F703
:10065000E00FF11F8081880F481559056A057B0559
:1006600008F4816080832F5F3F4FF8E0EF0EF11CAC
:100670002832310581F6F801248130E04081818102
:1006800090E0840F911D4281840F911D4381840F5E
:10069000911D99272817390789F681E0818BC05C65
:1006A000DE4F0FB6F894DEBF0FBECDBFDF91CF9106
:1006B0001F910F91FF90EF90DF90CF90BF90AF9080
:1006C0009F908F900895CF92DF92EF92FF920F93B9
:1006D0001F93CF93DF93EC01162F642F0E946A02C1
:1006E000882309F444C08E818B3031F008F43FC078
:1006F0008551823040F03BC06A8170E080E090E03C
:100700000E940A0E25C00A81602F6F7770E080E09A
:1007100090E00E940C0E20E030E040E853E40E949C
:10072000C10E6B017C018B81682F70E080E090E04E
:100730000E940C0E9B01AC01C701B6010E94F10C96
:100740002DEC3CEC4CEC5DE30E94C10E07FD905893
:10075000112389F026E636E646EE5FE30E94C10EDD
:1007600020E030E040E052E40E94F10C04C060E080
:1007700070E080EC9FE7DF91CF911F910F91FF9088
:10078000EF90DF90CF900895CF92DF92EF92FF929B
:10079000CF93DF93EC0160E00E946A02882381F12D
:1007A0008E818B3031F160F18551823048F568815E
:1007B00070E080E090E00E940A0E20E030E040E827
:1007C00053E40E94C10E6B017C018981682F70E0A7
:1007D00080E090E00E940C0E9B01AC01C701B601C5
:1007E0000E94F10C2DEC3CEC4CEC5DE30E94C10E40
:1007F0000BC0688170E080E090E00E940A0E04C0A7
:1008000060E070E080EC9FE7DF91CF91FF90EF9088
:10081000DF90CF90089580E090E0089508951F92B2
:100820000F920FB60F9211242F938F939F93EF93F4
:10083000FF93E0919401F09195018081E0919A01FC
:10084000F0919B0182FD12C0908180919D018F5F8C
:100850008F7320919E01821751F0E0919D01F0E08D
:10086000EC57FE4F958F80939D0101C08081FF91D1
:10087000EF919F918F912F910F900FBE0F901F902E
:1008800018951F920F920FB60F9211242F933F933A
:100890004F935F936F937F938F939F93AF93BF9388
:1008A000EF93FF9384E891E00E94E904FF91EF91B8
:1008B000BF91AF919F918F917F916F915F914F9178
:1008C0003F912F910F900FBE0F901F90189584E8C5
:1008D00091E00E949E0421E0892B09F420E0822F00
:1008E0000895E4E8F1E01382128288EE93E0A0E03C
:1008F000B0E084839583A683B7838BE291E09183F4
:10090000808385EC90E09587848784EC90E09787DE
:10091000868780EC90E0918B808B81EC90E0938BCC
:10092000828B82EC90E0958B848B86EC90E0978BA9
:10093000868B118E128E138E148E0895FC01918D6C
:10094000228D892F90E0805C9F4F821B91098F73CD
:1009500099270895FC01918D828D981731F0828D31
:10096000E80FF11D858D90E008958FEF9FEF0895BA
:10097000FC01918D828D981761F0828DDF01A80FA7
:10098000B11D5D968C91928D9F5F9F73928F90E0C9
:1009900008958FEF9FEF0895FC01538D448D252F0F
:1009A00030E0842F90E0821B930B541710F0CF9609
:1009B00008950197089587E694E0892B49F080E037
:1009C00090E0892B29F00E94670481110C940000AB
:1009D0000895FC01848DDF01A80FB11DA35ABF4FFC
:1009E0002C91848D90E001968F739927848FA6892E
:1009F000B7892C93A089B1898C9180648C93938D55
:100A0000848D981306C00288F389E02D80818F7D44
:100A100080830895CF93DF93EC01888D8823C9F0FC
:100A2000EA89FB89808185FD05C0A889B9898C91F7
:100A300086FD0FC00FB607FCF5CF808185FFF2CF92
:100A4000A889B9898C9185FFEDCFCE010E94E90478
:100A5000E7CFDF91CF910895EF92FF920F931F930D
:100A6000CF93DF93EC0181E0888F9B8D8C8D981361
:100A700005C0E889F989808185FD24C0F62E0B8D9B
:100A800010E00F5F1F4F0F731127E02E8C8DE812BF
:100A90000CC00FB607FCFACFE889F989808185FF81
:100AA000F5CFCE010E94E904F1CF8B8DFE01E80F56
:100AB000F11DE35AFF4FF0820B8FEA89FB89808199
:100AC000806207C0EE89FF896083E889F9898081A7
:100AD0008064808381E090E0DF91CF911F910F913E
:100AE000FF90EF900895CF92DF92EF92FF921F93C5
:100AF000CF93DF93EC016A017B01122FE889F9891A
:100B000082E080834115514E61057105B1F060E0CE
:100B100079E08DE390E0A70196010E94330FDA019E
:100B2000C9010197A109B109B695A7959795879530
:100B3000AC01411580E15807A8F0E889F9891082D5
:100B400060E874E88EE190E0A70196010E94330FFF
:100B5000BA01A9014150510961097109769567955A
:100B600057954795EC85FD855083EE85FF8540833D
:100B7000188EEC89FD891083EA89FB898081806168
:100B80008083EA89FB89808188608083EA89FB8988
:100B9000808180688083EA89FB8980818F7D808362
:100BA000DF91CF911F91FF90EF90DF90CF9008954C
:100BB00008950E94DB0A0E94D8050E943301CBED04
:100BC000D4E00E946D012097E1F30E94DB04F9CF8D
:100BD000CF92DF92EF92FF920F931F93CF93DF9309
:100BE0006C017A018B01C0E0D0E0CE15DF0589F001
:100BF000D8016D918D01D601ED91FC910190F081AC
:100C0000E02DC6010995892B11F47E0102C02196C1
:100C1000ECCFC701DF91CF911F910F91FF90EF9023
:100C2000DF90CF9008956115710579F0FB01019077
:100C30000020E9F73197AF01461B570BDC01ED911E
:100C4000FC910280F381E02D099480E090E008950A
:100C50000C941306DC01ED91FC910190F081E02DE4
:100C6000099469E371E00C9413060F931F93CF93DB
:100C7000DF93EC010E9413068C01CE010E94310625
:100C8000800F911FDF91CF911F910F9108954F9287
:100C90005F926F927F92EF92FF920F931F93CF9389
:100CA000DF93CDB7DEB7A1970FB6F894DEBF0FBEC6
:100CB000CDBF7C01FA01CB0119A2223008F42AE051
:100CC0008E010F5D1F4F422E512C612C712CBF01E4
:100CD000A30192010E94330FF901CA0101501109C9
:100CE0006A3014F4605D01C0695CD8016C93232BF9
:100CF000242B252B61F7B801C7010E941306A1968A
:100D00000FB6F894DEBF0FBECDBFDF91CF911F911C
:100D10000F91FF90EF907F906F905F904F900895AC
:100D20004F925F926F927F928F929F92AF92BF92FB
:100D3000CF92DF92EF92FF92CF93DF93EC016A01A3
:100D40007B01B22E9A01AB01C701B6010E942E0FA2
:100D5000882319F06CE371E027C026013701E8947D
:100D600077F82FEF3FEF4FE75FE7C301B2010E9433
:100D70002E0F81110DC02FEF3FEF4FE75FE7C3014B
:100D8000B2010E945D0D18161CF460E471E00CC005
:100D90002FEF3FEF4FE75FE4C701B6010E94BC0EA3
:100DA00018169CF464E471E0CE01DF91CF91FF90BE
:100DB000EF90DF90CF90BF90AF909F908F907F90FB
:100DC0006F905F904F900C9413062FEF3FEF4FE71B
:100DD0005FECC701B6010E945D0D87FDE3CF20E007
:100DE00030E0A901C701B6010E945D0D87FF0AC06E
:100DF0006DE2CE010E942A064C01F7FAF094F7F852
:100E0000F09402C0812C912CA12C60E070E080E075
:100E10009FE3AB1441F020E030E040E251E40E9457
:100E2000620DA394F6CF9B01AC01C701B6010E94ED
:100E3000F10C2B013C010E94DB0D6B017C010E9437
:100E40000A0E9B01AC01C301B2010E94F00C2B0100
:100E50003C012AE0B701A601CE010E9447067C01B1
:100E6000E80CF91CBB2031F06EE2CE010E942A068C
:100E7000E80EF91EDB2CDD2029F120E030E040E215
:100E800051E4C301B2010E94C10E2B013C010E943A
:100E9000DB0D4B01A12CB12C2AE0B501A401CE0140
:100EA0000E944706E80EF91EC501B4010E940A0E11
:100EB0009B01AC01C301B2010E94F00C2B013C016B
:100EC000DA94D9CFC701DF91CF91FF90EF90DF90F7
:100ED000CF90BF90AF909F908F907F906F905F90DA
:100EE0004F9008950C949006FC01138212822CE41A
:100EF00031E0318320830895EF92FF920F931F9387
:100F0000CF93DF937C01C62F6EE370E081E292E025
:100F10000E944B098701D0E0C8018E199F098C17E8
:100F20009D0744F4F80161918F0181E292E00E94F3
:100F3000F808F2CF81E292E0DF91CF911F910F91FB
:100F4000FF90EF900C946009CF93DF9300D0CDB762
:100F5000DEB790E899838A8362E0CE0101960E9411
:100F60007C070F900F90DF91CF91089581E00E9450
:100F7000A40780ED97E00C94D00AFC019581892F9D
:100F800084608583892F8C600C94A407CF93DF93B2
:100F900000D0CDB7DEB7411102C0606801C0606CFF
:100FA00080E889836A8362E0CE0101960E947C0713
:100FB0000F900F90DF91CF910895CF93DF9300D0E2
:100FC000CDB7DEB780E489836A8362E0CE01019603
:100FD0000E947C0781E090E00F900F90DF91CF910D
:100FE00008951F93CF93DF931F92CDB7DEB7162FCF
:100FF00062E670E081E292E049830E944B09612F32
:1010000081E292E00E94F8084981642F81E292E037
:101010000E94F80881E292E00F90DF91CF911F913A
:101020000C946009EF92FF921F93CF93DF931F926E
:10103000CDB7DEB77C01142F462F64E029830E94D0
:10104000F107412F63E0C7010E94F1072981422F78
:1010500062E0C7010F90DF91CF911F91FF90EF9059
:101060000C94F1070F931F93CF93DF9300D0CDB76C
:10107000DEB78C0181E292E02A8349830E9437091E
:1010800049812A81423020F0F8018481886084837C
:10109000F80140871186222329F0413019F4848118
:1010A0008460848380E593EC0E94D00AF8018481F7
:1010B00080620E94A40784E991E10E94D00AF801AD
:1010C000848180620E94A40786E990E00E94D00A91
:1010D000F801848180620E94A407F8018481806203
:1010E0000E94A40784E0F8018583C8010E94BD071F
:1010F000C8010E94B60782E0F801868386E00E945C
:10110000A40740E060E0C8010E94F1074FEF68E0EB
:10111000C8010E94F10740E261E0C8010E94F107A6
:101120002FEF4FEF6FEFC8010F900F90DF91CF912E
:101130001F910F910C9412088091510290E0209120
:101140005202821B9109089590915202809151029E
:10115000981750F4E92FF0E0ED5AFD4F208130E070
:101160009F5F9093520202C02FEF3FEFC901089595
:10117000E091520280915102E81730F4F0E0ED5A0C
:10118000FD4F808190E008958FEF9FEF08950895BF
:10119000CF92DF92EF92FF920F931F93CF93DF9343
:1011A0007C01262F972F8A0180912D02882391F0B0
:1011B000C62FD72F6E01C40ED51ECC15DD0571F0DC
:1011C0006991D701ED91FC910190F081E02DC7016B
:1011D0000995F3CF642F822F0E948B0BC801DF91FA
:1011E000CF911F910F91FF90EF90DF90CF900895D6
:1011F000CF93DF931F92CDB7DEB7698320912D0285
:101200002223D1F020912E02203240F021E030E064
:10121000FC013383228380E090E015C080912F028F
:10122000E82FF0E0E05DFD4F998190838F5F809320
:101230002F0280932E0205C061E0CE0101960E942C
:101240008B0B81E090E00F90DF91CF910895FC012E
:101250001382128288EE93E0A0E0B0E0848395834D
:10126000A683B78388E591E09183808308951092E7
:1012700052021092510210922F0210922E020C94E0
:10128000170B81E080932D026093500210922F0281
:1012900010922E0208950C9441090F93062F21E01D
:1012A00040912E0260E372E0809150020E94350B63
:1012B00010922F0210922E0210922D020F9108957B
:1012C00061E00C944D0981E292E00C9427098E3084
:1012D00008F08E5087702091000190E4299F9001C2
:1012E0001124822B80937C0080917A00806480930B
:1012F0007A0080917A0086FDFCCF80917800209161
:10130000790090E0922B0895833081F028F48130A9
:1013100099F08230A1F008958730A9F08830B9F0B3
:101320008430D1F4809180008F7D03C08091800053
:101330008F7780938000089584B58F7702C084B53D
:101340008F7D84BD08958091B0008F7703C0809118
:10135000B0008F7D8093B0000895CF93DF9390E02D
:10136000FC01E458FF4F2491FC01E057FF4F8491AA
:10137000882361F190E0880F991FFC01E854FF4F2A
:10138000C591D491FC01E255FF4FA591B491611133
:1013900009C09FB7F8948881209582238883EC91B7
:1013A0002E230BC0623061F49FB7F8943881822FEE
:1013B000809583238883EC912E2B2C939FBF06C0AE
:1013C0008FB7F894E8812E2B28838FBFDF91CF91C0
:1013D00008951F93CF93DF93282F30E0F901E85948
:1013E000FF4F8491F901E458FF4FD491F901E05780
:1013F000FF4FC491CC23C9F0162F81110E9484099C
:10140000EC2FF0E0EE0FFF1FE255FF4FA591B491D6
:101410008FB7F894111105C09C91ED2FE095E92349
:1014200002C0EC91ED2BEC938FBFDF91CF911F9118
:1014300008951F920F920FB60F9211242F933F938E
:101440008F939F93AF93BF93809174029091750295
:10145000A0917602B09177023091730223E0230FBE
:101460002D3720F40196A11DB11D05C026E8230FDC
:101470000296A11DB11D2093730280937402909374
:101480007502A0937602B0937702809178029091D2
:101490007902A0917A02B0917B020196A11DB11D43
:1014A0008093780290937902A0937A02B0937B02A2
:1014B000BF91AF919F918F913F912F910F900FBE50
:1014C0000F901F9018952FB7F89460917402709147
:1014D000750280917602909177022FBF08953FB7F1
:1014E000F8948091780290917902A0917A02B0915B
:1014F0007B0226B5A89B05C02F3F19F00196A11DC0
:10150000B11D3FBFBA2FA92F982F8827820F911D99
:10151000A11DB11DBC01CD0142E0660F771F881FE0
:10152000991F4A95D1F708958F929F92AF92BF92DB
:10153000CF92DF92EF92FF926B017C010E946F0AC3
:101540004B015C01C114D104E104F10401F10E94DA
:10155000160B0E946F0ADC01CB0188199909AA09B0
:10156000BB09883E9340A105B10560F321E0C21A92
:10157000D108E108F10888EE880E83E0981EA11CCE
:10158000B11CC114D104E104F10419F7DBCFFF90C1
:10159000EF90DF90CF90BF90AF909F908F90089585
:1015A0008230910538F0880F991F880F991F059791
:1015B0000197F1F70895789484B5826084BD84B56D
:1015C000816084BD85B5826085BD85B5816085BD3E
:1015D000EEE6F0E0808181608083E1E8F0E0108257
:1015E000808182608083808181608083E0E8F0E098
:1015F000808181608083E1EBF0E080818460808382
:10160000E0EBF0E0808181608083EAE7F0E08081B8
:101610008460808380818260808380818160808318
:101620008081806880831092C1000895089510928F
:10163000E90281E08093E7021092E60261E082E134
:101640000E94E90961E083E10E94E909E9EBF0E029
:1016500080818E7F808380818D7F808388E48093EA
:10166000B80085E48093BC0008950F93413208F0E0
:101670004AC09091E9029111FCCF32E03093E90227
:101680000093E7023FEF30937C021092C102409337
:10169000C002FB0162EC72E0DB013A2F361B34170B
:1016A00018F431913D93F9CF1092E8023091E8029D
:1016B000880F832B8093E8028091E602813061F4E9
:1016C0001092E6028091E8028093BB008091BC00FA
:1016D00083FDF8CF85EC01C085EE8093BC0022230A
:1016E00021F08091E9028230D1F380917C028F3F1A
:1016F00079F080917C02803241F080917C028033CD
:1017000031F094E005C091E003C092E001C093E0A5
:10171000892F0F91089540919E02262F30E0240FCB
:10172000311D21323105DCF42091E9022430C9F465
:10173000FC0180E090E0861758F430919E022191E0
:10174000DC01A056BD4FA30FB11D2C930196F3CF22
:1017500080919E02680F60939E0280E0089581E070
:10176000089582E0089585ED8093BC008091BC00CF
:1017700084FDFCCF1092E902089585EC8093BC00B3
:101780001092E90208951F920F920FB60F92112442
:101790002F933F934F935F936F937F938F939F9379
:1017A000AF93BF93EF93FF938091B900887F80360A
:1017B00009F49EC078F5883209F45DC090F4803158
:1017C00009F456C038F4882309F4F5C0883009F4C8
:1017D0004FC0F5C0883109F44EC0803209F45FC0B3
:1017E000EEC0803409F46AC058F4803309F457C05D
:1017F000883309F0E4C080937C020E94BD0BDFC0F7
:10180000803509F44FC0883509F45DC0883409F08B
:10181000D6C0D3C0883909F4C4C0A8F4883709F405
:1018200067C038F4883609F463C0803709F460C0B3
:10183000C6C0883809F4B5C0803909F45FC0803863
:1018400009F0BDC05BC0803B09F483C038F4803A26
:1018500009F466C0883A09F47CC0B1C0803C09F440
:10186000A4C0883C09F4A1C0883B09F487C0A7C084
:101870008091E80210C09091C1028091C002981737
:1018800070F5E091C10281E08E0F8093C102F0E01B
:10189000EE53FD4F80818093BB0085EC83C0809325
:1018A0007C028BC0E091C10281E08E0F8093C10267
:1018B0008091BB00F0E0EE53FD4F80839091C10218
:1018C0008091C0026BC0E091C10281E08E0F8093D5
:1018D000C1028091BB00F0E0EE53FD4F8083809108
:1018E000E70281116AC081E08093E60284EA5EC06B
:1018F00083E08093E90210927D02CFCF80917D0238
:10190000803208F04EC0E0917D0281E08E0F80931E
:101910007D028091BB00F0E0E258FD4F8083BDCF97
:101920000E94BD0B80917D02803230F4E0917D02F7
:10193000F0E0E258FD4F108260917D0270E0E0918E
:10194000E202F091E3028EE792E0099510927D02A7
:1019500036C084E08093E90210929F0210929E02AA
:10196000E091E402F091E502099580919E028111D7
:1019700005C081E080939E021092A002E0919F0238
:1019800081E08E0F80939F02F0E0E056FD4F808152
:101990008093BB0090919F0280919E02981708F45B
:1019A0007CCF85E88093BC000AC085EC8093BC00A6
:1019B0001092E90204C010927C020E94B30BFF91C6
:1019C000EF91BF91AF919F918F917F916F915F91B7
:1019D0004F913F912F910F900FBE0F901F90189530
:1019E0005058BB27AA270E94080D0C94820E0E9413
:1019F000740E38F00E947B0E20F039F49F3F19F4EA
:101A000026F40C94710E0EF4E095E7FB0C946B0E2B
:101A1000E92F0E94930E58F3BA17620773078407E1
:101A2000950720F079F4A6F50C94B50E0EF4E09528
:101A30000B2EBA2FA02D0B01B90190010C01CA0188
:101A4000A0011124FF27591B99F0593F50F4503E33
:101A500068F11A16F040A22F232F342F4427585F25
:101A6000F3CF469537952795A795F0405395C9F73D
:101A70007EF41F16BA0B620B730B840BBAF09150F5
:101A8000A1F0FF0FBB1F661F771F881FC2F70EC094
:101A9000BA0F621F731F841F48F487957795679567
:101AA000B795F7959E3F08F0B0CF9395880F08F053
:101AB0009927EE0F9795879508950E94470E08F491
:101AC00081E008950E94760D0C94820E0E947B0E98
:101AD00058F00E94740E40F029F45F3F29F00C94F6
:101AE0006B0E51110C94B60E0C94710E0E94930E55
:101AF00068F39923B1F3552391F3951B550BBB273D
:101B0000AA2762177307840738F09F5F5F4F220F81
:101B1000331F441FAA1FA9F335D00E2E3AF0E0E878
:101B200032D091505040E695001CCAF72BD0FE2FC2
:101B300029D0660F771F881FBB1F26173707480756
:101B4000AB07B0E809F0BB0B802DBF01FF2793580E
:101B50005F4F3AF09E3F510578F00C946B0E0C9459
:101B6000B60E5F3FE4F3983ED4F38695779567957C
:101B7000B795F7959F5FC9F7880F911D9695879543
:101B800097F90895E1E0660F771F881FBB1F621762
:101B900073078407BA0720F0621B730B840BBA0B20
:101BA000EE1F88F7E09508950E94DB0D6894B1114F
:101BB0000C94B60E08950E949B0E88F09F5798F0E3
:101BC000B92F9927B751B0F0E1F0660F771F881F42
:101BD000991F1AF0BA95C9F714C0B13091F00E945C
:101BE000B50EB1E008950C94B50E672F782F8827B5
:101BF000B85F39F0B93FCCF3869577956795B39583
:101C0000D9F73EF490958095709561957F4F8F4FF1
:101C10009F4F0895E89409C097FB3EF490958095F6
:101C2000709561957F4F8F4F9F4F9923A9F0F92FA2
:101C300096E9BB279395F695879577956795B79520
:101C4000F111F8CFFAF4BB0F11F460FF1BC06F5F06
:101C50007F4F8F4F9F4F16C0882311F096E911C018
:101C6000772321F09EE8872F762F05C0662371F039
:101C700096E8862F70E060E02AF09A95660F771F4D
:101C8000881FDAF7880F9695879597F90895990F29
:101C90000008550FAA0BE0E8FEEF16161706E80736
:101CA000F907C0F012161306E407F50798F0621B57
:101CB000730B840B950B39F40A2661F0232B242B2C
:101CC000252B21F408950A2609F4A140A6958FEF4B
:101CD000811D811D089597F99F6780E870E060E09D
:101CE00008959FEF80EC089500240A9416161706B5
:101CF00018060906089500240A94121613061406FD
:101D000005060895092E0394000C11F4882352F05F
:101D1000BB0F40F4BF2B11F460FF04C06F5F7F4F17
:101D20008F4F9F4F089557FD9058440F551F59F0FE
:101D30005F3F71F04795880F97FB991F61F09F3FB8
:101D400079F087950895121613061406551FF2CFE1
:101D50004695F1DF08C0161617061806991FF1CF31
:101D600086957105610508940895E894BB27662758
:101D70007727CB0197F908950E94470E08F48FEF5B
:101D800008950E94D40E0C94820E0E94740E38F0B6
:101D90000E947B0E20F0952311F00C946B0E0C9496
:101DA000710E11240C94B60E0E94930E70F3959F41
:101DB000C1F3950F50E0551F629FF001729FBB2742
:101DC000F00DB11D639FAA27F00DB11DAA1F649FDE
:101DD0006627B00DA11D661F829F2227B00DA11D91
:101DE000621F739FB00DA11D621F839FA00D611D17
:101DF000221F749F3327A00D611D231F849F600D38
:101E0000211D822F762F6A2F11249F5750409AF060
:101E1000F1F088234AF0EE0FFF1FBB1F661F771FEC
:101E2000881F91505040A9F79E3F510580F00C94B7
:101E30006B0E0C94B60E5F3FE4F3983ED4F3869598
:101E400077956795B795F795E7959F5FC1F7FE2B57
:101E5000880F911D9695879597F908950E94470ED2
:101E6000880B990B0895A1E21A2EAA1BBB1BFD013A
:101E70000DC0AA1FBB1FEE1FFF1FA217B307E40769
:101E8000F50720F0A21BB30BE40BF50B661F771FC1
:101E9000881F991F1A9469F76095709580959095A1
:101EA0009B01AC01BD01CF010895EE0FFF1F05900E
:0A1EB000F491E02D0994F894FFCF9F
:101EBA0001543A002C20483A20002C20533A2000A2
:101ECA00506F6D7065206F6E00506F6D7065206F7A
:101EDA00666600543A2000000000002C05E805CC94
:101EEA00040A059E04B804AA040D0A006E616E0075
:101EFA00696E66006F76660000000000DD07E8057F
:101F0A000B040E0400000000F808C8080B04C708F8
:061F1A009C08A408B808B1
:00000001FF
