:100000000C9464000C948C000C948C000C948C0068
:100010000C948C000C948C000C948C000C948C0030
:100020000C948C000C948C000C948C000C948C0020
:100030000C948C000C948C000C948C000C948C0010
:100040000C94E7070C948C000C94E2030C941404B9
:100050000C948C000C948C000C948C000C948C00F0
:100060000C94840B0C948C0000000008000201002A
:100070000003040700000000000000000102040863
:100080001020408001020408102001020408102002
:10009000040404040404040402020202020203032E
:1000A00003030303000000002300260029000000D2
:1000B0000000250028002B0000000000240027007D
:1000C0002A00BF014404D30A11241FBECFEFD8E099
:1000D000DEBFCDBF11E0A0E0B1E0ECE3FEE102C085
:1000E00005900D92A036B107D9F722E0A0E6B1E065
:1000F00001C01D92AE3EB207E1F710E0C4E6D0E0C9
:1001000004C02197FE010E94160FC136D107C9F71E
:100110000E94AC050C941C0F0C9400008F929F92CF
:10012000AF92BF92CF92DF92EF92FF924B015C01B0
:100130000E9431080E94CB0D6B017C0120E030E071
:100140004AE754E4C501B4010E94820E9B01AC0150
:10015000C701B6010E94B20C0E94950D6B017C0193
:100160000E9431086C157D058E059F05C8F3FF9030
:10017000EF90DF90CF90BF90AF909F908F900895B9
:1001800020E042E060E180E691E00E94A20960E0A8
:1001900080E00E947B0761E082E00E947B0726E00E
:1001A00040E052EC61E070E088E891E00E94460592
:1001B00060E070E080E89FE30C948E0040E060E037
:1001C0008AE691E00E943603609384017093850172
:1001D000809386019093870160E08AE691E00E9417
:1001E00097036093800170938101809382019093C3
:1001F000830180E00E943507BC01990F880B990BA1
:100200000E94CD0D60937C0170937D0180937E01EF
:1002100090937F0161E071E088E891E00E94FB0526
:100220004091840150918501609186017091870110
:1002300022E030E088E891E00E94330764E071E05A
:1002400088E891E00E94FB05409180015091810176
:10025000609182017091830122E030E088E891E0B2
:100260000E9433076AE071E088E891E00E94FB0594
:1002700040917C0150917D0160917E0170917F01E0
:1002800022E030E088E891E00E94330740E060E03F
:1002900080E691E00E94360960E171E080E691E03D
:1002A0000E94FB0540918401509185016091860177
:1002B0007091870122E030E080E691E00E943307F0
:1002C00065E071E080E691E00E94FB0540918001CD
:1002D00050918101609182017091830122E030E0B0
:1002E00080E691E00E94330741E060E080E691E023
:1002F0000E9436096CE071E080E691E00E94FB0507
:1003000040917C0150917D0160917E0170917F014F
:1003100022E030E080E691E00E94330764E171E082
:1003200088E891E00E94FB0520E030E04AEF53E4CA
:1003300060917C0170917D0180917E0190917F019F
:100340000E941E0D87FF07C061E082E00E94B70790
:100350006AE171E006C060E082E00E94B7076DE1EB
:1003600071E088E891E00E94FB0588E891E00E9436
:1003700004066DEC7CEC8CEC9EE30C948E0026E085
:100380004BE064E08AE691E00E94CA0180E691E0D9
:100390000C94E408DC0115966C93159716964C9313
:1003A000169770E0FB01E458FF4FE4911796EC9329
:1003B0001797FB01E057FF4F649118966C931897BD
:1003C00040E85EE360E070E01D964D935D936D93B1
:1003D0007C93509708958F929F92AF92BF92CF9245
:1003E000DF92EF92FF920F931F93CF93DC0117964A
:1003F000CC911797662311F08C2F01C080E01896DE
:100400002C91189730E0220F331F2C553F4F40E0BE
:1004100050E0BA01F90105911491F80190819C23F3
:10042000981315C06A017B019FEFC91AD90AE90A1E
:10043000F90A1D968D909D90AD90BC9050974815EF
:1004400059056A057B0538F4B701A601E3CF342FBF
:10045000252FCB0104C030E020E080E090E0632F46
:10046000722FCF911F910F91FF90EF90DF90CF905F
:10047000BF90AF909F908F9008958F929F92AF9270
:10048000BF92CF92DF92EF92FF920F931F93CF9381
:10049000DF93CDB7DEB7C054D1400FB6F894DEBFBE
:1004A0000FBECDBF8C01F62E0E943108F11016C090
:1004B000F801C184D284E384F4849B01AC012C193B
:1004C0003D094E095F0969017A0130EDC31637E035
:1004D000D306E104F10410F48189B4C0F801618706
:1004E000728783879487148213821282118210820A
:1004F00061E085810E94B7076AEF70E080E090E0DC
:100500000E94620861E0F80185810E947B0760E03B
:10051000F80185810E94B70764E170E080E090E017
:100520000E946208F89461E0F80185810E94B70793
:1005300088E290E00E949E0862E0F80185810E94B6
:100540007B078AE090E00E949E0860E0C8010E945C
:10055000EB01672B682B692B21F4F801118A789441
:1005600042C061E0C8010E94EB01672B682B692B38
:10057000A1F39E012F5F3F4F79015E013FEBA31A6C
:100580003EEFB30A670160E0C8010E94EB01F6018B
:10059000608371838283938361E0C8010E94EB01D1
:1005A000F6016483758386839783F8E0CF0ED11CB0
:1005B000CA14DB0441F7789420E030E0F701408171
:1005C00051816281738184809580A680B7804115B6
:1005D00051056105710529F081149104A104B1044C
:1005E00021F4F801118A80E02DC0F90183E0F5952E
:1005F000E7958A95E1F7E00FF11F8081880F481594
:1006000059056A057B0508F4816080832F5F3F4FA1
:10061000F8E0EF0EF11C2832310581F6F801248153
:1006200030E04081818190E0840F911D4281840FF0
:10063000911D4381840F911D99272817390789F649
:1006400081E0818BC05CDE4F0FB6F894DEBF0FBE39
:10065000CDBFDF91CF911F910F91FF90EF90DF9071
:10066000CF90BF90AF909F908F900895CF92DF92E0
:10067000EF92FF920F931F93CF93DF93EC01162F0E
:10068000642F0E943D02882309F444C08E818B3080
:1006900031F008F43FC08551823040F03BC06A81A0
:1006A00070E080E090E00E94CB0D25C00A81602FB1
:1006B0006F7770E080E090E00E94CD0D20E030E0A8
:1006C00040E853E40E94820E6B017C018B81682F0D
:1006D00070E080E090E00E94CD0D9B01AC01C7016D
:1006E000B6010E94B20C2DEC3CEC4CEC5DE30E9498
:1006F000820E07FD9058112389F026E636E646EE75
:100700005FE30E94820E20E030E040E052E40E946D
:10071000B20C04C060E070E080EC9FE7DF91CF9105
:100720001F910F91FF90EF90DF90CF900895CF929F
:10073000DF92EF92FF92CF93DF93EC0160E00E9493
:100740003D02882381F18E818B3031F160F185513A
:10075000823048F5688170E080E090E00E94CB0D27
:1007600020E030E040E853E40E94820E6B017C01FF
:100770008981682F70E080E090E00E94CD0D9B01A0
:10078000AC01C701B6010E94B20C2DEC3CEC4CEC64
:100790005DE30E94820E0BC0688170E080E090E013
:1007A0000E94CB0D04C060E070E080EC9FE7DF9119
:1007B000CF91FF90EF90DF90CF90089580E090E090
:1007C000089508951F920F920FB60F9211242F9340
:1007D0008F939F93EF93FF93E0919801F09199018C
:1007E0008081E0919E01F0919F0182FD12C0908175
:1007F0008091A1018F5F8F732091A201821751F028
:10080000E091A101F0E0E857FE4F958F8093A101A0
:1008100001C08081FF91EF919F918F912F910F9057
:100820000FBE0F901F9018951F920F920FB60F9248
:1008300011242F933F934F935F936F937F938F93E5
:100840009F93AF93BF93EF93FF9388E891E00E944B
:10085000BC04FF91EF91BF91AF919F918F917F91D8
:100860006F915F914F913F912F910F900FBE0F901D
:100870001F90189588E891E00E94710421E0892B6F
:1008800009F420E0822F0895E8E8F1E01382128253
:1008900088EE93E0A0E0B0E084839583A683B783DD
:1008A00084E291E09183808385EC90E09587848752
:1008B00084EC90E09787868780EC90E0918B808B2A
:1008C00081EC90E0938B828B82EC90E0958B848B13
:1008D00086EC90E0978B868B118E128E138E148E81
:1008E0000895FC01918D228D892F90E0805C9F4FAF
:1008F000821B91098F7399270895FC01918D828D38
:10090000981731F0828DE80FF11D858D90E00895E4
:100910008FEF9FEF0895FC01918D828D981761F004
:10092000828DDF01A80FB11D5D968C91928D9F5F26
:100930009F73928F90E008958FEF9FEF0895FC01D1
:10094000538D448D252F30E0842F90E0821B930B34
:10095000541710F0CF960895019708958AE394E014
:10096000892B49F080E090E0892B29F00E943A041D
:1009700081110C9400000895FC01848DDF01A80F03
:10098000B11DA35ABF4F2C91848D90E001968F73B7
:100990009927848FA689B7892C93A089B1898C91D6
:1009A00080648C93938D848D981306C00288F3899C
:1009B000E02D80818F7D80830895CF93DF93EC01BC
:1009C000888D8823C9F0EA89FB89808185FD05C06F
:1009D000A889B9898C9186FD0FC00FB607FCF5CFA9
:1009E000808185FFF2CFA889B9898C9185FFEDCFF1
:1009F000CE010E94BC04E7CFDF91CF910895EF9222
:100A0000FF920F931F93CF93DF93EC0181E0888FC8
:100A10009B8D8C8D981305C0E889F989808185FDAF
:100A200024C0F62E0B8D10E00F5F1F4F0F731127A0
:100A3000E02E8C8DE8120CC00FB607FCFACFE889C7
:100A4000F989808185FFF5CFCE010E94BC04F1CFEA
:100A50008B8DFE01E80FF11DE35AFF4FF0820B8FE3
:100A6000EA89FB898081806207C0EE89FF89608303
:100A7000E889F98980818064808381E090E0DF915A
:100A8000CF911F910F91FF90EF900895CF92DF9239
:100A9000EF92FF921F93CF93DF93EC016A017B01EA
:100AA000122FE889F98982E080834115514E610552
:100AB0007105B1F060E079E08DE390E0A701960167
:100AC0000E94F40EDA01C9010197A109B109B69596
:100AD000A79597958795AC01411580E15807A8F037
:100AE000E889F989108260E874E88EE190E0A70156
:100AF00096010E94F40EBA01A90141505109610901
:100B000071097695679557954795EC85FD855083D6
:100B1000EE85FF854083188EEC89FD891083EA8974
:100B2000FB89808180618083EA89FB89808188607C
:100B30008083EA89FB89808180688083EA89FB89D8
:100B400080818F7D8083DF91CF911F91FF90EF9007
:100B5000DF90CF90089508950E94A9080E94AB05E8
:100B60000E94C000CEEAD4E00E94DE002097E1F3AC
:100B70000E94AE04F9CFCF92DF92EF92FF920F93D3
:100B80001F93CF93DF936C017A018B01C0E0D0E01B
:100B9000CE15DF0589F0D8016D918D01D601ED915B
:100BA000FC910190F081E02DC6010995892B11F48B
:100BB0007E0102C02196ECCFC701DF91CF911F913A
:100BC0000F91FF90EF90DF90CF9008956115710520
:100BD00079F0FB0101900020E9F73197AF01461B46
:100BE000570BDC01ED91FC910280F381E02D09941B
:100BF00080E090E008950C94E605DC01ED91FC9115
:100C00000190F081E02D099462E371E00C94E60517
:100C10004F925F926F927F92EF92FF920F931F938A
:100C2000CF93DF93CDB7DEB7A1970FB6F894DEBFB1
:100C30000FBECDBF7C01FA01CB0119A2223008F40E
:100C40002AE08E010F5D1F4F422E512C612C712C1A
:100C5000BF01A30192010E94F40EF901CA010150E3
:100C600011096A3014F4605D01C0695CD8016C93AD
:100C7000232B242B252B61F7B801C7010E94E60521
:100C8000A1960FB6F894DEBF0FBECDBFDF91CF9116
:100C90001F910F91FF90EF907F906F905F904F901A
:100CA00008954F925F926F927F928F929F92AF9230
:100CB000BF92CF92DF92EF92FF92CF93DF93EC013E
:100CC0006A017B01B22E9A01AB01C701B6010E94F5
:100CD000EF0E882319F065E371E027C02601370184
:100CE000E89477F82FEF3FEF4FE75FE7C301B201DA
:100CF0000E94EF0E81110DC02FEF3FEF4FE75FE72E
:100D0000C301B2010E941E0D18161CF469E371E0C4
:100D10000CC02FEF3FEF4FE75FE4C701B6010E9421
:100D20007D0E18169CF46DE371E0CE01DF91CF913A
:100D3000FF90EF90DF90CF90BF90AF909F908F90FB
:100D40007F906F905F904F900C94E6052FEF3FEFF0
:100D50004FE75FECC701B6010E941E0D87FDE3CF90
:100D600020E030E0A901C701B6010E941E0D87FFF7
:100D70000AC06DE2CE010E94FD054C01F7FAF09425
:100D8000F7F8F09402C0812C912CA12C60E070E067
:100D900080E09FE3AB1441F020E030E040E251E41A
:100DA0000E94230DA394F6CF9B01AC01C701B601AD
:100DB0000E94B20C2B013C010E949C0D6B017C0136
:100DC0000E94CB0D9B01AC01C301B2010E94B10C8A
:100DD0002B013C012AE0B701A601CE010E940806C2
:100DE0007C01E80CF91CBB2031F06EE2CE010E94C0
:100DF000FD05E80EF91EDB2CDD2029F120E030E0B6
:100E000040E251E4C301B2010E94820E2B013C0179
:100E10000E949C0D4B01A12CB12C2AE0B501A4012C
:100E2000CE010E940806E80EF91EC501B4010E9419
:100E3000CB0D9B01AC01C301B2010E94B10C2B018F
:100E40003C01DA94D9CFC701DF91CF91FF90EF90A9
:100E5000DF90CF90BF90AF909F908F907F906F90DA
:100E60005F904F9008950C9451068E3008F08E508C
:100E700087702091000190E4299F90011124822B1A
:100E800080937C0080917A00806480937A008091C6
:100E90007A0086FDFCCF809178002091790090E067
:100EA000922B0895833081F028F4813099F08230BC
:100EB000A1F008958730A9F08830B9F08430D1F4DA
:100EC000809180008F7D03C0809180008F77809318
:100ED0008000089584B58F7702C084B58F7D84BD6E
:100EE00008958091B0008F7703C08091B0008F7D0E
:100EF0008093B0000895CF93DF9390E0FC01E45815
:100F0000FF4F2491FC01E057FF4F8491882361F14A
:100F100090E0880F991FFC01E854FF4FC591D491D0
:100F2000FC01E255FF4FA591B491611109C09FB733
:100F3000F8948881209582238883EC912E230BC01E
:100F4000623061F49FB7F8943881822F80958323B3
:100F50008883EC912E2B2C939FBF06C08FB7F894FB
:100F6000E8812E2B28838FBFDF91CF9108951F93A7
:100F7000CF93DF93282F30E0F901E859FF4F849198
:100F8000F901E458FF4FD491F901E057FF4FC491A4
:100F9000CC23C9F0162F81110E945207EC2FF0E0EC
:100FA000EE0FFF1FE255FF4FA591B4918FB7F89454
:100FB000111105C09C91ED2FE095E92302C0EC9141
:100FC000ED2BEC938FBFDF91CF911F9108951F926E
:100FD0000F920FB60F9211242F933F938F939F93ED
:100FE000AF93BF938091260290912702A09128028F
:100FF000B09129023091250223E0230F2D3720F4F0
:101000000196A11DB11D05C026E8230F0296A11D62
:10101000B11D209325028093260290932702A0936E
:101020002802B093290280912A0290912B02A0916C
:101030002C02B0912D020196A11DB11D80932A02B0
:1010400090932B02A0932C02B0932D02BF91AF91ED
:101050009F918F913F912F910F900FBE0F901F90F6
:1010600018952FB7F894609126027091270280910D
:101070002802909129022FBF08953FB7F8948091DC
:101080002A0290912B02A0912C02B0912D0226B53C
:10109000A89B05C02F3F19F00196A11DB11D3FBFB0
:1010A000BA2FA92F982F8827820F911DA11DB11D3E
:1010B000BC01CD0142E0660F771F881F991F4A953A
:1010C000D1F708958F929F92AF92BF92CF92DF9205
:1010D000EF92FF926B017C010E943D084B015C0185
:1010E000C114D104E104F10401F10E94D70A0E9465
:1010F0003D08DC01CB0188199909AA09BB09883E82
:101100009340A105B10560F321E0C21AD108E108BE
:10111000F10888EE880E83E0981EA11CB11CC11452
:10112000D104E104F10419F7DBCFFF90EF90DF90D9
:10113000CF90BF90AF909F908F900895823091058F
:1011400038F0880F991F880F991F05970197F1F7BD
:101150000895789484B5826084BD84B5816084BD2F
:1011600085B5826085BD85B5816085BDEEE6F0E020
:10117000808181608083E1E8F0E01082808182607C
:101180008083808181608083E0E8F0E080818160FD
:101190008083E1EBF0E0808184608083E0EBF0E02D
:1011A000808181608083EAE7F0E0808184608083D1
:1011B000808182608083808181608083808180687B
:1011C00080831092C1000895FC011382128225E4ED
:1011D00031E0318320830895EF92FF920F931F93A4
:1011E000CF93DF937C01C62F6EE370E08EE292E036
:1011F0000E94BB0A8701D0E0C8018E199F098C1795
:101200009D0744F4F80161918F018EE292E00E9403
:10121000680AF2CF8EE292E0DF91CF911F910F9199
:10122000FF90EF900C94D00ACF93DF9300D0CDB70E
:10123000DEB790E899838A8362E0CE0101960E942E
:10124000EC080F900F90DF91CF91089581E00E94FC
:10125000140980ED97E00C949E08FC019581892F7C
:1012600084608583892F8C600C941409CF93DF935D
:1012700000D0CDB7DEB7411102C0606801C0606C1C
:1012800080E889836A8362E0CE0101960E94EC08BF
:101290000F900F90DF91CF910895CF93DF9300D0FF
:1012A000CDB7DEB780E489836A8362E0CE01019620
:1012B0000E94EC0881E090E00F900F90DF91CF91B9
:1012C00008951F93CF93DF931F92CDB7DEB7162FEC
:1012D00062E670E08EE292E049830E94BB0A612FD1
:1012E0008EE292E00E94680A4981642F8EE292E0C9
:1012F0000E94680A8EE292E00F90DF91CF911F91D9
:101300000C94D00AEF92FF921F93CF93DF931F921A
:10131000CDB7DEB77C01142F462F64E029830E94ED
:101320006109412F63E0C7010E9461092981422FB1
:1013300062E0C7010F90DF91CF911F91FF90EF9076
:101340000C9461090F931F93CF93DF9300D0CDB717
:10135000DEB78C018EE292E02A8349830E94A70ABD
:1013600049812A81423020F0F80184818860848399
:10137000F80140871186222329F0413019F4848135
:101380008460848380E593EC0E949E08F801848148
:1013900080620E94140984E991E10E949E08F8018C
:1013A000848180620E94140986E990E00E949E0870
:1013B000F801848180620E941409F80184818062AE
:1013C0000E94140984E0F8018583C8010E942D0958
:1013D000C8010E94260982E0F801868386E00E9407
:1013E000140940E060E0C8010E9461094FEF68E025
:1013F000C8010E94610940E261E0C8010E946109E0
:101400002FEF4FEF6FEFC8010F900F90DF91CF914B
:101410001F910F910C94820980915E0290E02091BF
:101420005F02821B9109089590915F0280915E0294
:10143000981750F4E92FF0E0E05AFD4F208130E09A
:101440009F5F90935F0202C02FEF3FEFC9010895A5
:10145000E0915F0280915E02E81730F4F0E0E05A1C
:10146000FD4F808190E008958FEF9FEF08950895DC
:10147000CF92DF92EF92FF920F931F93CF93DF9360
:101480007C01262F972F8A0180913A02882391F0C0
:10149000C62FD72F6E01C40ED51ECC15DD0571F0F9
:1014A0006991D701ED91FC910190F081E02DC70188
:1014B0000995F3CF642F822F0E944C0BC801DF9156
:1014C000CF911F910F91FF90EF90DF90CF900895F3
:1014D000CF93DF931F92CDB7DEB7698320913A0295
:1014E0002223D1F020913B02203240F021E030E075
:1014F000FC013383228380E090E015C080913C02A0
:10150000E82FF0E0E35CFD4F998190838F5F80933B
:101510003C0280933B0205C061E0CE0101960E942F
:101520004C0B81E090E00F90DF91CF910895FC018A
:101530001382128288EE93E0A0E0B0E0848395836A
:10154000A683B78381E591E091838083089510920B
:101550005F0210925E0210923C0210923B020C94C9
:10156000D80A81E080933A0260935D0210923C02B7
:1015700010923B0208950C94B10A0F93062F21E0BC
:1015800040913B026DE372E080915D020E94F60A99
:1015900010923C0210923B0210923A020F91089571
:1015A00061E00C94BD0A8EE292E00C94970A0895D3
:1015B0001092ED0281E08093EB021092EA0261E06A
:1015C00082E10E94B70761E083E10E94B707E9EB7F
:1015D000F0E080818E7F808380818D7F808388E4AE
:1015E0008093B80085E48093BC0008950F93413246
:1015F00008F04AC09091ED029111FCCF32E0309397
:10160000ED020093EB023FEF309380021092C5028F
:101610004093C402FB0166EC72E0DB013A2F361BFB
:10162000341718F431913D93F9CF1092EC023091B8
:10163000EC02880F832B8093EC028091EA028130C8
:1016400061F41092EA028091EC028093BB008091D9
:10165000BC0083FDF8CF85EC01C085EE8093BC0013
:10166000222321F08091ED028230D1F3809180021B
:101670008F3F79F080918002803241F0809180022A
:10168000803331F094E005C091E003C092E001C0E6
:1016900093E0892F0F9108954091A202262F30E008
:1016A000240F311D21323105DCF42091ED0224306C
:1016B000C9F4FC0180E090E0861758F43091A20252
:1016C0002191DC01AC55BD4FA30FB11D2C930196A8
:1016D000F3CF8091A202680F6093A20280E0089588
:1016E00081E0089582E0089585ED8093BC008091AB
:1016F000BC0084FDFCCF1092ED02089585EC809330
:10170000BC001092ED0208951F920F920FB60F9237
:1017100011242F933F934F935F936F937F938F93F6
:101720009F93AF93BF93EF93FF938091B900887F0E
:10173000803609F49EC078F5883209F45DC090F4D3
:10174000803109F456C038F4882309F4F5C0883094
:1017500009F44FC0F5C0883109F44EC0803209F455
:101760005FC0EEC0803409F46AC058F4803309F4D5
:1017700057C0883309F0E4C0809380020E947E0B3A
:10178000DFC0803509F44FC0883509F45DC0883466
:1017900009F0D6C0D3C0883909F4C4C0A8F488378A
:1017A00009F467C038F4883609F463C0803709F457
:1017B00060C0C6C0883809F4B5C0803909F45FC07C
:1017C000803809F0BDC05BC0803B09F483C038F4A9
:1017D000803A09F466C0883A09F47CC0B1C0803C04
:1017E00009F4A4C0883C09F4A1C0883B09F487C06F
:1017F000A7C08091EC0210C09091C5028091C402F4
:10180000981770F5E091C50281E08E0F8093C502B4
:10181000F0E0EA53FD4F80818093BB0085EC83C0EC
:10182000809380028BC0E091C50281E08E0F80938F
:10183000C5028091BB00F0E0EA53FD4F8083909198
:10184000C5028091C4026BC0E091C50281E08E0F99
:101850008093C5028091BB00F0E0EA53FD4F808386
:101860008091EB0281116AC081E08093EA0284EAF0
:101870005EC083E08093ED0210928102CFCF809111
:101880008102803208F04EC0E091810281E08E0F2B
:10189000809381028091BB00F0E0EE57FD4F808382
:1018A000BDCF0E947E0B80918102803230F4E091A6
:1018B0008102F0E0EE57FD4F10826091810270E0EE
:1018C000E091E602F091E70282E892E00995109239
:1018D000810236C084E08093ED021092A302109240
:1018E000A202E091E802F091E90209958091A2023A
:1018F000811105C081E08093A2021092A402E091C0
:10190000A30281E08E0F8093A302F0E0EC55FD4F1F
:1019100080818093BB009091A3028091A2029817CE
:1019200008F47CCF85E88093BC000AC085EC8093E6
:10193000BC001092ED0204C0109280020E94740B51
:10194000FF91EF91BF91AF919F918F917F916F9197
:101950005F914F913F912F910F900FBE0F901F906D
:1019600018955058BB27AA270E94C90C0C94430E07
:101970000E94350E38F00E943C0E20F039F49F3F53
:1019800019F426F40C94320E0EF4E095E7FB0C9457
:101990002C0EE92F0E94540E58F3BA1762077307F2
:1019A0008407950720F079F4A6F50C94760E0EF4D2
:1019B000E0950B2EBA2FA02D0B01B90190010C015F
:1019C000CA01A0011124FF27591B99F0593F50F477
:1019D000503E68F11A16F040A22F232F342F4427CF
:1019E000585FF3CF469537952795A795F0405395C7
:1019F000C9F77EF41F16BA0B620B730B840BBAF097
:101A00009150A1F0FF0FBB1F661F771F881FC2F701
:101A10000EC0BA0F621F731F841F48F48795779515
:101A20006795B795F7959E3F08F0B0CF9395880FCF
:101A300008F09927EE0F9795879508950E94080E54
:101A400008F481E008950E94370D0C94430E0E9423
:101A50003C0E58F00E94350E40F029F45F3F29F00B
:101A60000C942C0E51110C94770E0C94320E0E9493
:101A7000540E68F39923B1F3552391F3951B550B3D
:101A8000BB27AA2762177307840738F09F5F5F4F51
:101A9000220F331F441FAA1FA9F335D00E2E3AF090
:101AA000E0E832D091505040E695001CCAF72BD0A8
:101AB000FE2F29D0660F771F881FBB1F26173707F9
:101AC0004807AB07B0E809F0BB0B802DBF01FF272B
:101AD00093585F4F3AF09E3F510578F00C942C0ECE
:101AE0000C94770E5F3FE4F3983ED4F38695779598
:101AF0006795B795F7959F5FC9F7880F911D9695E4
:101B0000879597F90895E1E0660F771F881FBB1F3F
:101B1000621773078407BA0720F0621B730B840BEC
:101B2000BA0BEE1F88F7E09508950E949C0D68940B
:101B3000B1110C94770E08950E945C0E88F09F57A7
:101B400098F0B92F9927B751B0F0E1F0660F771FE1
:101B5000881F991F1AF0BA95C9F714C0B13091F0D7
:101B60000E94760EB1E008950C94760E672F782FC0
:101B70008827B85F39F0B93FCCF38695779567959C
:101B8000B395D9F73EF490958095709561957F4F08
:101B90008F4F9F4F0895E89409C097FB3EF49095AE
:101BA0008095709561957F4F8F4F9F4F9923A9F036
:101BB000F92F96E9BB279395F695879577956795C5
:101BC000B795F111F8CFFAF4BB0F11F460FF1BC009
:101BD0006F5F7F4F8F4F9F4F16C0882311F096E99C
:101BE00011C0772321F09EE8872F762F05C066234A
:101BF00071F096E8862F70E060E02AF09A95660F03
:101C0000771F881FDAF7880F9695879597F90895BB
:101C1000990F0008550FAA0BE0E8FEEF16161706FD
:101C2000E807F907C0F012161306E407F50798F065
:101C3000621B730B840B950B39F40A2661F0232B7E
:101C4000242B252B21F408950A2609F4A140A695FA
:101C50008FEF811D811D089597F99F6780E870E0DF
:101C600060E008959FEF80EC089500240A94161612
:101C7000170618060906089500240A94121613067A
:101C8000140605060895092E0394000C11F4882308
:101C900052F0BB0F40F4BF2B11F460FF04C06F5F24
:101CA0007F4F8F4F9F4F089557FD9058440F551FFA
:101CB00059F05F3F71F04795880F97FB991F61F0CE
:101CC0009F3F79F087950895121613061406551F45
:101CD000F2CF4695F1DF08C0161617061806991FB1
:101CE000F1CF86957105610508940895E894BB27A6
:101CF00066277727CB0197F908950E94080E08F40C
:101D00008FEF08950E94950E0C94430E0E94350E9D
:101D100038F00E943C0E20F0952311F00C942C0E0C
:101D20000C94320E11240C94770E0E94540E70F312
:101D3000959FC1F3950F50E0551F629FF001729F70
:101D4000BB27F00DB11D639FAA27F00DB11DAA1F7F
:101D5000649F6627B00DA11D661F829F2227B00DCC
:101D6000A11D621F739FB00DA11D621F839FA00D57
:101D7000611D221F749F3327A00D611D231F849FA7
:101D8000600D211D822F762F6A2F11249F575040FE
:101D90009AF0F1F088234AF0EE0FFF1FBB1F661F79
:101DA000771F881F91505040A9F79E3F510580F042
:101DB0000C942C0E0C94770E5F3FE4F3983ED4F312
:101DC000869577956795B795F795E7959F5FC1F7E6
:101DD000FE2B880F911D9695879597F908950E947F
:101DE000080E880B990B0895A1E21A2EAA1BBB1BA3
:101DF000FD010DC0AA1FBB1FEE1FFF1FA217B307D7
:101E0000E407F50720F0A21BB30BE40BF50B661FEC
:101E1000771F881F991F1A9469F7609570958095B0
:101E200090959B01AC01BD01CF010895EE0FFF1FFE
:0C1E30000590F491E02D0994F894FFCF88
:101E3C0001543A002C20483A20002C20533A200020
:101E4C00543A20002C20503A2000313B00303B000B
:101E5C0000000000FF04BB059F04DD0471048B042B
:101E6C007D040D0A006E616E00696E66006F766609
:101E7C0000000000004D09BB05DE03E1030000007B
:101E8C0000680A380ADE03370A0C0A140A280A000A
:00000001FF
