:100000000C9464000C948C000C948C000C948C0068
:100010000C948C000C948C000C948C000C948C0030
:100020000C948C000C948C000C948C000C948C0020
:100030000C948C000C948C000C948C000C948C0010
:100040000C9468060C948C000C9475020C94B80205
:100050000C948C000C948C000C948C000C948C00F0
:100060000C94EE0B0C948C000000000700020100C1
:100070000003040600000000000000000102040864
:100080001020408001020408102001020408102002
:10009000040404040404040402020202020203032E
:1000A00003030303000000002300260029000000D2
:1000B0000000250028002B0000000000240027007D
:1000C0002A0041017B03510B11241FBECFEFD8E062
:1000D000DEBFCDBF11E0A0E0B1E0E0E1FFE102C092
:1000E00005900D92AE35B107D9F722E0AEE5B1E04B
:1000F00001C01D92AB3FB207E1F710E0C4E6D0E0CB
:1001000004C02197FE010E94800FC136D107C9F7B4
:100110000E94B6030C94860F0C9400008091860117
:10012000813009F05EC080918701803409F041C0C0
:1001300061E071E088E891E00E9400044091820152
:1001400050918301609184017091850122E030E03B
:1001500088E891E00E94B40564E071E088E891E0ED
:100160000E94000440917E0150917F0160918001C6
:100170007091810122E030E088E891E00E94B405AE
:100180006AE071E088E891E00E94000440917A0101
:1001900050917B0160917C0170917D0122E030E003
:1001A00088E891E00E94B40588E891E00E94090483
:1001B00016C0803541F460E171E088E891E00E946A
:1001C0001D0461E009C0803751F469E171E088E8FD
:1001D00091E00E941D0460E082E00E9438061092C7
:1001E000860108958F929F92AF92BF92CF92DF9235
:1001F000EF92FF924B015C010E94B2060E94350E05
:100200006B017C0120E030E04AE754E4C501B40111
:100210000E94EC0E9B01AC01C701B6010E941C0DAF
:100220000E94FF0D6B017C010E94B2066C157D05DA
:100230008E059F05C8F3FF90EF90DF90CF90BF90A1
:10024000AF909F908F90089520E042E060E18EE5AE
:1002500091E00E94200A60E080E00E94FC0561E0DD
:1002600082E00E94FC0540E052EC61E070E088E82A
:1002700091E00E94F30260E070E080E89FE30C945C
:10028000F20026E04BE064E088E691E00E944E0731
:100290008EE591E00C94620988E891E00E94DB0110
:1002A000181619064CF488E891E00E940702809322
:1002B000870181E080938601089540E060E088E650
:1002C00091E00E94BA086093820170938301809349
:1002D00084019093850160E088E691E00E941B090B
:1002E00060937E0170937F018093800190938101E0
:1002F00080E00E94B605BC01990F880B990B0E9403
:10030000370E60937A0170937B0180937C01909308
:100310007D010E944C010E948E0040E060E08EE56D
:1003200091E00E94B40963E271E08EE591E00E94E1
:100330000004409182015091830160918401709189
:10034000850122E030E08EE591E00E94B40565E091
:1003500071E08EE591E00E94000440917E01509191
:100360007F01609180017091810122E030E08EE593
:1003700091E00E94B40541E060E08EE591E00E94CA
:10038000B4096CE071E08EE591E00E9400044091B8
:100390007A0150917B0160917C0170917D0122E096
:1003A00030E08EE591E00E94B4056DEC7CEC8CECC5
:1003B0009EE30C94F200FC0124853585F901E05C94
:1003C000FF4F80819181329620813181821B930B76
:1003D0008F7399270895DC011C96ED91FC911D9770
:1003E000DF01A05CBF4F2D913C91119712968D912A
:1003F0009C9111972817390739F08D919C91E80F3E
:10040000F91F808190E008958FEF9FEF0895FC0120
:10041000A485B585FD01E05CFF4F208131813296D6
:10042000808191812817390779F080819181A80F07
:10043000B91F8C91208131812F5F3F4F2F7333275C
:100440003183208390E008958FEF9FEF0895FC01A2
:1004500081A1882329F0A489B5898C9186FFFBCFDF
:1004600011A208950F931F93CF93DF93FC01A685EC
:10047000B7858D01005C1F4FE80188819981019645
:100480008F739927AD014E5B5F4FEA012881398157
:1004900082179307D1F3E80128813981A20FB31F96
:1004A0006C93A685B785A05CBF4F11969C938E93E5
:1004B000A689B7892C9181E090E0078C02C0880F53
:1004C000991F0A94E2F7822B8C9381E081A3048820
:1004D000F589E02D80818064808381E090E0DF9168
:1004E000CF911F910F91089508951F920F920FB60B
:1004F0000F9211242F934F935F938F939F93EF93BA
:10050000FF938091C00082FD1CC02091C6008091A5
:100510002E0290912F0201968F73992740913002FD
:10052000509131028417950771F0E0912E02F091FD
:100530002F02E251FE4F208390932F0280932E02D0
:1005400002C08091C600FF91EF919F918F915F91C2
:100550004F912F910F900FBE0F901F90189588E824
:1005600091E00E94DB01892B11F00C947402089534
:100570001F920F920FB60F9211242F933F938F93D8
:100580009F93EF93FF932091EA013091EB018091CB
:10059000EC019091ED012817390731F48091C100E9
:1005A0008F7D8093C10014C0E091EC01F091ED01CA
:1005B000E655FE4F20818091EC019091ED0101966E
:1005C0008F7399279093ED018093EC012093C600DF
:1005D000FF91EF919F918F913F912F910F900FBEBF
:1005E0000F901F901895CF92DF92EF92FF920F938A
:1005F0001F93CF93DF93EC016A017B014115514EAC
:100600006105710509F1EC89FD8981E090E008A0A0
:1006100002C0880F991F0A94E2F7808360E079E0B6
:100620008DE390E0A70196010E945E0F89019A0177
:10063000015011092109310936952795179507951C
:10064000980101151041A8F0EC89FD89108260E83D
:1006500074E88EE190E0A70196010E945E0FDA0136
:10066000C9010197A109B109B695A79597958795F5
:100670009C01E889F9893083EA89FB89208319A2E2
:10068000EE89FF89408181E090E09C010C8C02C0E2
:10069000220F331F0A94E2F7242B2083EE89FF896F
:1006A00040819C010D8C02C0220F331F0A94E2F797
:1006B000242B2083EE89FF8940819C010E8C02C08F
:1006C000220F331F0A94E2F7242B2083EE89FF893F
:1006D00020810F8C02C0880F991F0A94E2F7809541
:1006E00082238083DF91CF911F910F91FF90EF9034
:1006F000DF90CF900895E8E8F1E01382128288EE4F
:1007000093E0A0E0B0E084839583A683B7838BE277
:1007100091E0918380838EEE91E0958784878AEAC9
:1007200091E09787868785EC90E0918B808B84ECB5
:1007300090E0938B828B80EC90E0958B848B81ECA6
:1007400090E0978B868B82EC90E0918F808F86EC87
:1007500090E0938F828F84E0848F83E0858F87E0A1
:10076000868F85E0878F81E080A308950E9413071C
:100770000E942401CFEAD2E00E945D012097E1F3BC
:100780000E94AF02F9CFCF92DF92EF92FF920F93C8
:100790001F93CF93DF936C01EB017B01E40EF51EF9
:1007A00000E010E0CE15DF0561F06991D601ED9112
:1007B000FC910190F081E02DC6010995080F191FE9
:1007C000F1CFC801DF91CF911F910F91FF90EF9072
:1007D000DF90CF9008956115710579F0FB010190CC
:1007E0000020E9F73197AF01461B570BDC01ED9173
:1007F000FC910280F381E02D099480E090E008955F
:100800000C94EB03DC01ED91FC910190F081E02D63
:1008100009940F931F93CF93DF93EC016DE00E9437
:1008200002048C016AE0CE010E940204800F911F35
:10083000DF91CF911F910F9108950F931F93CF9345
:10084000DF93EC010E94EB038C01CE010E940904AE
:10085000800F911FDF91CF911F910F9108958F927B
:100860009F92AF92BF92CF92DF92EF92FF920F933F
:100870001F93CF93DF93CDB7DEB7A1970FB6F89450
:10088000DEBF0FBECDBF6C01142FE52FCB01022FB1
:1008900019A2223008F40AE07E0121E2E20EF11CE6
:1008A000802E912CA12CB12C612F7E2FA5019401BB
:1008B0000E945E0F029F1019112481E0E81AF108CE
:1008C0001A3014F4105D01C0195CF7011083122F67
:1008D000E32FCA01232B242B252B31F7B701C601A7
:1008E0000E94EB03A1960FB6F894DEBF0FBECDBFFA
:1008F000DF91CF911F910F91FF90EF90DF90CF90FC
:10090000BF90AF909F908F900895CF92DF92EF921B
:10091000FF920F931F93CF93DF93EC016A017B014A
:100920002115310579F4E881F9810190F081E02DFC
:10093000642FDF91CF911F910F91FF90EF90DF9087
:10094000CF9009942A303105E9F477FF1AC06DE29F
:100950000E9402048C0144275527BA014C195D09F5
:100960006E097F092AE0CE010E942F04800F911F9B
:10097000DF91CF911F910F91FF90EF90DF90CF907B
:1009800008952AE0B701A601CE01DF91CF911F9112
:100990000F91FF90EF90DF90CF900C942F044F9227
:1009A0005F926F927F928F929F92AF92BF92CF92FF
:1009B000DF92EF92FF92CF93DF93EC016A017B010C
:1009C000B22E9A01AB01C701B6010E94590F8823CC
:1009D00019F067E371E027C026013701E89477F842
:1009E0002FEF3FEF4FE75FE7C301B2010E94590FBE
:1009F00081110DC02FEF3FEF4FE75FE7C301B20159
:100A00000E94880D18161CF46BE371E00CC02FEFE8
:100A10003FEF4FE75FE4C701B6010E94E70E1816EB
:100A20009CF46FE371E0CE01DF91CF91FF90EF90E6
:100A3000DF90CF90BF90AF909F908F907F906F90FE
:100A40005F904F900C94EB032FEF3FEF4FE75FEC7D
:100A5000C701B6010E94880D87FDE3CF20E030E09A
:100A6000A901C701B6010E94880D87FF0AC06DE287
:100A7000CE010E9402044C01F7FAF094F7F8F094CA
:100A800002C0812C912CA12C60E070E080E09FE3FB
:100A9000AB1441F020E030E040E251E40E948D0DC3
:100AA000A394F6CF9B01AC01C701B6010E941C0DB7
:100AB0002B013C010E94060E6B017C010E94350E49
:100AC0009B01AC01C301B2010E941B0D2B013C0133
:100AD0002AE0B701A601CE010E942F047C01E80C98
:100AE000F91CBB2039F063E471E0CE010E94EB03F6
:100AF000E80EF91EDB2CDD2039F120E030E040E289
:100B000051E4C301B2010E94EC0E2B013C010E9492
:100B1000FF0D4B01770FAA08BB082AE030E0B501B2
:100B2000A401CE010E948504E80EF91EC501B4019E
:100B30000E94370E9B01AC01C301B2010E941B0D44
:100B40002B013C01DA94D7CFC701DF91CF91FF9001
:100B5000EF90DF90CF90BF90AF909F908F907F905D
:100B60006F905F904F9008950C94CF048E3008F0F2
:100B70008E5087702091000190E4299F90011124EC
:100B8000822B80937C0080917A00806480937A002D
:100B900080917A0086FDFCCF8091780020917900C9
:100BA00090E0922B0895833081F028F4813099F001
:100BB0008230A1F008958630A9F08730B9F08430F2
:100BC000D1F4809180008F7D03C0809180008F7769
:100BD00080938000089584B58F7702C084B58F7D9F
:100BE00084BD08958091B0008F7703C08091B000DC
:100BF0008F7D8093B0000895CF93DF9390E0FC0148
:100C0000E458FF4F2491FC01E057FF4F8491882363
:100C100061F190E0880F991FFC01E854FF4FC591E6
:100C2000D491FC01E255FF4FA591B491611109C027
:100C30009FB7F8948881209582238883EC912E2396
:100C40000BC0623061F49FB7F8943881822F809591
:100C500083238883EC912E2B2C939FBF06C08FB7E4
:100C6000F894E8812E2B28838FBFDF91CF910895D0
:100C70001F93CF93DF93282F30E0F901E859FF4FFE
:100C80008491F901E458FF4FD491F901E057FF4FE7
:100C9000C491CC23C9F0162F81110E94D305EC2FEB
:100CA000F0E0EE0FFF1FE255FF4FA591B4918FB713
:100CB000F894111105C09C91ED2FE095E92302C035
:100CC000EC91ED2BEC938FBFDF91CF911F910895A5
:100CD0001F920F920FB60F9211242F933F938F9371
:100CE0009F93AF93BF938091330290913402A09170
:100CF0003502B09136023091320223E0230F2D37B6
:100D000020F40196A11DB11D05C026E8230F02960F
:100D1000A11DB11D209332028093330290933402BF
:100D2000A0933502B0933602809137029091380239
:100D3000A0913902B0913A020196A11DB11D809394
:100D4000370290933802A0933902B0933A02BF91D0
:100D5000AF919F918F913F912F910F900FBE0F9068
:100D60001F9018952FB7F894609133027091340258
:100D700080913502909136022FBF08953FB7F894C5
:100D80008091370290913802A0913902B0913A02D5
:100D900026B5A89B05C02F3F19F00196A11DB11DD6
:100DA0003FBFBA2FA92F982F8827820F911DA11D11
:100DB000B11DBC01CD0142E0660F771F881F991F4E
:100DC0004A95D1F70895CF92DF92EF92FF92CF9399
:100DD000DF936B017C010E94BE06EB01C114D104BC
:100DE000E104F10479F00E94BE066C1B7D0B683EA5
:100DF0007340A0F381E0C81AD108E108F108C85196
:100E0000DC4FECCFDF91CF91FF90EF90DF90CF9050
:100E10000895019739F0880F991F880F991F02973D
:100E20000197F1F70895789484B5826084BD84B504
:100E3000816084BD85B5826085BD85B5816085BDD5
:100E4000EEE6F0E0808181608083E1E8F0E01082EE
:100E5000808182608083808181608083E0E8F0E02F
:100E6000808181608083E1EBF0E080818460808319
:100E7000E0EBF0E0808181608083EAE7F0E0808150
:100E800084608083808182608083808181608083B0
:100E90008081806880831092C1000895DC011596DE
:100EA0006C93159716964C93169770E0FB01E458D7
:100EB000FF4FE4911796EC931797FB01E057FF4F14
:100EC000649118966C93189740E85EE360E070E0D8
:100ED0001D964D935D936D937C93509708958F92DB
:100EE0009F92AF92BF92CF92DF92EF92FF920F93B9
:100EF0001F93CF93DC011796CC911797662311F0BF
:100F00008C2F01C080E018962C91189730E0220FAA
:100F1000331F2C553F4F40E050E0BA01F9010591D5
:100F20001491F80190819C23981315C06A017B01EC
:100F30009FEFC91AD90AE90AF90A1D968D909D906A
:100F4000AD90BC905097481559056A057B0538F45B
:100F5000B701A601E3CF342F252FCB0104C030E029
:100F600020E080E090E0632F722FCF911F910F91CE
:100F7000FF90EF90DF90CF90BF90AF909F908F90B9
:100F800008958F929F92AF92BF92CF92DF92EF928D
:100F9000FF920F931F93CF93DF93CDB7DEB7C0546B
:100FA000D1400FB6F894DEBF0FBECDBF8C01F62E38
:100FB0000E94B206F11016C0F801C184D284E38405
:100FC000F4849B01AC012C193D094E095F096901AC
:100FD0007A0130EDC31637E0D306E104F10410F4D2
:100FE0008189B4C0F80161877287838794871482EE
:100FF000138212821182108261E085810E9438067C
:101000006AEF70E080E090E00E94E30661E0F801A2
:1010100085810E94FC0560E0F80185810E94380608
:1010200064E170E080E090E00E94E306F89461E003
:10103000F80185810E94380688E290E00E94090745
:1010400062E0F80185810E94FC058AE090E00E9440
:10105000090760E0C8010E946F07672B682B692BA6
:1010600021F4F801118A789442C061E0C8010E941D
:101070006F07672B682B692BA1F39E012F5F3F4FF2
:1010800079015E013FEBA31A3EEFB30A670160E00E
:10109000C8010E946F07F601608371838283938386
:1010A00061E0C8010E946F07F6016483758386833F
:1010B0009783F8E0CF0ED11CCA14DB0441F7789473
:1010C00020E030E0F70140815181628173818480AA
:1010D0009580A680B780411551056105710529F0FD
:1010E00081149104A104B10421F4F801118A80E073
:1010F0002DC0F90183E0F595E7958A95E1F7E00FBA
:10110000F11F8081880F481559056A057B0508F491
:10111000816080832F5F3F4FF8E0EF0EF11C283293
:10112000310581F6F801248130E04081818190E031
:10113000840F911D4281840F911D4381840F911D65
:1011400099272817390789F681E0818BC05CDE4F2B
:101150000FB6F894DEBF0FBECDBFDF91CF911F91C8
:101160000F91FF90EF90DF90CF90BF90AF909F9046
:101170008F900895CF92DF92EF92FF920F931F937B
:10118000CF93DF93EC01162F642F0E94C1078823B1
:1011900009F444C08E818B3031F008F43FC0855192
:1011A000823040F03BC06A8170E080E090E00E94B5
:1011B000350E25C00A81602F6F7770E080E090E0E7
:1011C0000E94370E20E030E040E853E40E94EC0E2D
:1011D0006B017C018B81682F70E080E090E00E94C1
:1011E000370E9B01AC01C701B6010E941C0D2DEC0E
:1011F0003CEC4CEC5DE30E94EC0E07FD9058112393
:1012000089F026E636E646EE5FE30E94EC0E20E02B
:1012100030E040E052E40E941C0D04C060E070E049
:1012200080EC9FE7DF91CF911F910F91FF90EF909E
:10123000DF90CF900895CF92DF92EF92FF92CF93FD
:10124000DF93EC0160E00E94C107882381F18E8169
:101250008B3031F160F18551823048F5688170E062
:1012600080E090E00E94350E20E030E040E853E45A
:101270000E94EC0E6B017C018981682F70E080E098
:1012800090E00E94370E9B01AC01C701B6010E949D
:101290001C0D2DEC3CEC4CEC5DE30E94EC0E0BC005
:1012A000688170E080E090E00E94350E04C060E04C
:1012B00070E080EC9FE7DF91CF91FF90EF90DF909F
:1012C000CF900895FC011382128229E431E031832A
:1012D00020830895EF92FF920F931F93CF93DF9394
:1012E0007C01C62F6EE370E08BE392E00E94390B25
:1012F0008701D0E0C8018E199F098C179D0744F41F
:10130000F80161918F018BE392E00E94E60AF2CF2F
:101310008BE392E0DF91CF911F910F91FF90EF90BF
:101320000C944E0BCF93DF9300D0CDB7DEB790E88F
:1013300099838A8362E0CE0101960E946A090F9028
:101340000F90DF91CF91089581E00E94920980ED86
:1013500097E00C940907FC019581892F84608583AF
:10136000892F8C600C949209CF93DF9300D0CDB776
:10137000DEB7411102C0606801C0606C80E88983FB
:101380006A8362E0CE0101960E946A090F900F9075
:10139000DF91CF910895CF93DF9300D0CDB7DEB723
:1013A00080E489836A8362E0CE0101960E946A0923
:1013B00081E090E00F900F90DF91CF9108951F93FF
:1013C000CF93DF931F92CDB7DEB7162F62E670E0A2
:1013D0008BE392E049830E94390B612F8BE392E00B
:1013E0000E94E60A4981642F8BE392E00E94E60A9C
:1013F0008BE392E00F90DF91CF911F910C944E0BF5
:10140000EF92FF921F93CF93DF931F92CDB7DEB77A
:101410007C01142F462F64E029830E94DF09412FAD
:1014200063E0C7010E94DF092981422F62E0C70102
:101430000F90DF91CF911F91FF90EF900C94DF09F7
:101440000F931F93CF93DF9300D0CDB7DEB78C01FE
:101450008BE392E02A8349830E94250B49812A81EC
:10146000423020F0F801848188608483F80140874D
:101470001186222329F0413019F484818460848309
:1014800080E593EC0E940907F801848180620E9444
:10149000920984E991E10E940907F8018481806240
:1014A0000E94920986E990E00E940907F801848170
:1014B00080620E949209F801848180620E949209F0
:1014C00084E0F8018583C8010E94AB09C8010E942D
:1014D000A40982E0F801868386E00E94920940E038
:1014E00060E0C8010E94DF094FEF68E0C8010E9478
:1014F000DF0940E261E0C8010E94DF092FEF4FEFF2
:101500006FEFC8010F900F90DF91CF911F910F9156
:101510000C94000A80916B0290E020916C02821B77
:101520009109089590916C0280916B02981750F484
:10153000E92FF0E0E359FD4F208130E09F5F909369
:101540006C0202C02FEF3FEFC9010895E0916C02D9
:1015500080916B02E81730F4F0E0E359FD4F808191
:1015600090E008958FEF9FEF08950895CF92DF9256
:10157000EF92FF920F931F93CF93DF937C01262F5F
:10158000972F8A0180914702882391F0C62FD72F89
:101590006E01C40ED51ECC15DD0571F06991D70121
:1015A000ED91FC910190F081E02DC7010995F3CFF9
:1015B000642F822F0E94C50BC801DF91CF911F912C
:1015C0000F91FF90EF90DF90CF900895CF93DF932E
:1015D0001F92CDB7DEB76983209147022223D1F055
:1015E00020914802203240F021E030E0FC013383BA
:1015F000228380E090E015C080914902E82FF0E05E
:10160000E65BFD4F998190838F5F809349028093C1
:10161000480205C061E0CE0101960E94C50B81E041
:1016200090E00F90DF91CF910895FC011382128218
:1016300088EE93E0A0E0B0E084839583A683B7832F
:1016400081E591E091838083089510926C0210925D
:101650006B0210924902109248020C94550B81E0E3
:101660008093470260936A021092490210924802E6
:1016700008950C942F0B0F93062F21E04091480200
:101680006AE472E080916A020E94730B1092490230
:1016900010924802109247020F91089561E00C9455
:1016A0003B0B8BE392E00C94150B1092FA0281E055
:1016B0008093F8021092F70261E082E10E943806FE
:1016C00061E083E10E943806E9EBF0E080818E7FE3
:1016D000808380818D7F808388E48093B80085E457
:1016E0008093BC0008950F93413208F046C090915A
:1016F000FA029111FCCF32E03093FA020093F80223
:101700003FEF30938D021092D2024093D102FB0141
:1017100063ED72E0DB013A2F361B341718F4319178
:101720003D93F9CF1092F9023091F902880F832B83
:101730008093F9028091F702813041F41092F70210
:101740008091F9028093BB0085EC01C085EE809307
:10175000BC00222321F08091FA028230D1F38091E3
:101760008D028F3F79F080918D02803241F080911F
:101770008D02803331F094E005C091E003C092E027
:1017800001C093E0892F0F910895613298F4209160
:10179000FA02243089F46093AF02FC0121EB32E0BD
:1017A000D9018A2F821B861718F481918D93F9CF66
:1017B00080E0089581E0089582E0089585ED8093AA
:1017C000BC008091BC0084FDFCCF1092FA02089509
:1017D00085EC8093BC001092FA0208951F920F923C
:1017E0000FB60F9211242F933F934F935F936F93F4
:1017F0007F938F939F93AF93BF93EF93FF938091CA
:10180000B900887F803609F49CC068F5883209F4F5
:101810005BC090F4803109F454C038F4882309F493
:10182000F5C0883009F44DC0F5C0883109F44CC0CA
:10183000803209F45DC0EEC0803409F468C048F419
:10184000803309F455C0883309F0E4C080938D02D9
:10185000A8C0803509F44FC0883509F45DC08834CC
:1018600009F0D8C0D5C0883909F4C6C0A8F48837B3
:1018700009F467C038F4883609F463C0803709F486
:1018800060C0C8C0883809F4B7C0803909F45FC0A7
:10189000803809F0BFC05BC0803B09F485C038F4D4
:1018A000803A09F466C0883A09F47EC0B3C0803C2F
:1018B00009F4A6C0883C09F4A3C0883B09F489C098
:1018C000A9C08091F90210C09091D2028091D102FA
:1018D000981770F5E091D20281E08E0F8093D202CA
:1018E000F0E0ED52FD4F80818093BB0085EC85C018
:1018F00080938D028DC0E091D20281E08E0F8093A3
:10190000D2028091BB00F0E0ED52FD4F80839091B8
:10191000D2028091D1026DC0E091D20281E08E0F9F
:101920008093D2028091BB00F0E0ED52FD4F8083A6
:101930008091F80281116CC081E08093F70284EA03
:1019400060C083E08093FA0210928E02CFCF809124
:101950008E02803208F050C0E0918E0281E08E0F3E
:1019600080938E028091BB00F0E0E157FD4F8083B1
:10197000BDCF80918E02803230F4E0918E02F0E093
:10198000E157FD4F10820E94DE0B60918E0270E0E5
:10199000E091F302F091F4028FE892E00995109241
:1019A0008E020E94E80B36C084E08093FA02109207
:1019B000B0021092AF02E091F502F091F6020995A3
:1019C0008091AF02811105C081E08093AF02109237
:1019D000B102E091B00281E08E0F8093B002F0E09E
:1019E000EF54FD4F80818093BB009091B0028091B5
:1019F000AF02981708F47ACF85E88093BC000AC03C
:101A000085EC8093BC001092FA0204C010928D0203
:101A10000E94DE0BFF91EF91BF91AF919F918F914B
:101A20007F916F915F914F913F912F910F900FBEDA
:101A30000F901F9018955058BB27AA270E94330D6E
:101A40000C94AD0E0E949F0E38F00E94A60E20F05E
:101A500039F49F3F19F426F40C949C0E0EF4E09593
:101A6000E7FB0C94960EE92F0E94BE0E58F3BA17AE
:101A7000620773078407950720F079F4A6F50C94A4
:101A8000E00E0EF4E0950B2EBA2FA02D0B01B9013C
:101A900090010C01CA01A0011124FF27591B99F0E4
:101AA000593F50F4503E68F11A16F040A22F232FF0
:101AB000342F4427585FF3CF469537952795A79540
:101AC000F0405395C9F77EF41F16BA0B620B730BE7
:101AD000840BBAF09150A1F0FF0FBB1F661F771F58
:101AE000881FC2F70EC0BA0F621F731F841F48F40D
:101AF000879577956795B795F7959E3F08F0B0CF96
:101B00009395880F08F09927EE0F9795879508957C
:101B10000E94720E08F481E008950E94A10D0C94B9
:101B2000AD0E0E94A60E58F00E949F0E40F029F4C0
:101B30005F3F29F00C94960E51110C94E10E0C9419
:101B40009C0E0E94BE0E68F39923B1F3552391F3C6
:101B5000951B550BBB27AA2762177307840738F01C
:101B60009F5F5F4F220F331F441FAA1FA9F335D079
:101B70000E2E3AF0E0E832D091505040E695001C2D
:101B8000CAF72BD0FE2F29D0660F771F881FBB1FE7
:101B9000261737074807AB07B0E809F0BB0B802DC5
:101BA000BF01FF2793585F4F3AF09E3F510578F0F1
:101BB0000C94960E0C94E10E5F3FE4F3983ED4F340
:101BC000869577956795B795F7959F5FC9F7880FC5
:101BD000911D9695879597F90895E1E0660F771F17
:101BE000881FBB1F621773078407BA0720F0621BA8
:101BF000730B840BBA0BEE1F88F7E09508950E94D3
:101C0000060E6894B1110C94E10E08950E94C60E60
:101C100088F09F5798F0B92F9927B751B0F0E1F0AD
:101C2000660F771F881F991F1AF0BA95C9F714C05D
:101C3000B13091F00E94E00EB1E008950C94E00EF6
:101C4000672F782F8827B85F39F0B93FCCF3869596
:101C500077956795B395D9F73EF4909580957095F3
:101C600061957F4F8F4F9F4F0895E89409C097FB70
:101C70003EF490958095709561957F4F8F4F9F4F63
:101C80009923A9F0F92F96E9BB279395F6958795A7
:101C900077956795B795F111F8CFFAF4BB0F11F46A
:101CA00060FF1BC06F5F7F4F8F4F9F4F16C0882311
:101CB00011F096E911C0772321F09EE8872F762F47
:101CC00005C0662371F096E8862F70E060E02AF088
:101CD0009A95660F771F881FDAF7880F9695879574
:101CE00097F90895990F0008550FAA0BE0E8FEEF49
:101CF00016161706E807F907C0F012161306E407D0
:101D0000F50798F0621B730B840B950B39F40A26C8
:101D100061F0232B242B252B21F408950A2609F4A6
:101D2000A140A6958FEF811D811D089597F99F67AA
:101D300080E870E060E008959FEF80EC0895002453
:101D40000A941616170618060906089500240A9420
:101D500012161306140605060895092E0394000CA6
:101D600011F4882352F0BB0F40F4BF2B11F460FF35
:101D700004C06F5F7F4F8F4F9F4F089557FD90585E
:101D8000440F551F59F05F3F71F04795880F97FB3F
:101D9000991F61F09F3F79F08795089512161306F9
:101DA0001406551FF2CF4695F1DF08C01616170628
:101DB0001806991FF1CF869571056105089408955D
:101DC000E894BB2766277727CB0197F908950E94EF
:101DD000720E08F48FEF08950E94FF0E0C94AD0E62
:101DE0000E949F0E38F00E94A60E20F0952311F05D
:101DF0000C94960E0C949C0E11240C94E10E0E94EF
:101E0000BE0E70F3959FC1F3950F50E0551F629F72
:101E1000F001729FBB27F00DB11D639FAA27F00D43
:101E2000B11DAA1F649F6627B00DA11D661F829F6A
:101E30002227B00DA11D621F739FB00DA11D621F4F
:101E4000839FA00D611D221F749F3327A00D611D6C
:101E5000231F849F600D211D822F762F6A2F11244E
:101E60009F5750409AF0F1F088234AF0EE0FFF1F81
:101E7000BB1F661F771F881F91505040A9F79E3FD8
:101E8000510580F00C94960E0C94E10E5F3FE4F344
:101E9000983ED4F3869577956795B795F795E7952E
:101EA0009F5FC1F7FE2B880F911D9695879597F937
:101EB00008950E94720E880B990B0895A1E21A2EC4
:101EC000AA1BBB1BFD010DC0AA1FBB1FEE1FFF1FDE
:101ED000A217B307E407F50720F0A21BB30BE40B2E
:101EE000F50B661F771F881F991F1A9469F7609575
:101EF0007095809590959B01AC01BD01CF0108952F
:101F0000EE0FFF1F0590F491E02D0994F894FFCF98
:101F100001543A002C20483A20002C20533A20004B
:101F2000506F6D7065206F6E00506F6D7065206F23
:101F3000666600543A2000000000003202C303DB52
:101F4000010702EB0127026E616E00696E66006F89
:101F50007666002E0000000000CB09C303000000DD
:0E1F600000E60AB60A8A0A920AA60AB50A0024
:00000001FF
