:100000000C9464000C948C000C948C000C948C0068
:100010000C948C000C948C000C948C000C948C0030
:100020000C948C000C948C000C948C000C948C0020
:100030000C948C000C948C000C948C000C948C0010
:100040000C944B0A0C948C000C9477040C94BA0416
:100050000C948C000C948C000C948C000C948C00F0
:100060000C94CA0B0C948C000000000700020100E5
:100070000003040600000000000000000102040864
:100080001020408001020408102001020408102002
:10009000040404040404040402020202020203032E
:1000A00003030303000000002300260029000000D2
:1000B0000000250028002B0000000000240027007D
:1000C0002A00BE017D05950911241FBECFEFD8E09F
:1000D000DEBFCDBF11E0A0E0B1E0E8ECFEE102C080
:1000E00005900D92A635B107D9F722E0A6E5B1E05B
:1000F00001C01D92A13FB207E1F710E0C4E6D0E0D5
:1001000004C02197FE010E945C0FC136D107C9F7D8
:100110000E94B8050C94620F0C9400008F929F927D
:10012000AF92BF92CF92DF92EF92FF924B015C01B0
:100130000E94950A0E94110E6B017C0120E030E0C4
:100140004AE754E4C501B4010E94C80E9B01AC010A
:10015000C701B6010E94F80C0E94DB0D6B017C0107
:100160000E94950A6C157D058E059F05C8F3FF90CA
:10017000EF90DF90CF90BF90AF909F908F900895B9
:1001800020E042E060E186E591E00E94640860E0E2
:1001900080E00E94DF0961E082E00E94DF0940E028
:1001A00052EC61E070E08EE791E00E94F50460E0BF
:1001B00070E080E89FE30C948E0040E060E080E611
:1001C00091E00E94350360937A0170937B018093E4
:1001D0007C0190937D0160E080E691E00E949603AF
:1001E0006093760170937701809378019093790101
:1001F00080E00E949909BC01990F880B990B0E941D
:10020000130E609372017093730180937401909345
:10021000750161E071E08EE791E00E940206409175
:100220007A0150917B0160917C0170917D0122E007
:1002300030E08EE791E00E94A40764E071E08EE771
:1002400091E00E9402064091760150917701609101
:1002500078017091790122E030E08EE791E00E9410
:10026000A4076AE071E08EE791E00E9402064091E7
:10027000720150917301609174017091750122E0D7
:1002800030E08EE791E00E94A40740E060E086E560
:1002900091E00E94F80760E171E086E591E00E943C
:1002A000020640917A0150917B0160917C0170912E
:1002B0007D0122E030E086E591E00E94A40765E040
:1002C00071E086E591E00E9402064091760150912E
:1002D0007701609178017091790122E030E086E544
:1002E00091E00E94A40741E060E086E591E00E9471
:1002F000F8076CE071E086E591E00E94020640910B
:10030000720150917301609174017091750122E046
:1003100030E086E591E00E94A40764E171E08EE799
:1003200091E00E94020620E030E04AEF53E4609141
:1003300072017091730180917401909175010E9416
:10034000640D87FF07C061E082E00E941B0A6AE13A
:1003500071E006C060E082E00E941B0A6DE171E07E
:100360008EE791E00E9402068EE791E00E940B0664
:100370006DEC7CEC8CEC9EE30C948E0026E04BE064
:1003800064E080E691E00E94C90186E591E00C946A
:10039000A607DC0115966C93159716964C93169745
:1003A00070E0FB01E458FF4FE4911796EC93179728
:1003B000FB01E057FF4F649118966C93189740E843
:1003C0005EE360E070E01D964D935D936D937C93CA
:1003D000509708958F929F92AF92BF92CF92DF92E3
:1003E000EF92FF920F931F93CF93DC011796CC915E
:1003F0001797662311F08C2F01C080E018962C917E
:10040000189730E0220F331F2C553F4F40E050E04B
:10041000BA01F90105911491F80190819C23981378
:1004200015C06A017B019FEFC91AD90AE90AF90AC6
:100430001D968D909D90AD90BC9050974815590594
:100440006A057B0538F4B701A601E3CF342F252FC9
:10045000CB0104C030E020E080E090E0632F722FF9
:10046000CF911F910F91FF90EF90DF90CF90BF90B1
:10047000AF909F908F9008958F929F92AF92BF926E
:10048000CF92DF92EF92FF920F931F93CF93DF9360
:10049000CDB7DEB7C054D1400FB6F894DEBF0FBE63
:1004A000CDBF8C01F62E0E94950AF11016C0F801FE
:1004B000C184D284E384F4849B01AC012C193D09EE
:1004C0004E095F0969017A0130EDC31637E0D306A2
:1004D000E104F10410F48189B4C0F80161877287E6
:1004E000838794871482138212821182108261E0C2
:1004F00085810E941B0A6AEF70E080E090E00E9414
:10050000C60A61E0F80185810E94DF0960E0F80118
:1005100085810E941B0A64E170E080E090E00E9407
:10052000C60AF89461E0F80185810E941B0A88E2FE
:1005300090E00E94EC0A62E0F80185810E94DF09E8
:100540008AE090E00E94EC0A60E0C8010E94EA01A3
:10055000672B682B692B21F4F801118A789442C02B
:1005600061E0C8010E94EA01672B682B692BA1F3A7
:100570009E012F5F3F4F79015E013FEBA31A3EEFD3
:10058000B30A670160E0C8010E94EA01F6016083D6
:1005900071838283938361E0C8010E94EA01F601BE
:1005A0006483758386839783F8E0CF0ED11CCA14C9
:1005B000DB0441F7789420E030E0F701408151817D
:1005C0006281738184809580A680B7804115510532
:1005D0006105710529F081149104A104B10421F48D
:1005E000F801118A80E02DC0F90183E0F595E795C7
:1005F0008A95E1F7E00FF11F8081880F48155905B2
:100600006A057B0508F4816080832F5F3F4FF8E027
:10061000EF0EF11C2832310581F6F801248130E01B
:100620004081818190E0840F911D4281840F911D52
:100630004381840F911D99272817390789F681E096
:10064000818BC05CDE4F0FB6F894DEBF0FBECDBF0E
:10065000DF91CF911F910F91FF90EF90DF90CF909E
:10066000BF90AF909F908F900895CF92DF92EF92BE
:10067000FF920F931F93CF93DF93EC01162F642FFC
:100680000E943C02882309F444C08E818B3031F0F3
:1006900008F43FC08551823040F03BC06A8170E071
:1006A00080E090E00E94110E25C00A81602F6F77D4
:1006B00070E080E090E00E94130E20E030E040E81F
:1006C00053E40E94C80E6B017C018B81682F70E09F
:1006D00080E090E00E94130E9B01AC01C701B601BF
:1006E0000E94F80C2DEC3CEC4CEC5DE30E94C80E33
:1006F00007FD9058112389F026E636E646EE5FE3C3
:100700000E94C80E20E030E040E052E40E94F80C65
:1007100004C060E070E080EC9FE7DF91CF911F9113
:100720000F91FF90EF90DF90CF900895CF92DF92DE
:10073000EF92FF92CF93DF93EC0160E00E943C02C6
:10074000882381F18E818B3031F160F185518230C7
:1007500048F5688170E080E090E00E94110E20E092
:1007600030E040E853E40E94C80E6B017C018981AF
:10077000682F70E080E090E00E94130E9B01AC01B6
:10078000C701B6010E94F80C2DEC3CEC4CEC5DE38B
:100790000E94C80E0BC0688170E080E090E00E946B
:1007A000110E04C060E070E080EC9FE7DF91CF9114
:1007B000FF90EF90DF90CF900895FC012485358560
:1007C000F901E05CFF4F8081918132962081318177
:1007D000821B930B8F7399270895DC011C96ED9172
:1007E000FC911D97DF01A05CBF4F2D913C911197AB
:1007F00012968D919C9111972817390739F08D9198
:100800009C91E80FF91F808190E008958FEF9FEF92
:100810000895FC01A485B585FD01E05CFF4F2081B2
:1008200031813296808191812817390779F0808152
:100830009181A80FB91F8C91208131812F5F3F4F8B
:100840002F7333273183208390E008958FEF9FEF3C
:100850000895FC0181A1882329F0A489B5898C9190
:1008600086FFFBCF11A208950F931F93CF93DF93C1
:10087000FC01A685B7858D01005C1F4FE8018881CA
:10088000998101968F739927AD014E5B5F4FEA0105
:100890002881398182179307D1F3E80128813981B2
:1008A000A20FB31F6C93A685B785A05CBF4F1196AE
:1008B0009C938E93A689B7892C9181E090E0078C58
:1008C00002C0880F991F0A94E2F7822B8C9381E073
:1008D00081A30488F589E02D80818064808381E094
:1008E00090E0DF91CF911F910F91089508951F928D
:1008F0000F920FB60F9211242F934F935F938F9304
:100900009F93EF93FF938091C00082FD1CC02091C4
:10091000C600809124029091250201968F73992739
:1009200040912602509127028417950771F0E091BB
:100930002402F0912502EC51FE4F20839093250272
:100940008093240202C08091C600FF91EF919F9195
:100950008F915F914F912F910F900FBE0F901F902D
:1009600018958EE791E00E94DD03892B11F00C941D
:10097000760408951F920F920FB60F9211242F93B1
:100980003F938F939F93EF93FF932091E0013091DA
:10099000E1018091E2019091E3012817390731F4D8
:1009A0008091C1008F7D8093C10014C0E091E2016D
:1009B000F091E301E056FE4F20818091E201909199
:1009C000E30101968F7399279093E3018093E201ED
:1009D0002093C600FF91EF919F918F913F912F91AE
:1009E0000F900FBE0F901F901895CF92DF92EF924D
:1009F000FF920F931F93CF93DF93EC016A017B016A
:100A00004115514E6105710509F1EC89FD8981E0BF
:100A100090E008A002C0880F991F0A94E2F7808333
:100A200060E079E08DE390E0A70196010E943A0F23
:100A300089019A010150110921093109369527953B
:100A400017950795980101151041A8F0EC89FD89CB
:100A5000108260E874E88EE190E0A70196010E94A0
:100A60003A0FDA01C9010197A109B109B695A79515
:100A7000979587959C01E889F9893083EA89FB89F4
:100A8000208319A2EE89FF89408181E090E09C01DA
:100A90000C8C02C0220F331F0A94E2F7242B208310
:100AA000EE89FF8940819C010D8C02C0220F331F0B
:100AB0000A94E2F7242B2083EE89FF8940819C0170
:100AC0000E8C02C0220F331F0A94E2F7242B2083DE
:100AD000EE89FF8920810F8C02C0880F991F0A942C
:100AE000E2F7809582238083DF91CF911F910F9150
:100AF000FF90EF90DF90CF900895EEE7F1E0138242
:100B0000128288EE93E0A0E0B0E084839583A68310
:100B1000B78384E291E09183808384EE91E09587AE
:100B2000848780EA91E09787868785EC90E0918BB7
:100B3000808B84EC90E0938B828B80EC90E0958BA3
:100B4000848B81EC90E0978B868B82EC90E0918F88
:100B5000808F86EC90E0938F828F84E0848F83E097
:100B6000858F87E0868F85E0878F81E080A3089559
:100B70000E94F60A0E94C000C1EBD4E00E94DD0092
:100B80002097E1F30E94B104F9CFCF92DF92EF9268
:100B9000FF920F931F93CF93DF936C01EB017B01C7
:100BA000E40EF51E00E010E0CE15DF0561F069915E
:100BB000D601ED91FC910190F081E02DC6010995DF
:100BC000080F191FF1CFC801DF91CF911F910F912D
:100BD000FF90EF90DF90CF9008956115710579F047
:100BE000FB0101900020E9F73197AF01461B570B3D
:100BF000DC01ED91FC910280F381E02D099480E00D
:100C000090E008950C94ED05DC01ED91FC910190CC
:100C1000F081E02D09940F931F93CF93DF93EC01A4
:100C20006DE00E9404068C016AE0CE010E94040679
:100C3000800F911FDF91CF911F910F9108958F9297
:100C40009F92AF92BF92CF92DF92EF92FF920F935B
:100C50001F93CF93DF93CDB7DEB7A1970FB6F8946C
:100C6000DEBF0FBECDBF6C01142FE52FCB01022FCD
:100C700019A2223008F40AE07E0121E2E20EF11C02
:100C8000802E912CA12CB12C612F7E2FA5019401D7
:100C90000E943A0F029F1019112481E0E81AF1080E
:100CA0001A3014F4105D01C0195CF7011083122F83
:100CB000E32FCA01232B242B252B31F7B701C601C3
:100CC0000E94ED05A1960FB6F894DEBF0FBECDBF12
:100CD000DF91CF911F910F91FF90EF90DF90CF9018
:100CE000BF90AF909F908F900895CF92DF92EF9238
:100CF000FF920F931F93CF93DF93EC016A017B0167
:100D00002115310579F4E881F9810190F081E02D18
:100D1000642FDF91CF911F910F91FF90EF90DF90A3
:100D2000CF9009942A303105E9F477FF1AC06DE2BB
:100D30000E9404068C0144275527BA014C195D090D
:100D40006E097F092AE0CE010E941F06800F911FC5
:100D5000DF91CF911F910F91FF90EF90DF90CF9097
:100D600008952AE0B701A601CE01DF91CF911F912E
:100D70000F91FF90EF90DF90CF900C941F064F9251
:100D80005F926F927F928F929F92AF92BF92CF921B
:100D9000DF92EF92FF92CF93DF93EC016A017B0128
:100DA000B22E9A01AB01C701B6010E94350F88230C
:100DB00019F060E371E027C026013701E89477F865
:100DC0002FEF3FEF4FE75FE7C301B2010E94350FFE
:100DD00081110DC02FEF3FEF4FE75FE7C301B20175
:100DE0000E94640D18161CF464E371E00CC02FEF30
:100DF0003FEF4FE75FE4C701B6010E94C30E18162C
:100E00009CF468E371E0CE01DF91CF91FF90EF9009
:100E1000DF90CF90BF90AF909F908F907F906F901A
:100E20005F904F900C94ED052FEF3FEF4FE75FEC95
:100E3000C701B6010E94640D87FDE3CF20E030E0DA
:100E4000A901C701B6010E94640D87FF0AC06DE2C7
:100E5000CE010E9404064C01F7FAF094F7F8F094E2
:100E600002C0812C912CA12C60E070E080E09FE317
:100E7000AB1441F020E030E040E251E40E94690D03
:100E8000A394F6CF9B01AC01C701B6010E94F80CF8
:100E90002B013C010E94E20D6B017C010E94110EAE
:100EA0009B01AC01C301B2010E94F70C2B013C0174
:100EB0002AE0B701A601CE010E941F067C01E80CC2
:100EC000F91CBB2039F06CE371E0CE010E94ED0506
:100ED000E80EF91EDB2CDD2039F120E030E040E2A5
:100EE00051E4C301B2010E94C80E2B013C010E94D3
:100EF000DB0D4B01770FAA08BB082AE030E0B501F3
:100F0000A401CE010E947506E80EF91EC501B401C8
:100F10000E94130E9B01AC01C301B2010E94F70CA9
:100F20002B013C01DA94D7CFC701DF91CF91FF901D
:100F3000EF90DF90CF90BF90AF909F908F907F9079
:100F40006F905F904F9008950C94BF06FC01138240
:100F5000128222E431E0318320830895EF92FF92E0
:100F60000F931F93CF93DF937C01C62F6EE370E046
:100F700088E292E00E947D098701D0E0C8018E19C5
:100F80009F098C179D0744F4F80161918F0188E255
:100F900092E00E942A09F2CF88E292E0DF91CF919D
:100FA0001F910F91FF90EF900C949209CF93DF93D4
:100FB00000D0CDB7DEB790E899838A8362E0CE0196
:100FC00001960E94AE070F900F90DF91CF91089588
:100FD00081E00E94D60780ED97E00C94EC0AFC01BA
:100FE0009581892F84608583892F8C600C94D60726
:100FF000CF93DF9300D0CDB7DEB7411102C0606858
:1010000001C0606C80E889836A8362E0CE0101964A
:101010000E94AE070F900F90DF91CF910895CF936C
:10102000DF9300D0CDB7DEB780E489836A8362E0C6
:10103000CE0101960E94AE0781E090E00F900F90E4
:10104000DF91CF9108951F93CF93DF931F92CDB778
:10105000DEB7162F62E670E088E292E049830E94D4
:101060007D09612F88E292E00E942A094981642F5C
:1010700088E292E00E942A0988E292E00F90DF91D4
:10108000CF911F910C949209EF92FF921F93CF93EF
:10109000DF931F92CDB7DEB77C01142F462F64E09B
:1010A00029830E942308412F63E0C7010E9423087F
:1010B0002981422F62E0C7010F90DF91CF911F91EC
:1010C000FF90EF900C9423080F931F93CF93DF931F
:1010D00000D0CDB7DEB78C0188E292E02A83498345
:1010E0000E94690949812A81423020F0F8018481F7
:1010F00088608483F80140871186222329F04130DB
:1011000019F484818460848380E593EC0E94EC0A66
:10111000F801848180620E94D60784E991E10E94EF
:10112000EC0AF801848180620E94D60786E990E08B
:101130000E94EC0AF801848180620E94D607F801BF
:10114000848180620E94D60784E0F8018583C8010B
:101150000E94EF07C8010E94E80782E0F801868339
:1011600086E00E94D60740E060E0C8010E942308A4
:101170004FEF68E0C8010E94230840E261E0C80127
:101180000E9423082FEF4FEF6FEFC8010F900F90D1
:10119000DF91CF911F910F910C94440880915802D8
:1011A00090E020915902821B910908959091590273
:1011B00080915802981750F4E92FF0E0E65AFD4F5D
:1011C000208130E09F5F9093590202C02FEF3FEFE4
:1011D000C9010895E091590280915802E81730F44E
:1011E000F0E0E65AFD4F808190E008958FEF9FEF89
:1011F00008950895CF92DF92EF92FF920F931F937D
:10120000CF93DF937C01262F972F8A0180913402A0
:10121000882391F0C62FD72F6E01C40ED51ECC1592
:10122000DD0571F06991D701ED91FC910190F0819C
:10123000E02DC7010995F3CF642F822F0E94A10BE7
:10124000C801DF91CF911F910F91FF90EF90DF9038
:10125000CF900895CF93DF931F92CDB7DEB7698308
:10126000209134022223D1F020913502203240F027
:1012700021E030E0FC013383228380E090E015C060
:1012800080913602E82FF0E0E95CFD4F9981908370
:101290008F5F809336028093350205C061E0CE01F6
:1012A00001960E94A10B81E090E00F90DF91CF9119
:1012B0000895FC011382128288EE93E0A0E0B0E072
:1012C00084839583A683B7838AE491E091838083A6
:1012D00008951092590210925802109236021092FC
:1012E00035020C94310B81E08093340260935702F5
:1012F000109236021092350208950C9473090F93E0
:10130000062F21E04091350267E372E08091570299
:101310000E944F0B10923602109235021092340246
:101320000F91089561E00C947F0988E292E00C949B
:1013300059098E3008F08E5087702091000190E49A
:10134000299F90011124822B80937C0080917A0048
:10135000806480937A0080917A0086FDFCCF809132
:1013600078002091790090E0922B0895833081F0ED
:1013700028F4813099F08230A1F008958630A9F0E8
:101380008730B9F08430D1F4809180008F7D03C024
:10139000809180008F7780938000089584B58F7747
:1013A00002C084B58F7D84BD08958091B0008F7791
:1013B00003C08091B0008F7D8093B0000895CF93DB
:1013C000DF9390E0FC01E458FF4F2491FC01E057CB
:1013D000FF4F8491882361F190E0880F991FFC01F1
:1013E000E854FF4FC591D491FC01E255FF4FA59100
:1013F000B491611109C09FB7F89488812095822328
:101400008883EC912E230BC0623061F49FB7F8946F
:101410003881822F809583238883EC912E2B2C9307
:101420009FBF06C08FB7F894E8812E2B28838FBF0B
:10143000DF91CF9108951F93CF93DF93282F30E052
:10144000F901E859FF4F8491F901E458FF4FD49115
:10145000F901E057FF4FC491CC23C9F0162F811139
:101460000E94B609EC2FF0E0EE0FFF1FE255FF4F90
:10147000A591B4918FB7F894111105C09C91ED2FEF
:10148000E095E92302C0EC91ED2BEC938FBFDF9147
:10149000CF911F9108951F920F920FB60F921124B2
:1014A0002F933F938F939F93AF93BF9380917B0232
:1014B00090917C02A0917D02B0917E0230917A02DF
:1014C00023E0230F2D3720F40196A11DB11D05C087
:1014D00026E8230F0296A11DB11D20937A02809366
:1014E0007B0290937C02A0937D02B0937E02809158
:1014F0007F0290918002A0918102B09182020196B8
:10150000A11DB11D80937F0290938002A093810260
:10151000B0938202BF91AF919F918F913F912F9194
:101520000F900FBE0F901F9018952FB7F8946091F1
:101530007B0270917C0280917D0290917E022FBF90
:1015400008953FB7F89480917F0290918002A09116
:101550008102B091820226B5A89B05C02F3F19F0E9
:101560000196A11DB11D3FBFBA2FA92F982F882723
:10157000820F911DA11DB11DBC01CD0142E0660F7E
:10158000771F881F991F4A95D1F70895CF92DF9250
:10159000EF92FF92CF93DF936B017C010E94A10A2F
:1015A000EB01C114D104E104F10479F00E94A10A15
:1015B0006C1B7D0B683E7340A0F381E0C81AD10814
:1015C000E108F108C851DC4FECCFDF91CF91FF90DB
:1015D000EF90DF90CF900895019739F0880F991F11
:1015E000880F991F02970197F1F70895789484B5B1
:1015F000826084BD84B5816084BD85B5826085BD0F
:1016000085B5816085BDEEE6F0E0808181608083F4
:10161000E1E8F0E0108280818260808380818160D7
:101620008083E0E8F0E0808181608083E1EBF0E09E
:10163000808184608083E0EBF0E080818160808342
:10164000EAE7F0E08081846080838081826080832B
:101650008081816080838081806880831092C10056
:1016600008951092F00281E08093EE021092ED0254
:1016700061E082E10E941B0A61E083E10E941B0A93
:10168000E9EBF0E080818E7F808380818D7F808395
:1016900088E48093B80085E48093BC0008950F939C
:1016A000413208F046C09091F0029111FCCF32E037
:1016B0003093F0020093EE023FEF309383021092DA
:1016C000C8024093C702FB0169EC72E0DB013A2FCC
:1016D000361B341718F431913D93F9CF1092EF0275
:1016E0003091EF02880F832B8093EF028091ED02FF
:1016F000813041F41092ED028091EF028093BB00A3
:1017000085EC01C085EE8093BC00222321F08091FE
:10171000F0028230D1F3809183028F3F79F0809183
:101720008302803241F080918302803331F094E073
:1017300005C091E003C092E001C093E0892F0F91B2
:101740000895613298F42091F002243089F4609376
:10175000A502FC0127EA32E0D9018A2F821B8617F5
:1017600018F481918D93F9CF80E0089581E0089578
:1017700082E0089585ED8093BC008091BC0084FDDB
:10178000FCCF1092F002089585EC8093BC0010927B
:10179000F00208951F920F920FB60F9211242F930B
:1017A0003F934F935F936F937F938F939F93AF93E9
:1017B000BF93EF93FF938091B900887F803609F43F
:1017C0009CC068F5883209F45BC090F4803109F45C
:1017D00054C038F4882309F4F5C0883009F44DC0AA
:1017E000F5C0883109F44CC0803209F45DC0EEC008
:1017F000803409F468C048F4803309F455C0883354
:1018000009F0E4C080938302A8C0803509F44FC07A
:10181000883509F45DC0883409F0D8C0D5C088394E
:1018200009F4C6C0A8F4883709F467C038F48836CC
:1018300009F463C0803709F460C0C8C0883809F46F
:10184000B7C0803909F45FC0803809F0BFC05BC001
:10185000803B09F485C038F4803A09F466C0883AC0
:1018600009F47EC0B3C0803C09F4A6C0883C09F4EA
:10187000A3C0883B09F489C0A9C08091EF0210C0C1
:101880009091C8028091C702981770F5E091C80244
:1018900081E08E0F8093C802F0E0E753FD4F808116
:1018A0008093BB0085EC85C0809383028DC0E0915E
:1018B000C80281E08E0F8093C8028091BB00F0E0E7
:1018C000E753FD4F80839091C8028091C7026DC09D
:1018D000E091C80281E08E0F8093C8028091BB0026
:1018E000F0E0E753FD4F80838091EE0281116CC0E0
:1018F00081E08093ED0284EA60C083E08093F0028F
:1019000010928402CFCF80918402803208F050C0C0
:10191000E091840281E08E0F809384028091BB006D
:10192000F0E0EB57FD4F8083BDCF80918402803281
:1019300030F4E0918402F0E0EB57FD4F10820E94FA
:10194000BA0B6091840270E0E091E902F091EA0242
:1019500085E892E00995109284020E94C40B36C07B
:1019600084E08093F0021092A6021092A502E0910A
:10197000EB02F091EC0209958091A502811105C05E
:1019800081E08093A5021092A702E091A60281E077
:101990008E0F8093A602F0E0E955FD4F8081809381
:1019A000BB009091A6028091A502981708F47ACF07
:1019B00085E88093BC000AC085EC8093BC0010923F
:1019C000F00204C0109283020E94BA0BFF91EF91C3
:1019D000BF91AF919F918F917F916F915F914F9147
:1019E0003F912F910F900FBE0F901F901895505858
:1019F000BB27AA270E940F0D0C94890E0E947B0E14
:101A000038F00E94820E20F039F49F3F19F426F43A
:101A10000C94780E0EF4E095E7FB0C94720EE92F0F
:101A20000E949A0E58F3BA17620773078407950746
:101A300020F079F4A6F50C94BC0E0EF4E0950B2E74
:101A4000BA2FA02D0B01B90190010C01CA01A00110
:101A50001124FF27591B99F0593F50F4503E68F16B
:101A60001A16F040A22F232F342F4427585FF3CFAC
:101A7000469537952795A795F0405395C9F77EF47D
:101A80001F16BA0B620B730B840BBAF09150A1F0C6
:101A9000FF0FBB1F661F771F881FC2F70EC0BA0F4C
:101AA000621F731F841F48F4879577956795B795D4
:101AB000F7959E3F08F0B0CF9395880F08F09927CF
:101AC000EE0F9795879508950E944E0E08F481E0D9
:101AD00008950E947D0D0C94890E0E94820E58F08C
:101AE0000E947B0E40F029F45F3F29F00C94720EA7
:101AF00051110C94BD0E0C94780E0E949A0E68F34E
:101B00009923B1F3552391F3951B550BBB27AA27B6
:101B100062177307840738F09F5F5F4F220F331FF0
:101B2000441FAA1FA9F335D00E2E3AF0E0E832D0B8
:101B300091505040E695001CCAF72BD0FE2F29D0BB
:101B4000660F771F881FBB1F261737074807AB078D
:101B5000B0E809F0BB0B802DBF01FF2793585F4F02
:101B60003AF09E3F510578F00C94720E0C94BD0E25
:101B70005F3FE4F3983ED4F3869577956795B795E4
:101B8000F7959F5FC9F7880F911D9695879597F9EF
:101B90000895E1E0660F771F881FBB1F6217730768
:101BA0008407BA0720F0621B730B840BBA0BEE1F7D
:101BB00088F7E09508950E94E20D6894B1110C94A5
:101BC000BD0E08950E94A20E88F09F5798F0B92F7D
:101BD0009927B751B0F0E1F0660F771F881F991F62
:101BE0001AF0BA95C9F714C0B13091F00E94BC0E3A
:101BF000B1E008950C94BC0E672F782F8827B85F4A
:101C000039F0B93FCCF3869577956795B395D9F7B9
:101C10003EF490958095709561957F4F8F4F9F4FC3
:101C20000895E89409C097FB3EF4909580957095CF
:101C300061957F4F8F4F9F4F9923A9F0F92F96E918
:101C4000BB279395F695879577956795B795F1118D
:101C5000F8CFFAF4BB0F11F460FF1BC06F5F7F4F2A
:101C60008F4F9F4F16C0882311F096E911C077233C
:101C700021F09EE8872F762F05C0662371F096E845
:101C8000862F70E060E02AF09A95660F771F881F14
:101C9000DAF7880F9695879597F90895990F0008B8
:101CA000550FAA0BE0E8FEEF16161706E807F9072E
:101CB000C0F012161306E407F50798F0621B730BC9
:101CC000840B950B39F40A2661F0232B242B252B4A
:101CD00021F408950A2609F4A140A6958FEF811DED
:101CE000811D089597F99F6780E870E060E008958E
:101CF0009FEF80EC089500240A9416161706180624
:101D00000906089500240A941216130614060506FF
:101D10000895092E0394000C11F4882352F0BB0F90
:101D200040F4BF2B11F460FF04C06F5F7F4F8F4FF3
:101D30009F4F089557FD9058440F551F59F05F3F2E
:101D400071F04795880F97FB991F61F09F3F79F0DD
:101D500087950895121613061406551FF2CF46955F
:101D6000F1DF08C0161617061806991FF1CF8695E1
:101D70007105610508940895E894BB2766277727C5
:101D8000CB0197F908950E944E0E08F48FEF089545
:101D90000E94DB0E0C94890E0E947B0E38F00E948C
:101DA000820E20F0952311F00C94720E0C94780E94
:101DB00011240C94BD0E0E949A0E70F3959FC1F3EE
:101DC000950F50E0551F629FF001729FBB27F00DE9
:101DD000B11D639FAA27F00DB11DAA1F649F66273E
:101DE000B00DA11D661F829F2227B00DA11D621F8D
:101DF000739FB00DA11D621F839FA00D611D221F47
:101E0000749F3327A00D611D231F849F600D211D2A
:101E1000822F762F6A2F11249F5750409AF0F1F0AD
:101E200088234AF0EE0FFF1FBB1F661F771F881F16
:101E300091505040A9F79E3F510580F00C94720ECE
:101E40000C94BD0E5F3FE4F3983ED4F386957795EE
:101E50006795B795F795E7959F5FC1F7FE2B880FBC
:101E6000911D9695879597F908950E944E0E880BBF
:101E7000990B0895A1E21A2EAA1BBB1BFD010DC0F0
:101E8000AA1FBB1FEE1FFF1FA217B307E407F5072A
:101E900020F0A21BB30BE40BF50B661F771F881F06
:101EA000991F1A9469F760957095809590959B019C
:101EB000AC01BD01CF010895EE0FFF1F0590F49115
:081EC000E02D0994F894FFCF16
:101EC80001543A002C20483A20002C20533A200094
:101ED800543A20002C20503A2000313B00303B007F
:101EE800000000003404C505DD030904ED032904DE
:101EF8006E616E00696E66006F7666002E000000E7
:101F080000000F08C505000000002A09FA08CE08DD
:061F1800D608EA08F908F2
:00000001FF
