:100000000C945D000C9485000C9485000C94850084
:100010000C9485000C9485000C9485000C9485004C
:100020000C9485000C9485000C9485000C94DA00E7
:100030000C9485000C9485000C9485000C9485002C
:100040000C9465030C9485000C9485000C94850039
:100050000C9485000C9485000C9485000C9485000C
:100060000C9485000C94850000000007000201003C
:100070000003040600000000000000000102040864
:100080001020408001020408102001020408102002
:10009000040404040404040402020202020203032E
:1000A0000303030300000000250028002B000000CC
:1000B0000000240027002A00C90011241FBECFEF32
:1000C000D8E0DEBFCDBF21E0A0E0B1E001C01D92CD
:1000D000A433B207E1F711E0A0E0B1E0EAEEF9E005
:1000E00002C005900D92A030B107D9F710E0CDE520
:1000F000D0E004C02197FE010E94DE04CC35D10778
:10010000C9F70E94CD000C94F3040C94000065E044
:1001100070E082E091E00C9439021092010110929B
:1001200000016091000170910101653B7105A4F42B
:1001300082E091E00E9474026FE070E080E090E065
:100140000E94D40380910001909101010196909347
:10015000010180930001E5CF84EB90E090930101D1
:1001600080930001609100017091010177FD10C042
:1001700082E091E00E9474026FE070E080E090E025
:100180000E94D40380910001909101010197E6CF74
:10019000089582E091E00C949B010E94FA030E9472
:1001A0008700C0E0D0E00E948D002097E1F30E941C
:1001B0000000F9CF1F920F920FB60F9211242F93C8
:1001C0003F934F935F936F937F938F939F93AF93DF
:1001D000BF93EF93FF938091060187FF05C01092B4
:1001E0008500109284001BC020910601022E000C95
:1001F000330B8091050190E02817390784F4809132
:100200000601082E000C990BFC01EE0FFF1F8E0F4C
:100210009F1FFC01E95FFE4F808186FD15C0809124
:1002200006018F5F8093060120910601022E000CCB
:10023000330B8091050190E028173907C4F48091B1
:1002400006018C3064F113C080910601082E000C69
:10025000990BFC01EE0FFF1F8E0F9F1FFC01E95F42
:10026000FE4F808160E08F730E943503D8CF80916C
:10027000840090918500049680349C4918F480E4B1
:100280009CE905C08091840090918500049690932C
:100290008900809388008FEF809306013BC02091F6
:1002A00084003091850080910601082E000C990B86
:1002B000FC01EE0FFF1F8E0F9F1FFC01E95FFE4F39
:1002C00081819281820F931F90938900809388008F
:1002D00080910601082E000C990BFC01EE0FFF1F08
:1002E0008E0F9F1FFC01E95FFE4F808186FF12C0C9
:1002F00080910601082E000C990BFC01EE0FFF1FE8
:100300008E0F9F1FFC01E95FFE4F808161E08F73BC
:100310000E943503FF91EF91BF91AF919F918F9113
:100320007F916F915F914F913F912F910F900FBEF1
:100330000F901F901895FC01909105019C30A0F43E
:1003400081E0890F809305019083892F90E0FC0163
:10035000EE0FFF1F8E0F9F1FFC01E95FFE4F88EB22
:100360009BE09283818308958FEF80830895DF92CD
:10037000EF92FF920F931F93CF93DF93EC01D62E52
:100380007A01890188818C3008F06AC061E08D2D86
:100390000E94F9028881E82FF0E09F01220F331FAD
:1003A000E20FF31FE95FFE4F9D2D9F732081207C9C
:1003B000D22ED92AD08260E272E0AB014E195F09D9
:1003C00057FF02C04D5F5F4F55954795559547952F
:1003D000498340E659E09A01201B310B37FF02C0E8
:1003E0002D5F3F4F35952795359527952A836CE0EE
:1003F0000E9486049CE0899FB001112440E050E0F7
:100400009A01260F371FF901EE0FFF1F2E0F3F1F16
:10041000F901E95FFE4F908196FD16C04F5F5F4F77
:100420004C30510569F781110FC01092800082E0B5
:10043000809381001092850010928400B19A80917F
:100440006F00826080936F00E881F0E0CF01880F39
:10045000991FE80FF91FE95FFE4F80818064808358
:100460008881DF91CF911F910F91FF90EF90DF90E6
:10047000089520E639E040E252E00C94B701FC0117
:1004800090819C3080F5818128E830E0281B31097B
:1004900087FD3395220F331F220F331F6217730717
:1004A0007CF0828128E532E0281B310987FD3395F5
:1004B000220F331F220F331F621773070CF49B01A7
:1004C0004FB7F894892F90E0FC01EE0FFF1F8E0FBD
:1004D0009F1FFC01E95FFE4F22503109220F331F9D
:1004E000328321834FBF0895AF92BF92CF92DF92A4
:1004F000EF92FF920F931F93CF93DF93EC01603243
:1005000082E078070CF03FC077FD06C0653B7105BF
:100510002CF064EB70E002C060E070E0898128E8B4
:1005200030E05901A81AB10887FDB394AA0CBB1C8E
:10053000AA0CBB1C0B2C000CCC08DD08072E000CF1
:10054000880B990B2A8108E512E0021B110927FD8F
:100550001395000F111F000F111F012E000C220B0D
:10056000330B3F932F931F930F9314EBE12EF12C3A
:1005700000E010E020E030E0A9010E9435040F9077
:100580000F900F900F90CE01DF91CF911F910F919F
:10059000FF90EF90DF90CF90BF90AF900C943F0210
:1005A000833081F028F4813099F08230A1F00895F1
:1005B0008630A9F08730B9F08430D1F48091800082
:1005C0008F7D03C0809180008F7780938000089595
:1005D00084B58F7702C084B58F7D84BD08958091E6
:1005E000B0008F7703C08091B0008F7D8093B00002
:1005F0000895CF93DF9390E0FC01E458FF4F2491DE
:10060000FC01E057FF4F8491882361F190E0880F4F
:10061000991FFC01E255FF4FC591D491FC01EC55A7
:10062000FF4FA591B491611109C09FB7F8948881DB
:10063000209582238883EC912E230BC0623061F4D5
:100640009FB7F8943881822F809583238883EC911B
:100650002E2B2C939FBF06C08FB7F894E8812E2BCA
:1006600028838FBFDF91CF9108951F93CF93DF939E
:10067000282F30E0F901E859FF4F8491F901E4583F
:10068000FF4FD491F901E057FF4FC491CC23C9F03B
:10069000162F81110E94D002EC2FF0E0EE0FFF1F09
:1006A000EC55FF4FA591B4918FB7F894111105C087
:1006B0009C91ED2FE095E92302C0EC91ED2BEC939A
:1006C0008FBFDF91CF911F9108951F920F920FB6A8
:1006D0000F9211242F933F938F939F93AF93BF93C8
:1006E00080912C0190912D01A0912E01B0912F01AC
:1006F00030912B0123E0230F2D3720F40196A11D0B
:10070000B11D05C026E8230F0296A11DB11D20933F
:100710002B0180932C0190932D01A0932E01B09377
:100720002F018091300190913101A0913201B0915F
:1007300033010196A11DB11D8093300190933101C9
:10074000A0933201B0933301BF91AF919F918F91EC
:100750003F912F910F900FBE0F901F9018953FB7AC
:10076000F8948091300190913101A0913201B091C3
:10077000330126B5A89B05C02F3F19F00196A11D96
:10078000B11D3FBFBA2FA92F982F8827820F911D27
:10079000A11DB11DBC01CD0142E0660F771F881F6E
:1007A000991F4A95D1F70895CF92DF92EF92FF9269
:1007B000CF93DF936B017C010E94AF03EB01C11467
:1007C000D104E104F10479F00E94AF036C1B7D0BAE
:1007D000683E7340A0F381E0C81AD108E108F1082F
:1007E000C851DC4FECCFDF91CF91FF90EF90DF90BD
:1007F000CF900895789484B5826084BD84B581607B
:1008000084BD85B5826085BD85B5816085BDEEE618
:10081000F0E0808181608083E1E8F0E010828081F7
:1008200082608083808181608083E0E8F0E0808165
:1008300081608083E1EBF0E0808184608083E0EB85
:10084000F0E0808181608083EAE7F0E0808184606D
:1008500080838081826080838081816080838081C9
:10086000806880831092C10008954F925F926F92CA
:100870007F92AF92BF92CF92DF92EF92FF920F934F
:100880001F93CF93DF93CDB7DEB729013A019B01C8
:10089000AC01241935094609570989899A89AB8918
:1008A000BC89BC01CD016A197B098C099D090E9494
:1008B0007604A801970124193509460957090E94B1
:1008C0009204CA01B9016A0D7B1D8C1D9D1DDF912B
:1008D000CF911F910F91FF90EF90DF90CF90BF903D
:1008E000AF907F906F905F904F900895DB018F9352
:1008F0009F930E94B104BF91AF91A29F800D911D63
:10090000A39F900DB29F900D11240895991B79E03B
:1009100004C0991F961708F0961B881F7A95C9F78F
:1009200080950895052E97FB1EF400940E94A9045B
:1009300057FD07D00E94BC0407FC03D04EF40C9472
:10094000A90450954095309521953F4F4F4F5F4FEB
:10095000089590958095709561957F4F8F4F9F4F2B
:1009600008950E94E404A59F900DB49F900DA49F4C
:10097000800D911D11240895A1E21A2EAA1BBB1B04
:10098000FD010DC0AA1FBB1FEE1FFF1FA217B3075B
:10099000E407F50720F0A21BB30BE40BF50B661F71
:1009A000771F881F991F1A9469F760957095809535
:1009B00090959B01AC01BD01CF010895EE0FFF1F83
:1009C0000590F491E02D0994A29FB001B39FC0015E
:1009D000A39F700D811D1124911DB29F700D811D6B
:0A09E0001124911D0895F894FFCF33
:00000001FF
