:100000000C945D000C9485000C9485000C94850084
:100010000C9485000C9485000C9485000C9485004C
:100020000C9485000C9485000C9485000C9485003C
:100030000C9485000C9485000C9485000C9485002C
:100040000C94A1030C9485000C9454010C9497011A
:100050000C9485000C9485000C9485000C9485000C
:100060000C9485000C94850000000007000201003C
:100070000003040600000000000000000102040864
:100080001020408001020408102001020408102002
:10009000040404040404040402020202020203032E
:1000A0000303030300000000250028002B000000CC
:1000B0000000240027002A005A0211241FBECFEF9F
:1000C000D8E0DEBFCDBF11E0A0E0B1E0E6E3F9E0AB
:1000D00002C005900D92A432B107D9F721E0A4E245
:1000E000B1E001C01D92A73DB207E1F710E0CDE5F8
:1000F000D0E004C02197FE010E949304CC35D107C3
:10010000C9F70E9495020C9499040C94000061E0D8
:10011000809100010E94350340E052EC61E070E004
:1001200084E291E00E94D20162E071E084E291E019
:100130000C94FA02CF93DF93C0E0D1E061E08881B4
:100140000E94710368EE73E080E090E00E9410046A
:1001500060E088810E94710364EF71E080E090E0CC
:100160000E9410046BE071E084E291E0DF91CF9196
:100170000C94FA02FC0124853585F901E05CFF4FFF
:1001800080819181329620813181821B930B8F7304
:1001900099270895DC011C96ED91FC911D97DF01D4
:1001A000A05CBF4F2D913C91119712968D919C911F
:1001B00011972817390739F08D919C91E80FF91F95
:1001C000808190E008958FEF9FEF0895FC01A48552
:1001D000B585FD01E05CFF4F208131813296808141
:1001E00091812817390779F080819181A80FB91F73
:1001F0008C91208131812F5F3F4F2F7333273183C3
:10020000208390E008958FEF9FEF0895FC0181A176
:10021000882329F0A489B5898C9186FFFBCF11A290
:1002200008950F931F93CF93DF93FC01A685B785A5
:100230008D01005C1F4FE8018881998101968F73C1
:100240009927AD014E5B5F4FEA0128813981821702
:100250009307D1F3E80128813981A20FB31F6C9372
:10026000A685B785A05CBF4F11969C938E93A689F7
:10027000B7892C9181E090E0078C02C0880F991F0C
:100280000A94E2F7822B8C9381E081A30488F5899C
:10029000E02D80818064808381E090E0DF91CF91C8
:1002A0001F910F91089508951F920F920FB60F920C
:1002B00011242F934F935F938F939F93EF93FF930B
:1002C0008091C00082FD1CC02091C6008091CA01AF
:1002D0009091CB0101968F7399274091CC01509159
:1002E000CD018417950771F0E091CA01F091CB011F
:1002F000E657FE4F20839093CB018093CA0102C042
:100300008091C600FF91EF919F918F915F914F91E6
:100310002F910F900FBE0F901F90189584E291E0DF
:100320000E94BA00892B11F00C94530108951F927A
:100330000F920FB60F9211242F933F938F939F9399
:10034000EF93FF932091860130918701809188017E
:10035000909189012817390731F48091C1008F7D70
:100360008093C10014C0E0918801F0918901EA5B9B
:10037000FE4F2081809188019091890101968F73B1
:10038000992790938901809388012093C600FF915B
:10039000EF919F918F913F912F910F900FBE0F90F2
:1003A0001F901895CF92DF92EF92FF920F931F93B9
:1003B000CF93DF93EC016A017B014115514E61053A
:1003C000710509F1EC89FD8981E090E008A002C087
:1003D000880F991F0A94E2F7808360E079E08DE34B
:1003E00090E0A70196010E94710489019A010150D1
:1003F0001109210931093695279517950795980117
:1004000001151041A8F0EC89FD89108260E874E8BC
:100410008EE190E0A70196010E947104DA01C90102
:100420000197A109B109B695A795979587959C0164
:10043000E889F9893083EA89FB89208319A2EE894A
:10044000FF89408181E090E09C010C8C02C0220F6A
:10045000331F0A94E2F7242B2083EE89FF89408121
:100460009C010D8C02C0220F331F0A94E2F7242B4B
:100470002083EE89FF8940819C010E8C02C0220FEF
:10048000331F0A94E2F7242B2083EE89FF89208111
:100490000F8C02C0880F991F0A94E2F7809582237F
:1004A0008083DF91CF911F910F91FF90EF90DF90AC
:1004B000CF900895E4E2F1E01382128288EE93E097
:1004C000A0E0B0E084839583A683B78387E191E0C1
:1004D000918380838AE891E09587848786E491E020
:1004E0009787868785EC90E0918B808B84EC90E0F9
:1004F000938B828B80EC90E0958B848B81EC90E0E9
:10050000978B868B82EC90E0918F808F86EC90E0C9
:10051000938F828F84E0848F83E0858F87E0868F3E
:1005200085E0878F81E080A308950E9436040E94B1
:100530008700CEE8D1E00E949A002097E1F30E9464
:100540008E01F9CFCF92DF92EF92FF920F931F931C
:10055000CF93DF936C01EB017B01E40EF51E00E00D
:1005600010E0CE15DF0561F06991D601ED91FC91A7
:100570000190F081E02DC6010995080F191FF1CFF8
:10058000C801DF91CF911F910F91FF90EF90DF9005
:10059000CF9008956115710579F0FB01019000205D
:1005A000E9F73197AF01461B570BDC01ED91FC9148
:1005B0000280F381E02D099480E090E00895DC0151
:1005C000ED91FC910190F081E02D09940F931F9320
:1005D000CF93DF93EC016DE00E94DF028C016AE0B3
:1005E000CE010E94DF02800F911FDF91CF911F91FA
:1005F0000F9108950F931F93CF93DF93EC010E9407
:10060000CA028C01CE010E94E602800F911FDF9189
:10061000CF911F910F910895833081F028F481309C
:1006200099F08230A1F008958630A9F08730B9F0B2
:100630008430D1F4809180008F7D03C08091800050
:100640008F7780938000089584B58F7702C084B53A
:100650008F7D84BD08958091B0008F7703C0809115
:10066000B0008F7D8093B0000895CF93DF9390E02A
:10067000FC01E458FF4F2491FC01E057FF4F8491A7
:10068000882361F190E0880F991FFC01E255FF4F2C
:10069000C591D491FC01EC55FF4FA591B491611126
:1006A00009C09FB7F8948881209582238883EC91B4
:1006B0002E230BC0623061F49FB7F8943881822FEB
:1006C000809583238883EC912E2B2C939FBF06C0AB
:1006D0008FB7F894E8812E2B28838FBFDF91CF91BD
:1006E00008951F93CF93DF93282F30E0F901E85945
:1006F000FF4F8491F901E458FF4FD491F901E0577D
:10070000FF4FC491CC23C9F0162F81110E940C0316
:10071000EC2FF0E0EE0FFF1FEC55FF4FA591B491C9
:100720008FB7F894111105C09C91ED2FE095E92346
:1007300002C0EC91ED2BEC938FBFDF91CF911F9115
:1007400008951F920F920FB60F9211242F933F938B
:100750008F939F93AF93BF938091CF019091D001DE
:10076000A091D101B091D2013091CE0123E0230FAD
:100770002D3720F40196A11DB11D05C026E8230FD9
:100780000296A11DB11D2093CE018093CF019093BD
:10079000D001A093D101B093D2018091D301909167
:1007A000D401A091D501B091D6010196A11DB11D32
:1007B0008093D3019093D401A093D501B093D60137
:1007C000BF91AF919F918F913F912F910F900FBE4D
:1007D0000F901F9018953FB7F8948091D301909196
:1007E000D401A091D501B091D60126B5A89B05C032
:1007F0002F3F19F00196A11DB11D3FBFBA2FA92FA0
:10080000982F8827820F911DA11DB11DBC01CD011C
:1008100042E0660F771F881F991F4A95D1F7089508
:10082000CF92DF92EF92FF92CF93DF936B017C0127
:100830000E94EB03EB01C114D104E104F10479F04F
:100840000E94EB036C1B7D0B683E7340A0F381E0BC
:10085000C81AD108E108F108C851DC4FECCFDF918C
:10086000CF91FF90EF90DF90CF900895789484B56A
:10087000826084BD84B5816084BD85B5826085BD9C
:1008800085B5816085BDEEE6F0E080818160808382
:10089000E1E8F0E010828081826080838081816065
:1008A0008083E0E8F0E0808181608083E1EBF0E02C
:1008B000808184608083E0EBF0E0808181608083D0
:1008C000EAE7F0E0808184608083808182608083B9
:1008D0008081816080838081806880831092C100E4
:1008E0000895A1E21A2EAA1BBB1BFD010DC0AA1F71
:1008F000BB1FEE1FFF1FA217B307E407F50720F089
:10090000A21BB30BE40BF50B661F771F881F991F03
:100910001A9469F760957095809590959B01AC014C
:10092000BD01CF010895EE0FFF1F0590F491E02D5A
:060930000994F894FFCFCA
:100936000D005374617274696E670052756E6E694C
:100946006E6700000000001101A202BA00E600CAAC
:040956000006010096
:00000001FF
