:100000000C9472000C949A000C949A000C949A0030
:100010000C949A000C949A000C949A000C949A00F8
:100020000C949A000C949A000C949A000C949E0CD8
:100030000C949A000C949A000C949A000C949A00D8
:100040000C949C100C949A000C94280B0C946B0B41
:100050000C949A000C949A000C949A000C949A00B8
:100060000C94A0120C949A00DE06FC060406FC0612
:100070007A06FC06DF058C05FC06FC06FC06FC0681
:10008000FC069904FC066F05FC06CA050000000783
:100090000002010000030406000000000000000050
:1000A000010204081020408001020408102001020F
:1000B00004081020040404040404040402020202DC
:1000C00002020303030303030000000025002800CD
:1000D0002B0000000000240027002A006903840A86
:1000E0002E0C870F11241FBECFEFD8E0DEBFCDBF8F
:1000F00011E0A0E0B1E0EAE5FBE202C005900D925C
:10010000AC3DB107D9F724E0ACEDB1E001C01D92E0
:10011000A236B207E1F710E0C2E7D0E004C02197B1
:10012000FE010E942A14CE36D107C9F70E94690C3D
:100130000C94AB150C940000833028F4E82FF0E009
:10014000EB57FD4F60830895863000F5409188029B
:100150005091890221E030E0672B61F4B90102C0BF
:10016000660F771F8A95E2F7CB01809590958423DF
:10017000952308C002C0220F331F8A95E2F7CA01F7
:10018000822B932B90938902809388020895833069
:1001900008F062C0482F440F440F440F485F4531B8
:1001A00008F044E1582F550F550F550F90E071E0BE
:1001B0005417F0F42EEF250F2231B8F4252F30E03C
:1001C000F901E259FD4FE081E23078F4972B220FDC
:1001D000331FF901ED5BFD4FA1E0B0E0272F26238F
:1001E00011F4A0E0B0E0B183A083770F5F5FE0CFB0
:1001F00081110AC09C7FF8948BB1292F209582230E
:100200006923682B6BB927C08130C1F46923F89446
:1002100025B1892F8F7380958223262F2F73822BF0
:1002200085B988B162956695669563709295969545
:100230009695937090959823692B0CC09F70F894B5
:1002400028B1892F880F880F809582236923660F34
:10025000660F682B68B9789408950F931F93CF9316
:10026000DF93843168F58B01C82FD0E0FE01E2599D
:10027000FD4F9081933089F0943011F582508C308D
:10028000C8F4CE0102979C01220F331F820F931FE7
:1002900084529E4F0E94460E0DC0833041F09BEF6A
:1002A000980F923020F097EF980F933018F4B80120
:1002B0000E94A80FCC0FDD1FCD5BDD4F1983088393
:1002C000DF91CF911F910F910895DC01ED91FC9189
:1002D0000190F081E02D0994109202028FEF80933B
:1002E000060108959F92AF92BF92CF92DF92EF9254
:1002F000FF920F931F93CF93DF9300D0CDB7DEB75C
:10030000982E6B01E82EF12C870102591D4FF80140
:100310008081863049F480910202882329F066307A
:10032000710511F00E946C014EEF490D4C30C0F484
:1003300024E0C216D104A1F0570132E0A31AB1089B
:10034000C501880F991F8A0D9B1DFC01E452FE4FC9
:100350005F01CF014A830E94A20E4A818111D0C061
:1003600092EF990D963078F461E070E0F2E0CF16EC
:10037000D10411F060E070E0892F4A8399830E94D4
:10038000A40099814A814231C8F4E92DE695E695A9
:10039000E695892D8770F0E0E559FD4F21E030E0CA
:1003A00001C0220F8A95EAF7C114D10419F48081A3
:1003B000282B03C02095808128232083F701EE0F8E
:1003C000FF1FED5BFD4F1182108222E0C216D104A7
:1003D000A1F03CF4C114D104F9F0CA94CD2851F134
:1003E0007CC0E4E0CE16D10409F448C084F126E0D4
:1003F000C216D10409F469C070C0963008F086C0F6
:10040000423140F460E0892D0E94301060E0892D77
:100410000E946C1082E05EC0423108F077C060E05C
:10042000892D0E94301060E0892D0E946C10F80127
:1004300010826CC0423108F069C060E0892D0E94D2
:100440006C1061E0892D0E94301081E043C0F3E020
:100450009F1649F08BEF890D823028F087EF890DC8
:10046000833008F053C061E0892D0E94301060E0B5
:1004700070E0892D0E94A80F83E02CC04C3008F05A
:1004800045C084E0F8018083970122503109C901F9
:10049000880F991F820F931F8C0104521E4FC801B1
:1004A0000E94A20E811132C0B701C8010F900F90B7
:1004B000DF91CF911F910F91FF90EF90DF90CF9040
:1004C000BF90AF909F900C94FD0D8EEE890D823001
:1004D000E8F486E0F801808319C06AE071E08AE8F8
:1004E00092E00F900F90DF91CF911F910F91FF90AD
:1004F000EF90DF90CF90BF90AF909F900C94000949
:10050000C5014A830E94030E4A812ACF0F900F90A3
:10051000DF91CF911F910F91FF90EF90DF90CF90DF
:10052000BF90AF909F900895CF9380910202811168
:100530000E946C011092850210926B02109282024E
:100540001092860210926C0210928302109287021F
:1005500010926D0210928402C0E082EF8C0F863000
:1005600018F462E070E002C061E070E08C2F0E943D
:100570007201CF5FC43189F710928902109288020C
:10058000CF910895CF93C0E08EEE8C0F823028F487
:1005900066E070E08C2F0E947201CF5FC431A1F73A
:1005A00081E08093020285E993E0CF910C944D0F96
:1005B0001F93CF93DF93C82FD0E0FE01E559FD4F85
:1005C0009081162F1923CE57DD4F411103C098811A
:1005D000911741F0682F412F50E08AE892E00E9485
:1005E00087081883DF91CF911F910895809185022C
:1005F000882349F069B180916B0268236C7F40E0E9
:1006000080E00E94D80280918602882379F063B14D
:1006100096B120E4929FC00111246F73862B6091E4
:100620006C02682340E081E00E94D802809187023A
:10063000882359F066B16C736695669580916D025A
:10064000682340E082E00C94D802089523E042E061
:100650006BE171E08AE892E00E94AB074DE251E065
:1006600060EE8AE892E00E94040947EC50E060E9FD
:100670008AE892E00E94040944EA50E060EC8AE8CB
:1006800092E00E9404094CE950E060ED8AE892E0B3
:100690000E94040942E751E064EF8AE892E00E9478
:1006A000040942E854E060EF8AE892E00E942709DA
:1006B00044E952E06FEF8AE892E00E94210940E0AD
:1006C00051EE60E070E08AE892E00E94540A0C94D7
:1006D0009402CF93DF93CCEDD1E0CE010E945F0D69
:1006E000239682E0C030D807C1F7DF91CF910895FB
:1006F000EF92FF920F931F93CF93DF93D82F8B012D
:10070000C42F6F3F7F4FA9F06D2F85E993E00E94C2
:10071000670F602F85E993E00E940E0F85E993E053
:100720000E94840F80910002909101020E943D116D
:1007300002C000E010E04C2F6D2F85E993E00E948D
:10074000640FEC2EF12C85E993E00E94B20EE816BE
:10075000F906A1F4D09303020093040200E010E034
:100760000E151F05DCF485E993E00E94BA0EF8012E
:10077000ED5FFD4F82830F5F1F4FF2CF85E993E05E
:100780000E94B20E8E159F051CF46FE271E002C04C
:1007900067E571E08AE892E00E94000942E04C0FB0
:1007A00023E032E067E78AE892E0DF91CF911F9182
:1007B0000F91FF90EF900C94B8088F929F92AF9298
:1007C000BF92CF92DF92EF92FF920F931F93CF933E
:1007D000DF9300D0CDB7DEB70E94F6028AE892E040
:1007E0000E940008892B29F08AE892E00E944009C3
:1007F000F5CF0E94E61060933F0270934002809311
:10080000410290934202C0903B02D0903C02E090A3
:100810003D02F0903E0240910701509108014A01CB
:10082000550FAA08BB088B019C010C191D092E0944
:100830003F0980169106A206B30608F054C0D50100
:10084000C4018C0D9D1DAE1DBF1D80933B02909376
:100850003C02A0933D02B0933E020EE612E020E07F
:1008600062EF620F6630E0F4F80180818230C1F4FB
:100870008091880290918902062E02C095958795F5
:100880000A94E2F780FF0CC0862F2A8369830E94B6
:100890008B0FAC0169818AE892E00E946E082A8180
:1008A0002F5F0F5F1F4F2431D9F68091060187FD1E
:1008B0001AC010E0E12FF0E080910601082E000C34
:1008C000990B8E179F077CF0CF01880F991FE80FB7
:1008D000F91FED5DFD4F618170E0428180810E94D2
:1008E00078031F5FE7CF0F900F90DF91CF911F919B
:1008F0000F91FF90EF90DF90CF90BF90AF909F90BF
:100900008F900895BF92CF92DF92EF92FF920F9354
:100910001F93CF93DF9390E0FC01E956F109E23198
:10092000F10508F069C2EA01162FEC5CFF4F0C9448
:100930002A148981982F987185FF03C06EE771E0B2
:100940005FC08881983099F148F4911155C2682FA1
:1009500085E993E00E94670F02E007C0903109F437
:1009600049C0983109F476C047C2011778F4FE01F6
:10097000E00FF11D8181608120E8829F60191124C0
:1009800085E993E00E940E0F0E5FEFCF85E993E0BB
:100990000E94840F86E490E0DF91CF911F910F9128
:1009A000FF90EF90DF90CF90BF900C943D112B8182
:1009B0009A81663069F43D814C8150E8359F401939
:1009C0001124E0E82E9F90191124692F70E007C0D0
:1009D000492FF0E82F9F401911246FEF7FEFDF912F
:1009E000CF911F910F91FF90EF90DF90CF90BF902C
:1009F0000C947803E0910601E7307CF06AEA71E03C
:100A00008AE892E0DF91CF911F910F91FF90EF90D4
:100A1000DF90CF90BF900C940009EF5FE093060148
:100A20000E2E000CFF0B9F01220F331FE20FF31F4E
:100A3000ED5DFD4F80839B818A8120E8929F801924
:100A4000112481839D818C8130E8939F801911242A
:100A50008283D2C130910601131624F08FEF809368
:100A60000601CAC120E0C32F032E000CDD0B422F6C
:100A700050E0C417D5076CF0FA01EE0FFF1F4E0FC0
:100A80005F1FFA01ED5DFD4F808381111FC02F5F55
:100A9000EECF20E01BC02830C0F4DC011196AD0180
:100AA000440F551FA40FB51FAD5DBD4F4C91FC0108
:100AB000EE0FFF1F8E0F9F1FFC01ED5DFD4F40836A
:100AC0008C91818312968C9182832F5F822F90E08C
:100AD000C817D90704F73150309306018DC128811A
:100AE000898150E8859FC0011124820F911D0097D4
:100AF00021F0909301028093000280910202811103
:100B00007BC1DF91CF911F910F91FF90EF90DF900C
:100B1000CF90BF900C94C202653008F46DC1D880AC
:100B2000C9801A81BB800C818EEF8D0D8C3008F04E
:100B300063C1ED2CF12CE7012297CE01880F991F9C
:100B4000C80FD91FC452DE4FCE010E94A20E8823C7
:100B500019F0CE010E94030E80E8089F9001112435
:100B60002B0D311D90E8199FA00111244C0D511D32
:100B7000B701CE010E947B0D64E070E08D2DDF9106
:100B8000CF911F910F91FF90EF90DF90CF90BF908A
:100B90000C947201623008F42FC128818981E0E849
:100BA0008E9FC0011124820F911D8A30910514F48B
:100BB0008AE090E090930801809307011DC16230A4
:100BC00008F41AC1698170E0123091F08A81F0E86E
:100BD0008F9FC0011124682B792B133049F08B8132
:100BE00090E090E4899F902D88271124682B792B21
:100BF0008881DF91CF911F910F91FF90EF90DF904F
:100C0000CF90BF900C942D0160EF70E085EC92E0E6
:100C10000E9465016CE670E085EC92E00E9465013F
:100C2000CEEF84EF8C0F863068F462E070E085ECE4
:100C300092E00E9465016AE070E085EC92E00E941B
:100C400065010FC0C13069F463E070E085EC92E0AB
:100C50000E94650168E070E085EC92E00E94650109
:100C600008C08DEF8C0F823078F389EF8C0F8330C2
:100C700058F3CC3060F464E070E085EC92E00E94C0
:100C800065016EE070E085EC92E00E94650180EF06
:100C90008C0F823060F466E070E085EC92E00E9498
:100CA000650161E070E085EC92E00E9465016FE70C
:100CB00070E085EC92E00E946501CF5FC23189F15E
:100CC000C23108F0AECF60E085EC92E00E94E50A08
:100CD00061E070E085EC92E00E94650161E085ECE6
:100CE00092E00E94E50A61E070E085EC92E00E94EB
:100CF000650197CF662309F47FC0C88160EF70E07B
:100D000085EC92E00E9465016EE670E085EC92E071
:100D10000E9465016C2F85EC92E00E94E50AC431C7
:100D200078F067EF70E085EC92E0DF91CF911F9152
:100D30000F91FF90EF90DF90CF90BF900C946501E2
:100D4000D0E0FE01E259FD4F608185EC92E00E9407
:100D5000E50ACC0FDD1F8E010D5B1D4FF801608190
:100D600071816F77772785EC92E00E946501F80129
:100D700060817181CB018078892B51F0660F672FDC
:100D8000661F770B6F77772785EC92E00E946501ED
:100D9000CD5BDD4F68817981CB018827907C892BE1
:100DA00009F4BFCF770F660B770F762F661F6F772B
:100DB000772785EC92E00E946501B3CF60EF70E089
:100DC00085EC92E00E9465016AE670E085EC92E0B5
:100DD0000E946501C2EFDFEFC63018F46C2F7D2F43
:100DE00002C06FE770E085EC92E00E9465012196F9
:100DF000C630D10589F795CFDF91CF911F910F9123
:100E0000FF90EF90DF90CF90BF9008950F931F93C6
:100E1000CF93DF938C01EB01DC018D919C91DC0180
:100E2000ED91FC916F770190F081E02D0995F8012B
:100E300080819181DC01ED91FC91CC0FCD2FCC1FF5
:100E4000DD0B6C2F6F770190F081E02DDF91CF915A
:100E50001F910F910994DC018D919C91DC01ED9122
:100E6000FC910190F081E02D60EF0994DC018D91FF
:100E70009C91DC01ED91FC910190F081E02D67EFF8
:100E80000994CF93DF93EC0188819981DC01ED9186
:100E9000FC910190F081E02D69EF0995888199819D
:100EA000DC01ED91FC910190F081E02D62E009956B
:100EB00088819981DC01ED91FC910190F081E02D18
:100EC00063E0DF91CF9109941F93CF93DF93DC010F
:100ED00012962C912223D9F1EC010E942B078881D4
:100EE0009981DC01ED91FC910190F081E02D69E7A1
:100EF000099588819981DC01ED91FC91AB81BC81E0
:100F00000190F081E02D6C91099588819981DC0137
:100F1000ED91FC91AB81BC810190F081E02D1196A7
:100F20006C91099512E08A81181758F4EB81FC81C5
:100F3000E10FF11D608170E0CE010E9406071F5F86
:100F4000F2CFCE01DF91CF911F910C943607DF9144
:100F5000CF911F910895AF92BF92CF92DF92EF92FF
:100F6000FF920F931F93CF93DF937C016B01A42E0D
:100F7000B22E6AE271E0C6010E949115EC016FE2A7
:100F800070E0C6010E9486158C010F5F1F4F2097ED
:100F900051F00115110539F0C01BD10BCE5FD701FF
:100FA0001296CC930AC0F60101900020E9F7EC19E3
:100FB000EF5FD7011296EC938601F701C281D0E072
:100FC000CE010E944A14D70114969C938E931397D6
:100FD000FC01EC0FFD1F1082FC01A082B182AE016A
:100FE00042505109B8010296DF91CF911F910F91A4
:100FF000FF90EF90DF90CF90BF90AF900C9477155B
:10100000DC018D919C91DC01ED91FC910480F581D6
:10101000E02D0994FF920F931F93CF93DF93DC0190
:1010200018968C911897813759F0893709F03EC08E
:10103000CD01DF91CF911F910F91FF900C94640728
:10104000D7960D911C91D8970115110509F440C050
:1010500099962D913C919A97C901019797FDC901E5
:10106000ED0195958795F82E99270E944A14482FEF
:10107000DC0121E03A2F341B3F1588F431E0320FB8
:10108000FE01E30FF11D5085FE01E20FF11D3085D9
:1010900060E8569F301911243D932E5FEBCFF80185
:1010A000DF91CF911F910F91FF900994D996ED9107
:1010B000FC91DA97309761F0AD01475F5F4F9996E9
:1010C0006C916150DF91CF911F910F91FF90099426
:1010D000DF91CF911F910F91FF9008950F931F9370
:1010E000CF93DF93EC018A0188819981DC01ED9136
:1010F000FC916F70606E0190F081E02D0995B80150
:10110000CE01DF91CF911F910F910C9406070F93A1
:101110001F93CF93DF938C01EA01DC018D919C91A9
:10112000DC01ED91FC916F7060690190F081E02D20
:101130000995F80180819181DC01ED91FC916C2F82
:101140006F770190F081E02D0995F8018081918100
:10115000DC01ED91FC91BE01660F672F661F770BD6
:101160000190F081E02DDF91CF911F910F910994B3
:10117000CF92DF92EF92FF920F931F93CF93DF9363
:1011800000D01F92CDB7DEB78C01F42E2A833B83AB
:1011900069830E942B07D8018D919C91DC01ED9110
:1011A000FC910190F081E02D698109952A81E22E60
:1011B000C22E3B81D32E8C2D8E198F1540F4F60153
:1011C00061916F0170E0C8010E940607F4CFC80169
:1011D0000F900F900F90DF91CF911F910F91FF9083
:1011E000EF90DF90CF900C9436079A01FA010190AE
:1011F0000020E9F73197AF01421B530B0C94B8085C
:10120000AB0161E70C94F508FC01603DA1F028F406
:10121000603959F0603C61F00895603E19F0643F18
:1012200069F0089554A743A7089556A745A70895C0
:1012300050AB47A7089552AB41AB089554AB43ABB5
:1012400008956F3F19F4FC0156AB45AB0895FC01BE
:1012500052AF41AF0895FC01158216821782DC015E
:10126000189688961D92A817B907E1F710A612A63E
:1012700011A605A8F6A9E02D309709F00994089564
:10128000CF93DF93EC0188819981DC01ED91FC9192
:101290000680F781E02D099528A52223A1F0873F3C
:1012A000910531F418A6CE01DF91CF910C940A0874
:1012B00029A53AA5FE01E20FF31F80872F5F3F4F5C
:1012C0003AA729A789C02D81222309F44CC0803870
:1012D00091050CF048C09FEF920F9D83FE01E90F2E
:1012E000F11D8087911178C08E81882309F474C024
:1012F000803D79F138F48039B9F0803C91F5EFA563
:10130000F8A929C0803E19F0843FD9F02AC0EBA586
:10131000FCA5309731F18885698570E0B0E88B9F36
:10132000600D711D11241BC0EDA5FEA53097C9F0FD
:101330008885698570E090E8899F600D711D112492
:101340000EC0EBA9FCA9309761F0688570E0898533
:1013500007C0E9A9FAA9309721F0688570E08F816C
:1013600009951E8239C0803F91052CF4282F2F70DB
:101370002F83807F9927803E910511F154F4803CA2
:10138000910501F1803D9105E9F08039910521F544
:1013900017C0843F9105A1F044F4803F9105E1F42A
:1013A00081E088A71AA619A617C0893F910571F098
:1013B0008F3F910589F4CE01DF91CF910C942B09D9
:1013C00092E001C091E09D838E8306C08AE892E09E
:1013D000DF91CF910C944107DF91CF9108958F92C7
:1013E0009F92AF92BF92CF92DF92EF92FF920F93B4
:1013F0001F93CF938B014A01690161E08DE00E9448
:101400003010C0E00D2C000CEE08FF08092C000C79
:10141000AA08BB088C2F90E08017910794F4C701AD
:10142000B6010E94171161E08DE00E946C10C501A9
:10143000B4010E94171160E08DE00E946C10CF5F34
:10144000E9CFCF911F910F91FF90EF90DF90CF9058
:10145000BF90AF909F908F900895CF93DF93EC0152
:1014600061E08DE00E94301022ED30E048E250E073
:1014700062E070E0CE010E94EF096AEF70E080E068
:1014800090E00E94171122ED30E048E250E063E066
:1014900070E0CE010E94EF096DE770E080E090E01F
:1014A000DF91CF910C941711CF93DF93EC0185EC72
:1014B00092E00E94A60BE881F981A5ECB2E01296B9
:1014C0008D919C9113979383828314964D915D9196
:1014D0006D917C9117974483558366837783189623
:1014E0008D919D910D90BC91A02D80879187A287B1
:1014F000B387CE010E942D0ACE010E944107CE0182
:10150000DF91CF910C946407EAE8F2E085EC92E079
:10151000918380831282CF010C942B09FC012485D6
:101520003585F901E05CFF4F808191813296208101
:101530003181821B930B8F7399270895DC011C96D0
:10154000ED91FC911D97DF01A05CBF4F2D913C9167
:10155000119712968D919C9111972817390739F0A0
:101560008D919C91E80FF91F808190E008958FEF95
:101570009FEF0895FC01A485B585FD01E05CFF4F58
:10158000208131813296808191812817390779F045
:1015900080819181A80FB91F8C91208131812F5FAB
:1015A0003F4F2F7333273183208390E008958FEFCF
:1015B0009FEF0895FC0181A1882329F0A489B589B2
:1015C0008C9186FFFBCF11A208950F931F93CF93A9
:1015D000DF93FC01A685B7858D01005C1F4FE801F4
:1015E0008881998101968F739927AD014E5B5F4F7A
:1015F000EA012881398182179307D1F3E801288114
:101600003981A20FB31F6C93A685B785A05CBF4F2D
:1016100011969C938E93A689B7892C9181E090E0D6
:10162000078C02C0880F991F0A94E2F7822B8C93D3
:1016300081E081A30488F589E02D80818064808326
:1016400081E090E0DF91CF911F910F91089508956F
:101650001F920F920FB60F9211242F934F935F9307
:101660008F939F93EF93FF938091C00082FD1CC0E6
:101670002091C60080916B0390916C0301968F734B
:10168000992740916D0350916E038417950771F06F
:10169000E0916B03F0916C03E55DFC4F2083909328
:1016A0006C0380936B0302C08091C600FF91EF91A1
:1016B0009F918F915F914F912F910F900FBE0F903F
:1016C0001F90189585EC92E00E948E0A892B11F0EC
:1016D0000C94270B08951F920F920FB60F921124AE
:1016E0002F933F938F939F93EF93FF932091270323
:1016F000309128038091290390912A0328173907F4
:1017000031F48091C1008F7D8093C10014C0E091BD
:101710002903F0912A03E951FD4F2081809129038B
:1017200090912A0301968F73992790932A038093AF
:1017300029032093C600FF91EF919F918F913F91D4
:101740002F910F900FBE0F901F901895CF92DF92A0
:10175000EF92FF920F931F93CF93DF93EC016A01F7
:101760007B014115514E6105710509F1EC89FD8937
:1017700081E090E008A002C0880F991F0A94E2F768
:10178000808360E079E08DE390E0A70196010E94FC
:10179000E91389019A01015011092109310936958E
:1017A000279517950795980101151041A8F0EC8928
:1017B000FD89108260E874E88EE190E0A70196014F
:1017C0000E94E913DA01C9010197A109B109B6958F
:1017D000A795979587959C01E889F9893083EA89CF
:1017E000FB89208319A2EE89FF89408181E090E086
:1017F0009C010C8C02C0220F331F0A94E2F7242BA9
:101800002083EE89FF8940819C010D8C02C0220F4C
:10181000331F0A94E2F7242B2083EE89FF8940814D
:101820009C010E8C02C0220F331F0A94E2F7242B76
:101830002083EE89FF8920810F8C02C0880F991FB9
:101840000A94E2F7809582238083DF91CF911F91E4
:101850000F91FF90EF90DF90CF900895E5ECF2E0CC
:101860001382128288EE93E0A0E0B0E08483958337
:10187000A683B7838FEB91E0918380838BE293E023
:101880009587848787EE92E09787868785EC90E03E
:10189000918B808B84EC90E0938B828B80EC90E03A
:1018A000958B848B81EC90E0978B868B82EC90E01B
:1018B000918F808F86EC90E0938F828F84E0848F6D
:1018C00083E0858F87E0868F85E0878F81E080A326
:1018D00008950E9447110E942603C2E6DBE00E94A1
:1018E000DD032097E1F30E94620BF9CFCF92DF92E4
:1018F000EF92FF920F931F93CF93DF936C01EB0155
:101900007B01E40EF51E00E010E0CE15DF0561F06E
:101910006991D601ED91FC910190F081E02DC60115
:101920000995080F191FF1CFC801DF91CF911F91C1
:101930000F91FF90EF90DF90CF9008951F920F923C
:101940000FB60F9211242F933F934F935F936F9392
:101950007F938F939F93AF93BF93EF93FF93809168
:10196000700387FF05C010928500109284001BC091
:1019700020917003022E000C330B80916F0390E0D6
:101980002817390784F480917003082E000C990BF6
:10199000FC01EE0FFF1F8E0F9F1FFC01EF58FC4F45
:1019A000808186FD15C0809170038F5F80937003E6
:1019B00020917003022E000C330B80916F0390E096
:1019C00028173907C4F4809170038C3064F113C078
:1019D00080917003082E000C990BFC01EE0FFF1F85
:1019E0008E0F9F1FFC01EF58FC4F808160E08F73CA
:1019F0000E946C10D8CF809184009091850004964D
:101A000080349C4918F480E49CE905C080918400EE
:101A100090918500049690938900809388008FEFC1
:101A2000809370033BC020918400309185008091A9
:101A30007003082E000C990BFC01EE0FFF1F8E0F98
:101A40009F1FFC01EF58FC4F81819281820F931FF1
:101A5000909389008093880080917003082E000C79
:101A6000990BFC01EE0FFF1F8E0F9F1FFC01EF581B
:101A7000FC4F808186FF12C080917003082E000CFD
:101A8000990BFC01EE0FFF1F8E0F9F1FFC01EF58FB
:101A9000FC4F808161E08F730E946C10FF91EF9189
:101AA000BF91AF919F918F917F916F915F914F9176
:101AB0003F912F910F900FBE0F901F901895FC0132
:101AC00090916F039C30A0F481E0890F80936F03A5
:101AD0009083892F90E0FC01EE0FFF1F8E0F9F1F58
:101AE000FC01EF58FC4F88EB9BE0928381830895C3
:101AF0008FEF80830895DF92EF92FF920F931F93F1
:101B0000CF93DF93EC01D62E7A01890188818C3046
:101B100008F06AC061E08D2D0E9430108881E82FA6
:101B2000F0E09F01220F331FE20FF31FEF58FC4F2D
:101B30009D2D9F732081207CD22ED92AD08260E2F5
:101B400072E0AB014E195F0957FF02C04D5F5F4F56
:101B50005595479555954795498340E659E09A0133
:101B6000201B310B37FF02C02D5F3F4F3595279566
:101B7000359527952A836CE00E94DD139CE0899FB0
:101B8000B001112440E050E09A01260F371FF901FF
:101B9000EE0FFF1F2E0F3F1FF901EF58FC4F9081F2
:101BA00096FD16C04F5F5F4F4C30510569F78111AC
:101BB0000FC01092800082E0809381001092850017
:101BC00010928400B19A80916F00826080936F00C0
:101BD000E881F0E0CF01880F991FE80FF91FEF5857
:101BE000FC4F8081806480838881DF91CF911F9139
:101BF0000F91FF90EF90DF90089520E639E040E2EA
:101C000052E00C947B0DDC01EC91F0E0CF01880FE9
:101C1000991FE80FF91FEF58FC4F80818F7B80835D
:101C20000895FC0190819C3080F5818128E830E0A6
:101C3000281B310987FD3395220F331F220F331FD5
:101C4000621773077CF0828128E532E0281B310996
:101C500087FD3395220F331F220F331F621773073F
:101C60000CF49B014FB7F894892F90E0FC01EE0F24
:101C7000FF1F8E0F9F1FFC01EF58FC4F22503109B0
:101C8000220F331F328321834FBF0895AF92BF923B
:101C9000CF92DF92EF92FF920F931F93CF93DF9338
:101CA000EC01603282E078070CF03FC077FD06C09F
:101CB000653B71052CF064EB70E002C060E070E001
:101CC000898128E830E05901A81AB10887FDB3944A
:101CD000AA0CBB1CAA0CBB1C0B2C000CCC08DD08EE
:101CE000072E000C880B990B2A8108E512E0021BD5
:101CF000110927FD1395000F111F000F111F012E51
:101D0000000C220B330B3F932F931F930F9314EB75
:101D1000E12EF12C00E010E020E030E0A9010E946B
:101D200082110F900F900F900F90CE01DF91CF9105
:101D30001F910F91FF90EF90DF90CF90BF90AF90E9
:101D40000C94110EFC01808190E0FC01EE0FFF1F4E
:101D50008E0F9F1FFC01EF58FC4F808186FB882768
:101D600080F908958091C50390E02091C603821BFD
:101D7000910908959091C6038091C503981750F476
:101D8000E92FF0E0E953FC4F208130E09F5F909312
:101D9000C60302C02FEF3FEFC9010895E091C603CB
:101DA0008091C503E81730F4F0E0E953FC4F8081DF
:101DB00090E008958FEF9FEF08950895CF92DF92FE
:101DC000EF92FF920F931F93CF93DF937C01262F07
:101DD000972F8A018091A103882391F0C62FD72FD6
:101DE0006E01C40ED51ECC15DD0571F06991D701C9
:101DF000ED91FC910190F081E02DC7010995F3CFA1
:101E0000642F822F0E947712C801DF91CF911F911A
:101E10000F91FF90EF90DF90CF900895CF93DF93D5
:101E20001F92CDB7DEB769832091A1032223D1F0A1
:101E30002091A203203240F021E030E0FC01338306
:101E4000228380E090E015C08091A303E82FF0E0AA
:101E5000EC55FC4F998190838F5F8093A30380930F
:101E6000A20305C061E0CE0101960E94771281E0D5
:101E700090E00F90DF91CF910895FC0113821282C0
:101E800088EE93E0A0E0B0E084839583A683B783D7
:101E90008FEC91E09183808308951092C603109295
:101EA000C5031092A3031092A2030C94C311862FB2
:101EB000413208F040E267EC73E00E94E1111092B9
:101EC000C6038093C503089521E00C94570F81E069
:101ED0008093A1036093C4031092A3031092A20302
:101EE00008950F93062F21E04091A20364EA73E066
:101EF0008091C4030E9425121092A3031092A203A2
:101F00001092A1030F91089561E00C94710F85E97F
:101F100093E00C943D0F8E3008F08E508770209126
:101F2000090190E4299F90011124822B80937C0069
:101F300080917A00806480937A0080917A0086FD97
:101F4000FCCF809178002091790090E0922B089549
:101F50001F93CF93DF93182FEB0161E00E943010A5
:101F6000209711F460E004C0CF3FD10539F461E05F
:101F7000812FDF91CF911F910C946C10E12FF0E035
:101F8000E457FF4FE491E330F9F048F4E130B9F061
:101F9000E230A1F584B5806284BDC8BD34C0E630AE
:101FA000E9F0E73019F1E43049F580918000806272
:101FB00080938000D0938B00C0938A0024C084B5A6
:101FC000806884BDC7BD1FC08091800080688093F9
:101FD0008000D0938900C093880015C08091B00024
:101FE00080688093B000C093B3000DC08091B000B2
:101FF00080628093B000C093B40005C0C038D105A2
:102000000CF0B5CFAFCFDF91CF911F910895833002
:1020100081F028F4813099F08230A1F00895863063
:10202000A9F08730B9F08430D1F4809180008F7DA1
:1020300003C0809180008F7780938000089584B5DD
:102040008F7702C084B58F7D84BD08958091B000E4
:102050008F7703C08091B0008F7D8093B00008958A
:10206000CF93DF9390E0FC01E056FF4F2491FC01F9
:10207000EC54FF4F8491882361F190E0880F991F01
:10208000FC01EE52FF4FC591D491FC01E853FF4F84
:10209000A591B491611109C09FB7F89488812095EA
:1020A00082238883EC912E230BC0623061F49FB7AA
:1020B000F8943881822F809583238883EC912E2B8E
:1020C0002C939FBF06C08FB7F894E8812E2B2883EE
:1020D0008FBFDF91CF9108951F93CF93DF93282F68
:1020E00030E0F901E457FF4F8491F901E056FF4FCA
:1020F000D491F901EC54FF4FC491CC23C9F0162FB1
:1021000081110E940710EC2FF0E0EE0FFF1FE85343
:10211000FF4FA591B4918FB7F894111105C09C9110
:10212000ED2FE095E92302C0EC91ED2BEC938FBFEE
:10213000DF91CF911F9108951F920F920FB60F92CA
:1021400011242F933F938F939F93AF93BF938091CD
:10215000E8039091E903A091EA03B091EB03309179
:10216000E70323E0230F2D3720F40196A11DB11DB5
:1021700005C026E8230F0296A11DB11D2093E70399
:102180008093E8039093E903A093EA03B093EB03F1
:102190008091EC039091ED03A091EE03B091EF03D9
:1021A0000196A11DB11D8093EC039093ED03A093C4
:1021B000EE03B093EF03BF91AF919F918F913F9149
:1021C0002F910F900FBE0F901F9018952FB7F89476
:1021D0006091E8037091E9038091EA039091EB0329
:1021E0002FBF08953FB7F8948091EC039091ED03D1
:1021F000A091EE03B091EF0326B5A89B05C02F3F39
:1022000019F00196A11DB11D3FBFBA2FA92F982F1C
:102210008827820F911DA11DB11DBC01CD0142E097
:10222000660F771F881F991F4A95D1F70895CF929F
:10223000DF92EF92FF92CF93DF936B017C010E94BC
:10224000F210EB01C114D104E104F10479F00E9411
:10225000F2106C1B7D0B683E7340A0F381E0C81A3E
:10226000D108E108F108C851DC4FECCFDF91CF91E4
:10227000FF90EF90DF90CF900895019739F0880F8D
:10228000991F880F991F02970197F1F70895789485
:1022900084B5826084BD84B5816084BD85B582606B
:1022A00085BD85B5816085BDEEE6F0E08081816009
:1022B0008083E1E8F0E01082808182608083808109
:1022C00081608083E0E8F0E0808181608083E1EBE1
:1022D000F0E0808184608083E0EBF0E080818160C9
:1022E0008083EAE7F0E0808184608083808182607F
:1022F0008083808181608083808180688083109268
:10230000C10008954F925F926F927F92AF92BF92F9
:10231000CF92DF92EF92FF920F931F93CF93DF93B1
:10232000CDB7DEB729013A019B01AC01241935096B
:102330004609570989899A89AB89BC89BC01CD01B5
:102340006A197B098C099D090E94CD13A801970188
:1023500024193509460957090E940B14CA01B9010D
:102360006A0D7B1D8C1D9D1DDF91CF911F910F91DB
:10237000FF90EF90DF90CF90BF90AF907F906F90E5
:102380005F904F90089510925D0481E080935B040C
:1023900010925A0461E082E10E946C1061E083E1D6
:1023A0000E946C10E9EBF0E080818E7F8083808159
:1023B0008D7F808388E48093B80085E48093BC009F
:1023C0000895413208F03FC090915D049111FCCF17
:1023D00091E090935D0420935B042FEF2093F00332
:1023E00010923504240F2093340490935C04909150
:1023F0005C04880F892B80935C0480915A0481309F
:1024000041F410925A0480915C048093BB0085ECE7
:1024100001C085EE8093BC0080915D048130E1F3C2
:1024200080913504841710F44091350426E334E09C
:10243000FB01D9018A2F821B841718F48D91819397
:10244000F9CF842F089580E008950F93413208F06A
:1024500046C090915D049111FCCF32E030935D0451
:1024600000935B043FEF3093F003109235044093E8
:102470003404FB0166E374E0DB013A2F361B3417AA
:1024800018F431913D93F9CF10925C0430915C04C3
:10249000880F832B80935C0480915A04813041F42F
:1024A00010925A0480915C048093BB0085EC01C0BB
:1024B00085EE8093BC00222321F080915D04823060
:1024C000D1F38091F0038F3F79F08091F003803257
:1024D00041F08091F003803331F094E005C091E049
:1024E00003C092E001C093E0892F0F9108956132FB
:1024F00098F420915D04243089F460931204FC0167
:1025000024E134E0D9018A2F821B861718F48191C7
:102510008D93F9CF80E0089581E0089582E00895D9
:1025200085ED8093BC008091BC0084FDFCCF1092AF
:102530005D04089585EC8093BC0010925D040895BD
:102540001F920F920FB60F9211242F933F934F9328
:102550005F936F937F938F939F93AF93BF93EF930B
:10256000FF938091B900887F803609F49CC068F59C
:10257000883209F45BC090F4803109F454C038F417
:10258000882309F4F5C0883009F44DC0F5C08831BE
:1025900009F44CC0803209F45DC0EEC0803409F407
:1025A00068C048F4803309F455C0883309F0E4C0AA
:1025B0008093F003A8C0803509F44FC0883509F432
:1025C0005DC0883409F0D8C0D5C0883909F4C6C0C8
:1025D000A8F4883709F467C038F4883609F463C072
:1025E000803709F460C0C8C0883809F4B7C08039A2
:1025F00009F45FC0803809F0BFC05BC0803B09F4BC
:1026000085C038F4803A09F466C0883A09F47EC07F
:10261000B3C0803C09F4A6C0883C09F4A3C0883B41
:1026200009F489C0A9C080915C0410C09091350460
:1026300080913404981770F5E091350481E08E0F95
:1026400080933504F0E0EA5CFB4F80818093BB000F
:1026500085EC85C08093F0038DC0E091350481E066
:102660008E0F809335048091BB00F0E0EA5CFB4F55
:10267000808390913504809134046DC0E0913504DD
:1026800081E08E0F809335048091BB00F0E0EA5C1E
:10269000FB4F808380915B0481116CC081E080934B
:1026A0005A0484EA60C083E080935D041092F103D1
:1026B000CFCF8091F103803208F050C0E091F10358
:1026C00081E08E0F8093F1038091BB00F0E0EE502B
:1026D000FC4F8083BDCF8091F103803230F4E091D4
:1026E000F103F0E0EE50FC4F10820E9490126091D6
:1026F000F10370E0E0915604F091570482EF93E00B
:1027000009951092F1030E949A1236C084E08093DA
:102710005D041092130410921204E0915804F09199
:102720005904099580911204811105C081E08093BC
:10273000120410921404E091130481E08E0F809330
:102740001304F0E0EC5EFB4F80818093BB0090911E
:10275000130480911204981708F47ACF85E88093C7
:10276000BC000AC085EC8093BC0010925D0404C0DC
:102770001092F0030E949012FF91EF91BF91AF91E0
:102780009F918F917F916F915F914F913F912F9189
:102790000F900FBE0F901F901895DB018F939F93A2
:1027A0000E943014BF91AF91A29F800D911DA39FF5
:1027B000900DB29F900D11240895991B79E004C0EB
:1027C000991F961708F0961B881F7A95C9F7809570
:1027D0000895A1E21A2EAA1BBB1BFD010DC0AA1F62
:1027E000BB1FEE1FFF1FA217B307E407F50720F07A
:1027F000A21BB30BE40BF50B661F771F881F991FF5
:102800001A9469F760957095809590959B01AC013D
:10281000BD01CF010895052E97FB1EF400940E9480
:10282000221457FD07D00E94E91307FC03D04EF491
:102830000C94221450954095309521953F4F4F4F61
:102840005F4F089590958095709561957F4F8F4F5C
:102850009F4F0895EE0FFF1F0590F491E02D09940E
:102860000E943B14A59F900DB49F900DA49F800DD6
:10287000911D11240895A29FB001B39FC001A39F91
:10288000700D811D1124911DB29F700D811D1124A9
:10289000911D0895CF93DF938230910510F482E06B
:1028A00090E0E0916004F091610420E030E0C0E04D
:1028B000D0E0309711F14081518148175907C0F09D
:1028C0004817590761F482819381209719F09B83FF
:1028D0008A832BC0909361048093600426C02115E5
:1028E000310519F04217530718F49A01BE01DF01B0
:1028F000EF010280F381E02DDCCF2115310509F1D4
:10290000281B390B2430310590F412968D919C913F
:1029100013976115710521F0FB019383828304C035
:102920009093610480936004FD01329644C0FD01E0
:10293000E20FF31F81939193225031092D933C9321
:102940003AC020915E0430915F04232B41F4209122
:1029500002013091030130935F0420935E042091C3
:102960000001309101012115310541F42DB73EB729
:102970004091040150910501241B350BE0915E0448
:10298000F0915F04E217F307A0F42E1B3F0B28170A
:10299000390778F0AC014E5F5F4F2417350748F0D8
:1029A0004E0F5F1F50935F0440935E048193919399
:1029B00002C0E0E0F0E0CF01DF91CF9108950F93E6
:1029C0001F93CF93DF93009709F48CC0FC013297DB
:1029D00013821282009160041091610401151105A7
:1029E00081F420813181820F931F20915E04309108
:1029F0005F042817390779F5F0935F04E0935E04CC
:102A000071C0D80140E050E0AE17BF0750F41296F5
:102A10002D913C911397AD012115310509F1D90193
:102A2000F3CF9D01DA013383228360817181860FA8
:102A3000971F8217930769F4EC0128813981260FCB
:102A4000371F2E5F3F4F318320838A819B81938381
:102A50008283452B29F4F0936104E093600442C023
:102A60001396FC93EE931297ED01499159919E01B3
:102A7000240F351FE217F30771F480819181840FD1
:102A8000951F029611969C938E9382819381139643
:102A90009C938E931297E0E0F0E0D80112968D910E
:102AA0009C911397009719F0F8018C01F6CF8D9146
:102AB0009C9198012E5F3F4F820F931F20915E04DF
:102AC00030915F042817390769F4309729F4109280
:102AD00061041092600402C01382128210935F049A
:102AE00000935E04DF91CF911F910F910895FB0138
:102AF000DC014150504048F001900D920020C9F790
:102B000001C01D9241505040E0F70895FC0181E062
:102B100090E00190061609F4CF010020D1F701974B
:102B20000895FB0151915523A9F0BF01DC014D919E
:102B300045174111E1F759F4CD010190002049F00A
:102B40004D9140154111C9F3FB014111EFCF81E0D7
:0A2B500090E001970895F894FFCF7C
:102B5A00000062042000FF130001556E6B6E6F7750
:102B6A006E2070696E206D6F6465005374616E64C7
:102B7A006172644669726D6174612E637070004996
:102B8A0032432052656164204572726F723A205452
:102B9A006F6F206D616E792062797465732072653A
:102BAA006365697665640049324320526561642031
:102BBA004572726F723A20546F6F20666577206291
:102BCA00797465732072656365697665640031306E
:102BDA002D6269742061646472657373696E67201B
:102BEA006D6F6465206973206E6F74207965742037
:102BFA00737570706F7274656400746F6F206D61A5
:102C0A006E7920717565726965730000000000E5D0
:102C1A000A760C8E0ABA0A9E0ADA0A000000000E28
:0C2C2A000FDE0EB20EBA0ECE0EDD0E0054
:00000001FF
