:100000000C94B2000C94DA000C94DA000C943905CC
:100010000C945D050C9481050C94DA000C94DA00C4
:100020000C94DA000C94DA000C94DA000C94DA00E8
:100030000C94DA000C94DA000C94DA000C94DA00D8
:100040000C9480070C94DA000C9414020C94570260
:100050000C94DA000C94DA000C94DA000C94DA00B8
:100060000C94DA000C94DA0000C2010001001100C7
:1000700011000C0000E100000A002500250021000D
:10008000009600001900390039003600127A00008D
:100090001F004600460044008070000022004D0012
:1000A0004D004A00004B00003600750075007200DC
:1000B000403800004A009C009C0099008025000008
:1000C0007200EC00EC00E900C0120000E900DA0167
:1000D000DA01D70160090000D701B603B603B30304
:1000E000B0040000B3036E076E076B0758020000F0
:1000F0006E07DC0EDC0ED80E2C010000DC0EC11DDC
:10010000C11DBE1D0000000700020100000304061F
:1001100000000000000000000102040810204080E0
:100120000102040810200102040810200404040441
:100130000404040402020202020203030303030391
:100140000000000023002600290000000000250018
:1001500028002B0000000000240027002A00DC00FB
:100160001A03E30011241FBECFEFD8E0DEBFCDBFDE
:1001700011E0A0E0B1E0EAE5F1E102C005900D92E6
:10018000A836B107D9F722E0A8E6B1E001C01D9278
:10019000AB37B207E1F710E0C1EBD0E004C0219724
:1001A000FE010E949A08CF3AD107C9F70E94550371
:1001B0000C94A0080C94000020E046E067E088E67C
:1001C00091E00C94F30588E691E00C94E40640E895
:1001D00055E260E070E088E691E00E941E0660E073
:1001E00071E088E691E00E949F0360E971E080E0A1
:1001F00090E00E94EF0763E071E088E691E00E94E2
:100200009F0360ED77E080E090E00E94EF076EE0F2
:1002100071E088E691E00E949F0360E971E080E070
:1002200090E00E94EF0761E271E088E691E00E94B1
:100230009F0360E971E080E090E00E94EF076AE2CE
:1002400071E088E691E00E949F0360E971E080E040
:1002500090E00E94EF0763E371E088E691E00E947E
:100260009F0360E971E080E090E00E94EF0788E67C
:1002700091E00C94210460E087E00E94140761E0A3
:1002800086E00E94140740E855E260E070E084E8F0
:1002900091E00E9492020E94E70068EE73E080E025
:1002A00090E00E94EF0784E891E00E94C60188E692
:1002B00091E00C9421046CE371E088E691E00E94E7
:1002C000BC0388E691E00E940904892BD1F388E6FB
:1002D00091E00E94CE03682F84E891E00E94D10152
:1002E00088E691E00E94CE03682F88E691E00E94A4
:1002F000CA04E7CFFC0124853585F901E05CFF4F96
:1003000080819181329620813181821B930B8F7382
:1003100099270895DC011C96ED91FC911D97DF0152
:10032000A05CBF4F2D913C91119712968D919C919D
:1003300011972817390739F08D919C91E80FF91F13
:10034000808190E008958FEF9FEF0895FC01A485D0
:10035000B585FD01E05CFF4F2081318132968081BF
:1003600091812817390779F080819181A80FB91FF1
:100370008C91208131812F5F3F4F2F733327318341
:10038000208390E008958FEF9FEF0895FC0181A1F5
:10039000882329F0A489B5898C9186FFFBCF11A20F
:1003A00008950F931F93CF93DF93FC01A685B78524
:1003B0008D01005C1F4FE8018881998101968F7340
:1003C0009927AD014E5B5F4FEA0128813981821781
:1003D0009307D1F3E80128813981A20FB31F6C93F1
:1003E000A685B785A05CBF4F11969C938E93A68976
:1003F000B7892C9181E090E0078C02C0880F991F8B
:100400000A94E2F7822B8C9381E081A30488F5891A
:10041000E02D80818064808381E090E0DF91CF9146
:100420001F910F91089508951F920F920FB60F928A
:1004300011242F934F935F938F939F93EF93FF9389
:100440008091C00082FD1CC02091C60080912A02CC
:1004500090912B0201968F73992740912C02509115
:100460002D028417950771F0E0912A02F0912B027A
:10047000E651FE4F208390932B0280932A0202C004
:100480008091C600FF91EF919F918F915F914F9165
:100490002F910F900FBE0F901F90189584E891E058
:1004A0000E947A01892B11F00C94130208951F9277
:1004B0000F920FB60F9211242F933F938F939F9318
:1004C000EF93FF932091E6013091E7018091E801DD
:1004D0009091E9012817390731F48091C1008F7D8F
:1004E0008093C10014C0E091E801F091E901EA5560
:1004F000FE4F20818091E8019091E90101968F7370
:1005000099279093E9018093E8012093C600FF9119
:10051000EF919F918F913F912F910F900FBE0F9070
:100520001F901895CF92DF92EF92FF920F931F9337
:10053000CF93DF93EC016A017B014115514E6105B8
:10054000710509F1EC89FD8981E090E008A002C005
:10055000880F991F0A94E2F7808360E079E08DE3C9
:1005600090E0A70196010E94640889019A01015058
:100570001109210931093695279517950795980195
:1005800001151041A8F0EC89FD89108260E874E83B
:100590008EE190E0A70196010E946408DA01C9018A
:1005A0000197A109B109B695A795979587959C01E3
:1005B000E889F9893083EA89FB89208319A2EE89C9
:1005C000FF89408181E090E09C010C8C02C0220FE9
:1005D000331F0A94E2F7242B2083EE89FF894081A0
:1005E0009C010D8C02C0220F331F0A94E2F7242BCA
:1005F0002083EE89FF8940819C010E8C02C0220F6E
:10060000331F0A94E2F7242B2083EE89FF8920818F
:100610000F8C02C0880F991F0A94E2F780958223FD
:100620008083DF91CF911F910F91FF90EF90DF902A
:10063000CF900895E4E8F1E01382128288EE93E00F
:10064000A0E0B0E084839583A683B7838CE491E037
:10065000918380838AEE91E09587848786EA91E092
:100660009787868785EC90E0918B808B84EC90E077
:10067000938B828B80EC90E0958B848B81EC90E067
:10068000978B868B82EC90E0918F808F86EC90E048
:10069000938F828F84E0848F83E0858F87E0868FBD
:1006A00085E0878F81E080A308950E9415080E944D
:1006B0003B01CEE4D2E00E945B012097E1F30E946F
:1006C0004E02F9CFCF92DF92EF92FF920F931F93DA
:1006D000CF93DF936C01EB017B01E40EF51E00E08C
:1006E00010E0CE15DF0561F06991D601ED91FC9126
:1006F0000190F081E02DC6010995080F191FF1CF77
:10070000C801DF91CF911F910F91FF90EF90DF9083
:10071000CF9008956115710579F0FB0101900020DB
:10072000E9F73197AF01461B570BDC01ED91FC91C6
:100730000280F381E02D099480E090E008950C940C
:100740008A03DC01ED91FC910190F081E02D099488
:100750000F931F93CF93DF93EC016DE00E94A103F1
:100760008C016AE0CE010E94A103800F911FDF91EE
:10077000CF911F910F9108950F931F93CF93DF9304
:10078000EC010E948A038C01CE010E94A803800F15
:10079000911FDF91CF911F910F91089520917002C9
:1007A0003091710228173907B9F490912E02809187
:1007B0002F02981789F0E0912E02F0E0E05DFD4FE6
:1007C000808120912E0230E02F5F3F4F2F7333271F
:1007D00020932E0290E008958FEF9FEF08952091CF
:1007E0007002309171022817390781F490912E021E
:1007F00080912F02981751F0E0912E02F0E0E05D19
:10080000FD4F8081082E000C990B08958FEF9FEF0C
:10081000089520917002309171022817390771F400
:1008200080912F0220912E0290E0805C9F4F821BCE
:10083000910960E470E00E945008089580E090E023
:10084000089520917002309171022817390739F408
:100850008FB7F89410922F0210922E028FBF089536
:10086000DC015196ED91FC915297908150968C91BC
:10087000809589238083089520E001972FEF8F3F93
:100880009207D9F7089520917002309171022817CC
:10089000390789F0FC01238D2E7F238F2FB7F89421
:1008A00010922F0210922E02909371028093700288
:1008B0002FBF81E0089580E00895EF92FF920F939B
:1008C0001F93CF93DF93EC018B8DEE85FF859D8584
:1008D00081FF04C08081982329F446C08081982339
:1008E00009F042C08B899C890E943C0488E0E82E74
:1008F000F12C10E001E08D899E890E943C04EE8578
:10090000FF8590818D85892311F0102B03C0802FE6
:1009100080951823000F81E0E81AF10861F78F89AC
:10092000988D0E943C048B8D81FD109580912F0243
:1009300020912E0290E001968F73992730E0821764
:10094000930779F0E0912F02F0E0E05DFD4F108316
:1009500080912F0290E001968F73992780932F0248
:1009600003C08B8D81608B8FDF91CF911F910F9191
:10097000FF90EF900895611102C00C943004DC01E7
:100980005196ED91FC915297208150968C91822B3B
:1009900080830895DF92EF92FF920F931F93CF937E
:1009A000DF93EC01298D3A8D2115310529F481E081
:1009B00090E09B838A834BC0162FDFB6F8946B8D33
:1009C000669561700E94BB04898D9A8D05960E9480
:1009D0003C048B8D98E0E92EF12C01E081FF18C0DA
:1009E000802F812321F0CE010E94300404C061E0F9
:1009F000CE010E94BB04898D9A8D0E943C04000F99
:100A000081E0E81AF10861F7CE010E94300418C0B5
:100A1000802F812329F061E0CE010E94BB0403C036
:100A2000CE010E943004898D9A8D0E943C04000FF3
:100A300081E0E81AF10861F761E0CE010E94BB0491
:100A4000DFBE898D9A8D0E943C0421E030E0C9010F
:100A5000DF91CF911F910F91FF90EF90DF9008955C
:100A60008091700290917102009711F00C945D04D6
:100A700008951F920F920FB60F9211242F933F9358
:100A80004F935F936F937F938F939F93AF93BF9396
:100A9000EF93FF930E943005FF91EF91BF91AF91CB
:100AA0009F918F917F916F915F914F913F912F9186
:100AB0000F900FBE0F901F9018951F920F920FB6B8
:100AC0000F9211242F933F934F935F936F937F93D4
:100AD0008F939F93AF93BF93EF93FF930E94300543
:100AE000FF91EF91BF91AF919F918F917F916F9106
:100AF0005F914F913F912F910F900FBE0F901F90DC
:100B000018951F920F920FB60F9211242F933F93B7
:100B10004F935F936F937F938F939F93AF93BF9305
:100B2000EF93FF930E943005FF91EF91BF91AF913A
:100B30009F918F917F916F915F914F913F912F91F5
:100B40000F900FBE0F901F9018951F93CF93DF93B8
:100B5000EC01162F61E0812F0E94140761E0812FC4
:100B60000E945007612F70E0FB01E85EFE4FE491A8
:100B7000E88BFB01E45DFE4FE491F0E0EE0FFF1F18
:100B8000E65BFE4F859194919A8B898BDF91CF9193
:100B90001F9108951F93CF93DF93EC01162F60E010
:100BA000812F0E9414078B8D81FD04C061E0812F8D
:100BB0000E9450071C87612F70E0FB01E85EFE4F2A
:100BC000E491ED87FB01E45DFE4FE491F0E0EE0F70
:100BD000FF1FE05CFE4F859194919F878E87DF9188
:100BE000CF911F9108951F93CF93DF93EC01162FA0
:100BF0001B821A8288EE93E0A0E0B0E08C839D8394
:100C0000AE83BF838CE591E0998388831C8A1B8A1D
:100C10001E8A1D8A188E1F8A1A8E198E8B8D8E7FC2
:100C200020FB81F98B8F642FCE010E94A505612FD7
:100C3000CE01DF91CF911F910C94CA05CF92DF9224
:100C4000EF92FF92CF93DF93EC011A8E198E188EDC
:100C50001F8A1E8A1D8A88E690E020E030E0FC01B1
:100C6000C590D590E590F490C416D506E606F70633
:100C700019F54CE0429FC001439F900D1124FC01E7
:100C8000E459FF4F259134913C8B2B8BFC01E259A9
:100C9000FF4F259134913E8B2D8BFC01E059FF4F86
:100CA00025913491388F2F8BFC01EE58FF4F8591A1
:100CB00094919A8F898F09C02F5F3F4F0C962D30EA
:100CC000310509F0CCCF1C8A1B8A8F89988D892B1E
:100CD00009F444C08C858631E8F59091680088302D
:100CE00050F021E08E3008F420E081E001C0880F50
:100CF0002A95EAF701C084E0892B809368008C85EF
:100D0000883038F08E3040F0863148F4ECE6F0E080
:100D100008C0EDE6F0E005C0EBE6F0E002C0E0E080
:100D2000F0E04081883030F491E001C0990F8A955D
:100D3000EAF70EC0282F30E08E3018F42850310921
:100D400002C02E50310991E001C0990F2A95EAF7AF
:100D5000942B9083898D9A8D0E943C04CE01DF9163
:100D6000CF91FF90EF90DF90CF900C944304FC0163
:100D70002485263140F5283028F02E3030F0ECE67E
:100D8000F0E005C0EDE6F0E002C0EBE6F0E0308117
:100D9000283038F481E090E001C0880F2A95EAF706
:100DA0000FC0422F50E02E3018F44850510902C0B5
:100DB0004E50510981E090E001C0880F4A95EAF752
:100DC00080958323808308952CE531E0FC013183F5
:100DD00020830C94B706833081F028F4813099F099
:100DE0008230A1F008958630A9F08730B9F08430C0
:100DF000D1F4809180008F7D03C0809180008F7737
:100E000080938000089584B58F7702C084B58F7D6C
:100E100084BD08958091B0008F7703C08091B000A9
:100E20008F7D8093B0000895CF93DF9390E0FC0115
:100E3000E85EFE4F2491FC01E45DFE4F849188231F
:100E400061F190E0880F991FFC01EC5AFE4FC591AB
:100E5000D491FC01E65BFE4FA591B491611109C0EC
:100E60009FB7F8948881209582238883EC912E2364
:100E70000BC0623061F49FB7F8943881822F80955F
:100E800083238883EC912E2B2C939FBF06C08FB7B2
:100E9000F894E8812E2B28838FBFDF91CF9108959E
:100EA0001F93CF93DF93282F30E0F901EC5FFE4FC3
:100EB0008491F901E85EFE4FD491F901E45DFE4FA3
:100EC000C491CC23C9F0162F81110E94EB06EC2FA0
:100ED000F0E0EE0FFF1FE65BFE4FA591B4918FB7D8
:100EE000F894111105C09C91ED2FE095E92302C003
:100EF000EC91ED2BEC938FBFDF91CF911F91089573
:100F00001F920F920FB60F9211242F933F938F933E
:100F10009F93AF93BF938091730290917402A091BD
:100F20007502B09176023091720223E0230F2D37C3
:100F300020F40196A11DB11D05C026E8230F0296DD
:100F4000A11DB11D209372028093730290937402CD
:100F5000A0937502B0937602809177029091780207
:100F6000A0917902B0917A020196A11DB11D8093E2
:100F7000770290937802A0937902B0937A02BF919E
:100F8000AF919F918F913F912F910F900FBE0F9036
:100F90001F9018953FB7F89480917702909178024E
:100FA000A0917902B0917A0226B5A89B05C02F3F87
:100FB00019F00196A11DB11D3FBFBA2FA92F982F7F
:100FC0008827820F911DA11DB11DBC01CD0142E0FA
:100FD000660F771F881F991F4A95D1F70895CF9202
:100FE000DF92EF92FF92CF93DF936B017C010E941F
:100FF000CA07EB01C114D104E104F10479F00E94A5
:10100000CA076C1B7D0B683E7340A0F381E0C81AD1
:10101000D108E108F108C851DC4FECCFDF91CF9146
:10102000FF90EF90DF90CF900895789484B5826020
:1010300084BD84B5816084BD85B5826085BD85B57C
:10104000816085BDEEE6F0E0808181608083E1E82B
:10105000F0E0108280818260808380818160808363
:10106000E0E8F0E0808181608083E1EBF0E0808166
:1010700084608083E0EBF0E0808181608083EAE738
:10108000F0E08081846080838081826080838081C1
:10109000816080838081806880831092C100089580
:1010A00097FB072E16F4009407D077FD09D00E9415
:1010B000860807FC05D03EF4909581959F4F0895D2
:1010C000709561957F4F0895A1E21A2EAA1BBB1B54
:1010D000FD010DC0AA1FBB1FEE1FFF1FA217B30704
:1010E000E407F50720F0A21BB30BE40BF50B661F1A
:1010F000771F881F991F1A9469F7609570958095DE
:1011000090959B01AC01BD01CF010895AA1BBB1BAB
:1011100051E107C0AA1FBB1FA617B70710F0A61BF7
:10112000B70B881F991F5A95A9F780959095BC0118
:10113000CD010895EE0FFF1F0590F491E02D099465
:1011400010E0C1EBD0E004C0FE010E949A08219695
:0A115000C23BD107C9F7F894FFCFA6
:10115A0041540041542B44454641554C5400415496
:10116A002B4E414D4553656565644D6173746572D7
:10117A000041542B524F4C454D0041542B4155547C
:10118A0048310041542B434C454152004563686F36
:10119A00207365727665720000000000D101620357
:1011AA007A01A6018A01C60100000000CA0462038E
:0811BA000904CE03EF03210438
:00000001FF
